{
  "contractName": "KittyContract",
  "abi": [
    {
      "inputs": [],
      "stateMutability": "nonpayable",
      "type": "constructor"
    },
    {
      "anonymous": false,
      "inputs": [
        {
          "indexed": true,
          "internalType": "address",
          "name": "owner",
          "type": "address"
        },
        {
          "indexed": true,
          "internalType": "address",
          "name": "approved",
          "type": "address"
        },
        {
          "indexed": true,
          "internalType": "uint256",
          "name": "tokenId",
          "type": "uint256"
        }
      ],
      "name": "Approval",
      "type": "event"
    },
    {
      "anonymous": false,
      "inputs": [
        {
          "indexed": true,
          "internalType": "address",
          "name": "owner",
          "type": "address"
        },
        {
          "indexed": true,
          "internalType": "address",
          "name": "operator",
          "type": "address"
        },
        {
          "indexed": false,
          "internalType": "bool",
          "name": "approved",
          "type": "bool"
        }
      ],
      "name": "ApprovalForAll",
      "type": "event"
    },
    {
      "anonymous": false,
      "inputs": [
        {
          "indexed": false,
          "internalType": "address",
          "name": "owner",
          "type": "address"
        },
        {
          "indexed": false,
          "internalType": "uint256",
          "name": "kittenId",
          "type": "uint256"
        },
        {
          "indexed": false,
          "internalType": "uint256",
          "name": "mumId",
          "type": "uint256"
        },
        {
          "indexed": false,
          "internalType": "uint256",
          "name": "dadId",
          "type": "uint256"
        },
        {
          "indexed": false,
          "internalType": "uint256",
          "name": "genes",
          "type": "uint256"
        }
      ],
      "name": "Birth",
      "type": "event"
    },
    {
      "anonymous": false,
      "inputs": [
        {
          "indexed": true,
          "internalType": "address",
          "name": "from",
          "type": "address"
        },
        {
          "indexed": true,
          "internalType": "address",
          "name": "to",
          "type": "address"
        },
        {
          "indexed": true,
          "internalType": "uint256",
          "name": "tokenId",
          "type": "uint256"
        }
      ],
      "name": "Transfer",
      "type": "event"
    },
    {
      "inputs": [],
      "name": "CREATION_LIMIT_GEN0",
      "outputs": [
        {
          "internalType": "uint256",
          "name": "",
          "type": "uint256"
        }
      ],
      "stateMutability": "view",
      "type": "function"
    },
    {
      "inputs": [],
      "name": "gen0Counter",
      "outputs": [
        {
          "internalType": "uint256",
          "name": "",
          "type": "uint256"
        }
      ],
      "stateMutability": "view",
      "type": "function"
    },
    {
      "inputs": [
        {
          "internalType": "uint256",
          "name": "",
          "type": "uint256"
        }
      ],
      "name": "kittyIndexToApproved",
      "outputs": [
        {
          "internalType": "address",
          "name": "",
          "type": "address"
        }
      ],
      "stateMutability": "view",
      "type": "function"
    },
    {
      "inputs": [
        {
          "internalType": "uint256",
          "name": "",
          "type": "uint256"
        }
      ],
      "name": "kittyIndexToOwner",
      "outputs": [
        {
          "internalType": "address",
          "name": "",
          "type": "address"
        }
      ],
      "stateMutability": "view",
      "type": "function"
    },
    {
      "inputs": [],
      "name": "name",
      "outputs": [
        {
          "internalType": "string",
          "name": "",
          "type": "string"
        }
      ],
      "stateMutability": "view",
      "type": "function"
    },
    {
      "inputs": [],
      "name": "owner",
      "outputs": [
        {
          "internalType": "address",
          "name": "",
          "type": "address"
        }
      ],
      "stateMutability": "view",
      "type": "function"
    },
    {
      "inputs": [],
      "name": "symbol",
      "outputs": [
        {
          "internalType": "string",
          "name": "",
          "type": "string"
        }
      ],
      "stateMutability": "view",
      "type": "function"
    },
    {
      "inputs": [
        {
          "internalType": "uint256",
          "name": "_dadId",
          "type": "uint256"
        },
        {
          "internalType": "uint256",
          "name": "_mumId",
          "type": "uint256"
        }
      ],
      "name": "breed",
      "outputs": [
        {
          "internalType": "uint256",
          "name": "",
          "type": "uint256"
        }
      ],
      "stateMutability": "nonpayable",
      "type": "function"
    },
    {
      "inputs": [
        {
          "internalType": "bytes4",
          "name": "_interfaceId",
          "type": "bytes4"
        }
      ],
      "name": "supportsInterface",
      "outputs": [
        {
          "internalType": "bool",
          "name": "",
          "type": "bool"
        }
      ],
      "stateMutability": "pure",
      "type": "function"
    },
    {
      "inputs": [
        {
          "internalType": "address",
          "name": "_to",
          "type": "address"
        },
        {
          "internalType": "uint256",
          "name": "_tokenId",
          "type": "uint256"
        }
      ],
      "name": "approve",
      "outputs": [],
      "stateMutability": "nonpayable",
      "type": "function"
    },
    {
      "inputs": [
        {
          "internalType": "address",
          "name": "operator",
          "type": "address"
        },
        {
          "internalType": "bool",
          "name": "approved",
          "type": "bool"
        }
      ],
      "name": "setApprovalForAll",
      "outputs": [],
      "stateMutability": "nonpayable",
      "type": "function"
    },
    {
      "inputs": [
        {
          "internalType": "uint256",
          "name": "tokenId",
          "type": "uint256"
        }
      ],
      "name": "getApproved",
      "outputs": [
        {
          "internalType": "address",
          "name": "",
          "type": "address"
        }
      ],
      "stateMutability": "view",
      "type": "function"
    },
    {
      "inputs": [
        {
          "internalType": "address",
          "name": "owner",
          "type": "address"
        },
        {
          "internalType": "address",
          "name": "operator",
          "type": "address"
        }
      ],
      "name": "isApprovedForAll",
      "outputs": [
        {
          "internalType": "bool",
          "name": "",
          "type": "bool"
        }
      ],
      "stateMutability": "view",
      "type": "function"
    },
    {
      "inputs": [
        {
          "internalType": "address",
          "name": "_owner",
          "type": "address"
        }
      ],
      "name": "getKittyByOwner",
      "outputs": [
        {
          "internalType": "uint256[]",
          "name": "",
          "type": "uint256[]"
        }
      ],
      "stateMutability": "view",
      "type": "function"
    },
    {
      "inputs": [
        {
          "internalType": "address",
          "name": "_from",
          "type": "address"
        },
        {
          "internalType": "address",
          "name": "_to",
          "type": "address"
        },
        {
          "internalType": "uint256",
          "name": "_tokenId",
          "type": "uint256"
        }
      ],
      "name": "safeTransferFrom",
      "outputs": [],
      "stateMutability": "nonpayable",
      "type": "function"
    },
    {
      "inputs": [
        {
          "internalType": "address",
          "name": "_from",
          "type": "address"
        },
        {
          "internalType": "address",
          "name": "_to",
          "type": "address"
        },
        {
          "internalType": "uint256",
          "name": "_tokenId",
          "type": "uint256"
        },
        {
          "internalType": "bytes",
          "name": "_data",
          "type": "bytes"
        }
      ],
      "name": "safeTransferFrom",
      "outputs": [],
      "stateMutability": "nonpayable",
      "type": "function"
    },
    {
      "inputs": [
        {
          "internalType": "address",
          "name": "_from",
          "type": "address"
        },
        {
          "internalType": "address",
          "name": "_to",
          "type": "address"
        },
        {
          "internalType": "uint256",
          "name": "_tokenId",
          "type": "uint256"
        }
      ],
      "name": "transferFrom",
      "outputs": [],
      "stateMutability": "nonpayable",
      "type": "function"
    },
    {
      "inputs": [
        {
          "internalType": "uint256",
          "name": "_id",
          "type": "uint256"
        }
      ],
      "name": "getKitty",
      "outputs": [
        {
          "internalType": "uint256",
          "name": "genes",
          "type": "uint256"
        },
        {
          "internalType": "uint256",
          "name": "birthTime",
          "type": "uint256"
        },
        {
          "internalType": "uint256",
          "name": "mumId",
          "type": "uint256"
        },
        {
          "internalType": "uint256",
          "name": "dadId",
          "type": "uint256"
        },
        {
          "internalType": "uint256",
          "name": "generation",
          "type": "uint256"
        }
      ],
      "stateMutability": "view",
      "type": "function"
    },
    {
      "inputs": [
        {
          "internalType": "uint256",
          "name": "_genes",
          "type": "uint256"
        }
      ],
      "name": "createKittyGen0",
      "outputs": [
        {
          "internalType": "uint256",
          "name": "",
          "type": "uint256"
        }
      ],
      "stateMutability": "nonpayable",
      "type": "function"
    },
    {
      "inputs": [
        {
          "internalType": "address",
          "name": "owner",
          "type": "address"
        }
      ],
      "name": "balanceOf",
      "outputs": [
        {
          "internalType": "uint256",
          "name": "balance",
          "type": "uint256"
        }
      ],
      "stateMutability": "view",
      "type": "function"
    },
    {
      "inputs": [],
      "name": "totalSupply",
      "outputs": [
        {
          "internalType": "uint256",
          "name": "total",
          "type": "uint256"
        }
      ],
      "stateMutability": "view",
      "type": "function"
    },
    {
      "inputs": [
        {
          "internalType": "uint256",
          "name": "_tokenId",
          "type": "uint256"
        }
      ],
      "name": "ownerOf",
      "outputs": [
        {
          "internalType": "address",
          "name": "owner",
          "type": "address"
        }
      ],
      "stateMutability": "view",
      "type": "function"
    },
    {
      "inputs": [
        {
          "internalType": "address",
          "name": "_to",
          "type": "address"
        },
        {
          "internalType": "uint256",
          "name": "_tokenId",
          "type": "uint256"
        }
      ],
      "name": "transfer",
      "outputs": [],
      "stateMutability": "nonpayable",
      "type": "function"
    },
    {
      "inputs": [
        {
          "internalType": "uint256",
          "name": "_mumDna",
          "type": "uint256"
        },
        {
          "internalType": "uint256",
          "name": "_dadDna",
          "type": "uint256"
        }
      ],
      "name": "_mixDna",
      "outputs": [
        {
          "internalType": "uint256",
          "name": "",
          "type": "uint256"
        }
      ],
      "stateMutability": "view",
      "type": "function"
    }
  ],
  "bytecode": "0x6080604052336000806101000a81548173ffffffffffffffffffffffffffffffffffffffff021916908373ffffffffffffffffffffffffffffffffffffffff1602179055503480156200005157600080fd5b50620000736000806000683cd784f90c0bf5c63b60006200007a60201b60201c565b5062000582565b6000806040518060a001604052808581526020014267ffffffffffffffff1681526020018863ffffffff1681526020018763ffffffff1681526020018661ffff16815250905060018190806001815401808255809150506001900390600052602060002090600202016000909190919091506000820151816000015560208201518160010160006101000a81548167ffffffffffffffff021916908367ffffffffffffffff16021790555060408201518160010160086101000a81548163ffffffff021916908363ffffffff160217905550606082015181600101600c6101000a81548163ffffffff021916908363ffffffff16021790555060808201518160010160106101000a81548161ffff021916908361ffff1602179055505050600060018080549050620001ad919062000417565b90507f0a5311bd2a6608f08a180df2ee7c5946819a649b204b554bb8e39825b2c50ad584828a8a89604051620001e8959493929190620004a8565b60405180910390a162000204600085836200021260201b60201c565b809250505095945050505050565b600360008373ffffffffffffffffffffffffffffffffffffffff1673ffffffffffffffffffffffffffffffffffffffff1681526020019081526020016000206000815480929190620002649062000505565b9190505550816002600083815260200190815260200160002060006101000a81548173ffffffffffffffffffffffffffffffffffffffff021916908373ffffffffffffffffffffffffffffffffffffffff160217905550600073ffffffffffffffffffffffffffffffffffffffff168373ffffffffffffffffffffffffffffffffffffffff16146200037e57600360008473ffffffffffffffffffffffffffffffffffffffff1673ffffffffffffffffffffffffffffffffffffffff1681526020019081526020016000206000815480929190620003429062000553565b91905055506004600082815260200190815260200160002060006101000a81549073ffffffffffffffffffffffffffffffffffffffff02191690555b808273ffffffffffffffffffffffffffffffffffffffff168473ffffffffffffffffffffffffffffffffffffffff167fddf252ad1be2c89b69c2b068fc378daa952ba7f163c4a11628f55a4df523b3ef60405160405180910390a4505050565b6000819050919050565b7f4e487b7100000000000000000000000000000000000000000000000000000000600052601160045260246000fd5b60006200042482620003de565b91506200043183620003de565b925082821015620004475762000446620003e8565b5b828203905092915050565b600073ffffffffffffffffffffffffffffffffffffffff82169050919050565b60006200047f8262000452565b9050919050565b620004918162000472565b82525050565b620004a281620003de565b82525050565b600060a082019050620004bf600083018862000486565b620004ce602083018762000497565b620004dd604083018662000497565b620004ec606083018562000497565b620004fb608083018462000497565b9695505050505050565b60006200051282620003de565b91507fffffffffffffffffffffffffffffffffffffffffffffffffffffffffffffffff821415620005485762000547620003e8565b5b600182019050919050565b60006200056082620003de565b91506000821415620005775762000576620003e8565b5b600182039050919050565b61236e80620005926000396000f3fe608060405234801561001057600080fd5b50600436106101585760003560e01c806395d89b41116100c3578063b88d4fde1161007c578063b88d4fde146103ff578063d5a776ca1461041b578063d9ecad7b1461044b578063e985e9c51461047b578063e98b7f4d146104ab578063ef5e94aa146104df57610158565b806395d89b411461032b57806395e6c62f14610349578063a22cb46514610379578063a45f4bfc14610395578063a9059cbb146103c5578063b4834330146103e157610158565b806342842e0e1161011557806342842e0e14610231578063481af3d31461024d5780636352211e1461027d57806370a08231146102ad5780638da5cb5b146102dd578063959bb970146102fb57610158565b806301ffc9a71461015d57806306fdde031461018d578063081812fc146101ab578063095ea7b3146101db57806318160ddd146101f757806323b872dd14610215575b600080fd5b6101776004803603810190610172919061181a565b6104fd565b6040516101849190611862565b60405180910390f35b61019561059d565b6040516101a29190611916565b60405180910390f35b6101c560048036038101906101c0919061196e565b6105d6565b6040516101d291906119dc565b60405180910390f35b6101f560048036038101906101f09190611a23565b610624565b005b6101ff6106a0565b60405161020c9190611a72565b60405180910390f35b61022f600480360381019061022a9190611a8d565b6106ad565b005b61024b60048036038101906102469190611a8d565b61078a565b005b6102676004803603810190610262919061196e565b6107aa565b60405161027491906119dc565b60405180910390f35b6102976004803603810190610292919061196e565b6107dd565b6040516102a491906119dc565b60405180910390f35b6102c760048036038101906102c29190611ae0565b61081a565b6040516102d49190611a72565b60405180910390f35b6102e5610863565b6040516102f291906119dc565b60405180910390f35b61031560048036038101906103109190611b0d565b610887565b6040516103229190611a72565b60405180910390f35b6103336109e3565b6040516103409190611916565b60405180910390f35b610363600480360381019061035e9190611ae0565b610a1c565b6040516103709190611c0b565b60405180910390f35b610393600480360381019061038e9190611c59565b610b6f565b005b6103af60048036038101906103aa919061196e565b610ca5565b6040516103bc91906119dc565b60405180910390f35b6103df60048036038101906103da9190611a23565b610cd8565b005b6103e9610d6d565b6040516103f69190611a72565b60405180910390f35b61041960048036038101906104149190611dce565b610d72565b005b6104356004803603810190610430919061196e565b610d99565b6040516104429190611a72565b60405180910390f35b61046560048036038101906104609190611b0d565b610e67565b6040516104729190611a72565b60405180910390f35b61049560048036038101906104909190611e51565b610fb5565b6040516104a29190611862565b60405180910390f35b6104c560048036038101906104c0919061196e565b611049565b6040516104d6959493929190611e91565b60405180910390f35b6104e76110ff565b6040516104f49190611a72565b60405180910390f35b60006380ac58cd60e01b7bffffffffffffffffffffffffffffffffffffffffffffffffffffffff1916827bffffffffffffffffffffffffffffffffffffffffffffffffffffffff1916148061059657506301ffc9a760e01b7bffffffffffffffffffffffffffffffffffffffffffffffffffffffff1916827bffffffffffffffffffffffffffffffffffffffffffffffffffffffff1916145b9050919050565b6040518060400160405280600881526020017f5261644b6974747900000000000000000000000000000000000000000000000081525081565b600060018054905082106105e957600080fd5b6004600083815260200190815260200160002060009054906101000a900473ffffffffffffffffffffffffffffffffffffffff169050919050565b61062e3382611105565b61063757600080fd5b6106418183611171565b808273ffffffffffffffffffffffffffffffffffffffff163373ffffffffffffffffffffffffffffffffffffffff167f8c5be1e5ebec7d5bd14f71427d1e84f3dd0314c0f7b2291e5b200ac8c7c3b92560405160405180910390a45050565b6000600180549050905090565b600073ffffffffffffffffffffffffffffffffffffffff168273ffffffffffffffffffffffffffffffffffffffff1614156106e757600080fd5b8273ffffffffffffffffffffffffffffffffffffffff163373ffffffffffffffffffffffffffffffffffffffff161480610727575061072633826111c7565b5b8061073857506107378333610fb5565b5b61074157600080fd5b61074b8382611105565b61075457600080fd5b600180549050811061076557600080fd5b61077133848484611233565b61077a57600080fd5b6107858383836112ee565b505050565b6107a583838360405180602001604052806000815250610d72565b505050565b60046020528060005260406000206000915054906101000a900473ffffffffffffffffffffffffffffffffffffffff1681565b60006002600083815260200190815260200160002060009054906101000a900473ffffffffffffffffffffffffffffffffffffffff169050919050565b6000600360008373ffffffffffffffffffffffffffffffffffffffff1673ffffffffffffffffffffffffffffffffffffffff168152602001908152602001600020549050919050565b60008054906101000a900473ffffffffffffffffffffffffffffffffffffffff1681565b600061089161178b565b600061ffff426108a19190611f13565b90506000600190506000600a9050600191505b6104008211610976576000828461ffff1616146108fd576064876108d89190611f13565b61ffff168482600b81106108ef576108ee611f44565b5b60200201818152505061092b565b60648661090a9190611f13565b61ffff168482600b811061092157610920611f44565b5b6020020181815250505b6064876109389190611fa2565b96506064866109479190611fa2565b955061040082146109625760018161095f9190611fd3565b90505b60028261096f9190612007565b91506108b4565b60008092505b600b8310156109d5578483600b811061099857610997611f44565b5b6020020151816109a89190612061565b9050600a83146109c2576064816109bf9190612007565b90505b82806109cd906120b7565b93505061097c565b809550505050505092915050565b6040518060400160405280600281526020017f524b00000000000000000000000000000000000000000000000000000000000081525081565b60606000600360008473ffffffffffffffffffffffffffffffffffffffff1673ffffffffffffffffffffffffffffffffffffffff1681526020019081526020016000205467ffffffffffffffff811115610a7957610a78611ca3565b5b604051908082528060200260200182016040528015610aa75781602001602082028036833780820191505090505b5090506000805b600180549050811015610b64578473ffffffffffffffffffffffffffffffffffffffff166002600083815260200190815260200160002060009054906101000a900473ffffffffffffffffffffffffffffffffffffffff1673ffffffffffffffffffffffffffffffffffffffff161415610b515780838381518110610b3657610b35611f44565b5b6020026020010181815250508180610b4d906120b7565b9250505b8080610b5c906120b7565b915050610aae565b508192505050919050565b3373ffffffffffffffffffffffffffffffffffffffff168273ffffffffffffffffffffffffffffffffffffffff161415610ba857600080fd5b80600560003373ffffffffffffffffffffffffffffffffffffffff1673ffffffffffffffffffffffffffffffffffffffff16815260200190815260200160002060008473ffffffffffffffffffffffffffffffffffffffff1673ffffffffffffffffffffffffffffffffffffffff16815260200190815260200160002060006101000a81548160ff0219169083151502179055508173ffffffffffffffffffffffffffffffffffffffff163373ffffffffffffffffffffffffffffffffffffffff167f17307eab39ab6107e8899845ad3d59bd9653f200f220920489ca2b5937696c3183604051610c999190611862565b60405180910390a35050565b60026020528060005260406000206000915054906101000a900473ffffffffffffffffffffffffffffffffffffffff1681565b600073ffffffffffffffffffffffffffffffffffffffff168273ffffffffffffffffffffffffffffffffffffffff161415610d1257600080fd5b3073ffffffffffffffffffffffffffffffffffffffff168273ffffffffffffffffffffffffffffffffffffffff161415610d4b57600080fd5b610d553382611105565b610d5e57600080fd5b610d693383836112ee565b5050565b601881565b610d7e33858585611233565b610d8757600080fd5b610d93848484846114b5565b50505050565b60008060009054906101000a900473ffffffffffffffffffffffffffffffffffffffff1673ffffffffffffffffffffffffffffffffffffffff163373ffffffffffffffffffffffffffffffffffffffff1614610e2a576040517f08c379a0000000000000000000000000000000000000000000000000000000008152600401610e219061214c565b60405180910390fd5b601860065410610e3957600080fd5b60066000815480929190610e4c906120b7565b9190505550610e60600080600085336114db565b9050919050565b6000610e733384611105565b610eb2576040517f08c379a0000000000000000000000000000000000000000000000000000000008152600401610ea9906121b8565b60405180910390fd5b610ebc3383611105565b610efb576040517f08c379a0000000000000000000000000000000000000000000000000000000008152600401610ef2906121b8565b60405180910390fd5b600080610f0785611049565b94505050509150600080610f1a86611049565b945050505091506000610f2d8584610887565b9050600082851015610f5c57600183610f469190612061565b9050600281610f559190611fa2565b9050610f98565b82851115610f8757600185610f719190612061565b9050600281610f809190611fa2565b9050610f97565b600183610f949190612061565b90505b5b610fa5888a8385336114db565b5081965050505050505092915050565b6000600560008473ffffffffffffffffffffffffffffffffffffffff1673ffffffffffffffffffffffffffffffffffffffff16815260200190815260200160002060008373ffffffffffffffffffffffffffffffffffffffff1673ffffffffffffffffffffffffffffffffffffffff16815260200190815260200160002060009054906101000a900460ff16905092915050565b6000806000806000806001878154811061106657611065611f44565b5b906000526020600020906002020190508060010160009054906101000a900467ffffffffffffffff1667ffffffffffffffff1694508060010160089054906101000a900463ffffffff1663ffffffff16935080600101600c9054906101000a900463ffffffff1663ffffffff1692508060010160109054906101000a900461ffff1661ffff169150806000015495505091939590929450565b60065481565b60008273ffffffffffffffffffffffffffffffffffffffff166002600084815260200190815260200160002060009054906101000a900473ffffffffffffffffffffffffffffffffffffffff1673ffffffffffffffffffffffffffffffffffffffff1614905092915050565b806004600084815260200190815260200160002060006101000a81548173ffffffffffffffffffffffffffffffffffffffff021916908373ffffffffffffffffffffffffffffffffffffffff1602179055505050565b60008273ffffffffffffffffffffffffffffffffffffffff166004600084815260200190815260200160002060009054906101000a900473ffffffffffffffffffffffffffffffffffffffff1673ffffffffffffffffffffffffffffffffffffffff1614905092915050565b6000600180549050821061124657600080fd5b600073ffffffffffffffffffffffffffffffffffffffff168373ffffffffffffffffffffffffffffffffffffffff16141561128057600080fd5b61128a8483611105565b61129357600080fd5b8373ffffffffffffffffffffffffffffffffffffffff168573ffffffffffffffffffffffffffffffffffffffff1614806112d357506112d285836111c7565b5b806112e457506112e38486610fb5565b5b9050949350505050565b600360008373ffffffffffffffffffffffffffffffffffffffff1673ffffffffffffffffffffffffffffffffffffffff168152602001908152602001600020600081548092919061133e906120b7565b9190505550816002600083815260200190815260200160002060006101000a81548173ffffffffffffffffffffffffffffffffffffffff021916908373ffffffffffffffffffffffffffffffffffffffff160217905550600073ffffffffffffffffffffffffffffffffffffffff168373ffffffffffffffffffffffffffffffffffffffff161461145557600360008473ffffffffffffffffffffffffffffffffffffffff1673ffffffffffffffffffffffffffffffffffffffff1681526020019081526020016000206000815480929190611419906121d8565b91905055506004600082815260200190815260200160002060006101000a81549073ffffffffffffffffffffffffffffffffffffffff02191690555b808273ffffffffffffffffffffffffffffffffffffffff168473ffffffffffffffffffffffffffffffffffffffff167fddf252ad1be2c89b69c2b068fc378daa952ba7f163c4a11628f55a4df523b3ef60405160405180910390a4505050565b6114c08484846112ee565b6114cc84848484611667565b6114d557600080fd5b50505050565b6000806040518060a001604052808581526020014267ffffffffffffffff1681526020018863ffffffff1681526020018763ffffffff1681526020018661ffff16815250905060018190806001815401808255809150506001900390600052602060002090600202016000909190919091506000820151816000015560208201518160010160006101000a81548167ffffffffffffffff021916908367ffffffffffffffff16021790555060408201518160010160086101000a81548163ffffffff021916908363ffffffff160217905550606082015181600101600c6101000a81548163ffffffff021916908363ffffffff16021790555060808201518160010160106101000a81548161ffff021916908361ffff160217905550505060006001808054905061160c9190611fd3565b90507f0a5311bd2a6608f08a180df2ee7c5946819a649b204b554bb8e39825b2c50ad584828a8a89604051611645959493929190612202565b60405180910390a1611659600085836112ee565b809250505095945050505050565b600061167284611772565b61167f576001905061176a565b60008473ffffffffffffffffffffffffffffffffffffffff1663150b7a02338887876040518563ffffffff1660e01b81526004016116c094939291906122aa565b6020604051808303816000875af11580156116df573d6000803e3d6000fd5b505050506040513d601f19601f82011682018060405250810190611703919061230b565b90507f150b7a023d4804d13e8c85fb27262cb750cf6ba9f9dd3bb30d90f482ceeb4b1f7bffffffffffffffffffffffffffffffffffffffffffffffffffffffff1916817bffffffffffffffffffffffffffffffffffffffffffffffffffffffff1916149150505b949350505050565b600080823b905060008163ffffffff1611915050919050565b604051806101600160405280600b90602082028036833780820191505090505090565b6000604051905090565b600080fd5b600080fd5b60007fffffffff0000000000000000000000000000000000000000000000000000000082169050919050565b6117f7816117c2565b811461180257600080fd5b50565b600081359050611814816117ee565b92915050565b6000602082840312156118305761182f6117b8565b5b600061183e84828501611805565b91505092915050565b60008115159050919050565b61185c81611847565b82525050565b60006020820190506118776000830184611853565b92915050565b600081519050919050565b600082825260208201905092915050565b60005b838110156118b757808201518184015260208101905061189c565b838111156118c6576000848401525b50505050565b6000601f19601f8301169050919050565b60006118e88261187d565b6118f28185611888565b9350611902818560208601611899565b61190b816118cc565b840191505092915050565b6000602082019050818103600083015261193081846118dd565b905092915050565b6000819050919050565b61194b81611938565b811461195657600080fd5b50565b60008135905061196881611942565b92915050565b600060208284031215611984576119836117b8565b5b600061199284828501611959565b91505092915050565b600073ffffffffffffffffffffffffffffffffffffffff82169050919050565b60006119c68261199b565b9050919050565b6119d6816119bb565b82525050565b60006020820190506119f160008301846119cd565b92915050565b611a00816119bb565b8114611a0b57600080fd5b50565b600081359050611a1d816119f7565b92915050565b60008060408385031215611a3a57611a396117b8565b5b6000611a4885828601611a0e565b9250506020611a5985828601611959565b9150509250929050565b611a6c81611938565b82525050565b6000602082019050611a876000830184611a63565b92915050565b600080600060608486031215611aa657611aa56117b8565b5b6000611ab486828701611a0e565b9350506020611ac586828701611a0e565b9250506040611ad686828701611959565b9150509250925092565b600060208284031215611af657611af56117b8565b5b6000611b0484828501611a0e565b91505092915050565b60008060408385031215611b2457611b236117b8565b5b6000611b3285828601611959565b9250506020611b4385828601611959565b9150509250929050565b600081519050919050565b600082825260208201905092915050565b6000819050602082019050919050565b611b8281611938565b82525050565b6000611b948383611b79565b60208301905092915050565b6000602082019050919050565b6000611bb882611b4d565b611bc28185611b58565b9350611bcd83611b69565b8060005b83811015611bfe578151611be58882611b88565b9750611bf083611ba0565b925050600181019050611bd1565b5085935050505092915050565b60006020820190508181036000830152611c258184611bad565b905092915050565b611c3681611847565b8114611c4157600080fd5b50565b600081359050611c5381611c2d565b92915050565b60008060408385031215611c7057611c6f6117b8565b5b6000611c7e85828601611a0e565b9250506020611c8f85828601611c44565b9150509250929050565b600080fd5b600080fd5b7f4e487b7100000000000000000000000000000000000000000000000000000000600052604160045260246000fd5b611cdb826118cc565b810181811067ffffffffffffffff82111715611cfa57611cf9611ca3565b5b80604052505050565b6000611d0d6117ae565b9050611d198282611cd2565b919050565b600067ffffffffffffffff821115611d3957611d38611ca3565b5b611d42826118cc565b9050602081019050919050565b82818337600083830152505050565b6000611d71611d6c84611d1e565b611d03565b905082815260208101848484011115611d8d57611d8c611c9e565b5b611d98848285611d4f565b509392505050565b600082601f830112611db557611db4611c99565b5b8135611dc5848260208601611d5e565b91505092915050565b60008060008060808587031215611de857611de76117b8565b5b6000611df687828801611a0e565b9450506020611e0787828801611a0e565b9350506040611e1887828801611959565b925050606085013567ffffffffffffffff811115611e3957611e386117bd565b5b611e4587828801611da0565b91505092959194509250565b60008060408385031215611e6857611e676117b8565b5b6000611e7685828601611a0e565b9250506020611e8785828601611a0e565b9150509250929050565b600060a082019050611ea66000830188611a63565b611eb36020830187611a63565b611ec06040830186611a63565b611ecd6060830185611a63565b611eda6080830184611a63565b9695505050505050565b7f4e487b7100000000000000000000000000000000000000000000000000000000600052601260045260246000fd5b6000611f1e82611938565b9150611f2983611938565b925082611f3957611f38611ee4565b5b828206905092915050565b7f4e487b7100000000000000000000000000000000000000000000000000000000600052603260045260246000fd5b7f4e487b7100000000000000000000000000000000000000000000000000000000600052601160045260246000fd5b6000611fad82611938565b9150611fb883611938565b925082611fc857611fc7611ee4565b5b828204905092915050565b6000611fde82611938565b9150611fe983611938565b925082821015611ffc57611ffb611f73565b5b828203905092915050565b600061201282611938565b915061201d83611938565b9250817fffffffffffffffffffffffffffffffffffffffffffffffffffffffffffffffff048311821515161561205657612055611f73565b5b828202905092915050565b600061206c82611938565b915061207783611938565b9250827fffffffffffffffffffffffffffffffffffffffffffffffffffffffffffffffff038211156120ac576120ab611f73565b5b828201905092915050565b60006120c282611938565b91507fffffffffffffffffffffffffffffffffffffffffffffffffffffffffffffffff8214156120f5576120f4611f73565b5b600182019050919050565b7f596f7520617265206e6f7420746865206f776e65720000000000000000000000600082015250565b6000612136601583611888565b915061214182612100565b602082019050919050565b6000602082019050818103600083015261216581612129565b9050919050565b7f546865207573657220646f65736e2774206f776e2074686520746f6b656e0000600082015250565b60006121a2601e83611888565b91506121ad8261216c565b602082019050919050565b600060208201905081810360008301526121d181612195565b9050919050565b60006121e382611938565b915060008214156121f7576121f6611f73565b5b600182039050919050565b600060a08201905061221760008301886119cd565b6122246020830187611a63565b6122316040830186611a63565b61223e6060830185611a63565b61224b6080830184611a63565b9695505050505050565b600081519050919050565b600082825260208201905092915050565b600061227c82612255565b6122868185612260565b9350612296818560208601611899565b61229f816118cc565b840191505092915050565b60006080820190506122bf60008301876119cd565b6122cc60208301866119cd565b6122d96040830185611a63565b81810360608301526122eb8184612271565b905095945050505050565b600081519050612305816117ee565b92915050565b600060208284031215612321576123206117b8565b5b600061232f848285016122f6565b9150509291505056fea2646970667358221220342eda2bff65d641932e33bf17c7dab1a050401b4179ef8cc509cd9106abf79764736f6c634300080c0033",
  "immutableReferences": {},
  "source": "// SPDX-License-Identifier: MIT\r\npragma solidity  >=0.4.22 <0.9.0;\r\n\r\nimport \"./IERC721.sol\";\r\nimport \"./Ownable.sol\";\r\nimport \"./IERC721Receiver.sol\";\r\n\r\ncontract KittyContract is IERC721, Ownable {\r\n\r\n    uint256 public constant CREATION_LIMIT_GEN0 = 24;\r\n    string public constant name = \"RadKitty\";\r\n    string public constant symbol = \"RK\";\r\n\r\n    bytes4 internal constant MAGIC_ERC721_RECEIVED = bytes4(keccak256(\"onERC721Received(address,address,uint256,bytes)\"));\r\n\r\n    /*\r\n     *     bytes4(keccak256('balanceOf(address)')) == 0x70a08231\r\n     *     bytes4(keccak256('ownerOf(uint256)')) == 0x6352211e\r\n     *     bytes4(keccak256('approve(address,uint256)')) == 0x095ea7b3\r\n     *     bytes4(keccak256('getApproved(uint256)')) == 0x081812fc\r\n     *     bytes4(keccak256('setApprovalForAll(address,bool)')) == 0xa22cb465\r\n     *     bytes4(keccak256('isApprovedForAll(address,address)')) == 0xe985e9c5\r\n     *     bytes4(keccak256('transferFrom(address,address,uint256)')) == 0x23b872dd\r\n     *     bytes4(keccak256('safeTransferFrom(address,address,uint256)')) == 0x42842e0e\r\n     *     bytes4(keccak256('safeTransferFrom(address,address,uint256,bytes)')) == 0xb88d4fde\r\n     *\r\n     *     => 0x70a08231 ^ 0x6352211e ^ 0x095ea7b3 ^ 0x081812fc ^\r\n     *        0xa22cb465 ^ 0xe985e9c ^ 0x23b872dd ^ 0x42842e0e ^ 0xb88d4fde == 0x80ac58cd\r\n     */\r\n    bytes4 private constant _INTERFACE_ID_ERC721 = 0x80ac58cd;\r\n\r\n    /*\r\n     *     bytes4(keccak256('supportsInterface(bytes4)'));\r\n     */\r\n    bytes4 private constant _INTERFACE_ID_ERC165 = 0x01ffc9a7;\r\n\r\n    event Birth(\r\n        address owner, \r\n        uint256 kittenId, \r\n        uint256 mumId, \r\n        uint256 dadId, \r\n        uint256 genes \r\n        );\r\n\r\n    struct Kitty {\r\n        uint256 genes;\r\n        uint64 birthTime;\r\n        uint32 mumId;\r\n        uint32 dadId;\r\n        uint16 generation;\r\n    }\r\n\r\n    Kitty[] kitties;\r\n\r\n    mapping(uint256 => address) public kittyIndexToOwner;\r\n    mapping(address => uint256) ownershipTokenCount;\r\n\r\n    mapping(uint256 => address) public kittyIndexToApproved;\r\n    mapping(address => mapping (address => bool)) private _operatorApprovals;\r\n\r\n    uint256 public gen0Counter;\r\n\r\n    constructor() {\r\n        _createKitty(0, 0, 0, 1122334455667788990011, address(0));\r\n    }\r\n\r\n    function breed(uint256 _dadId, uint256 _mumId) public returns (uint256){\r\n        require(_owns(msg.sender, _dadId), \"The user doesn't own the token\");\r\n        require(_owns(msg.sender, _mumId), \"The user doesn't own the token\");\r\n\r\n        ( uint256 dadDna,,,,uint256 DadGeneration ) = getKitty(_dadId);\r\n\r\n        ( uint256 mumDna,,,,uint256 MumGeneration ) = getKitty(_mumId);\r\n        \r\n        uint256 newDna = _mixDna(dadDna, mumDna);\r\n\r\n        uint256 kidGen = 0;\r\n        if (DadGeneration < MumGeneration){\r\n            kidGen = MumGeneration + 1;\r\n            kidGen /= 2;\r\n        } else if (DadGeneration > MumGeneration){\r\n            kidGen = DadGeneration + 1;\r\n            kidGen /= 2;\r\n        } else{\r\n            kidGen = MumGeneration + 1;\r\n        }\r\n\r\n        _createKitty(_mumId, _dadId, kidGen, newDna, msg.sender);\r\n        return newDna;\r\n\r\n    }\r\n\r\n    function supportsInterface(bytes4 _interfaceId) external pure returns (bool) {\r\n        return (_interfaceId == _INTERFACE_ID_ERC721 || _interfaceId == _INTERFACE_ID_ERC165);\r\n    }\r\n\r\n    function approve(address _to, uint256 _tokenId) public {\r\n        require(_owns(msg.sender, _tokenId));\r\n\r\n        _approve(_tokenId, _to);\r\n        emit Approval(msg.sender, _to, _tokenId);\r\n    }\r\n\r\n    function setApprovalForAll(address operator, bool approved) public {\r\n        require(operator != msg.sender);\r\n        \r\n        _operatorApprovals[msg.sender][operator] = approved;\r\n        emit ApprovalForAll(msg.sender, operator, approved);\r\n    }\r\n\r\n    function getApproved(uint256 tokenId) public view returns (address) {\r\n        require(tokenId < kitties.length); //Token must exist\r\n\r\n        return kittyIndexToApproved[tokenId];\r\n    }\r\n\r\n    function isApprovedForAll(address owner, address operator) public view returns (bool) {\r\n        return _operatorApprovals[owner][operator];\r\n    }\r\n\r\n  function getKittyByOwner(address _owner) external view returns(uint[] memory) {\r\n    uint[] memory result = new uint[](ownershipTokenCount[_owner]);\r\n    uint counter = 0;\r\n    for (uint i = 0; i < kitties.length; i++) {\r\n      if (kittyIndexToOwner[i] == _owner) {\r\n        result[counter] = i;\r\n        counter++;\r\n      }\r\n    }\r\n    return result;\r\n  }\r\n\r\n    function safeTransferFrom(address _from, address _to, uint256 _tokenId) public {\r\n        safeTransferFrom(_from, _to, _tokenId, \"\");\r\n    }\r\n\r\n    function safeTransferFrom(address _from, address _to, uint256 _tokenId, bytes memory _data) public {\r\n        require( _isApprovedOrOwner(msg.sender, _from, _to, _tokenId) );\r\n        _safeTransfer(_from, _to, _tokenId, _data);\r\n    }\r\n\r\n    function _safeTransfer(address _from, address _to, uint256 _tokenId, bytes memory _data) internal {\r\n        _transfer(_from, _to, _tokenId);\r\n        require(_checkERC721Support(_from, _to, _tokenId, _data));\r\n    }\r\n\r\n    function transferFrom(address _from, address _to, uint256 _tokenId) public {\r\n      require(_to != address(0));\r\n        require(msg.sender == _from || _approvedFor(msg.sender, _tokenId) || isApprovedForAll(_from, msg.sender));\r\n        require(_owns(_from, _tokenId));\r\n        require(_tokenId < kitties.length);\r\n        \r\n        //_transfer(msg.sender, _to, _tokenId); //<=Old code\r\n        \r\n        require(_isApprovedOrOwner(msg.sender, _from, _to, _tokenId));\r\n\r\n        _transfer(_from, _to, _tokenId); //Newer code\r\n    }\r\n\r\n\r\n\r\n\r\n    function getKitty(uint256 _id) public view returns (\r\n        uint256 genes,\r\n        uint256 birthTime,\r\n        uint256 mumId,\r\n        uint256 dadId,\r\n        uint256 generation\r\n    )\r\n    {\r\n        Kitty storage kitty = kitties[_id];\r\n\r\n        birthTime = uint256(kitty.birthTime);\r\n        mumId = uint256(kitty.mumId);\r\n        dadId = uint256(kitty.dadId);\r\n        generation = uint256(kitty.generation);\r\n        genes = kitty.genes;\r\n    }\r\n\r\n  // Counts the number of cats the contract owner has created.\r\n\r\n    function createKittyGen0(uint256 _genes) public onlyOwner returns (uint256) {\r\n        require(gen0Counter < CREATION_LIMIT_GEN0);\r\n\r\n        gen0Counter++;\r\n\r\n        //Gen0 have no owners - owned by the contract\r\n        return _createKitty(0, 0, 0, _genes, msg.sender);\r\n    }\r\n\r\n    function _createKitty(\r\n        uint256 _mumId,\r\n        uint256 _dadId,\r\n        uint256 _generation,\r\n        uint256 _genes,\r\n        address _owner\r\n    ) private returns (uint256){\r\n        Kitty memory _kitty = Kitty({\r\n            genes: uint256(_genes),\r\n            birthTime: uint64(block.timestamp),\r\n            mumId: uint32(_mumId),\r\n            dadId: uint32(_dadId),\r\n            generation: uint16(_generation)\r\n        });\r\n\r\n        kitties.push(_kitty);\r\n        uint256 newKittenId =  kitties.length - 1;\r\n\r\n        emit Birth(_owner, newKittenId, _mumId, _dadId, _genes);\r\n\r\n        _transfer(address(0), _owner, newKittenId);\r\n\r\n        return newKittenId;\r\n    }\r\n\r\n    function balanceOf(address owner) external view returns (uint256 balance) {\r\n        return ownershipTokenCount[owner];\r\n    }\r\n\r\n    function totalSupply() public view returns (uint256 total) {\r\n        return kitties.length;\r\n    }\r\n\r\n    function ownerOf(uint256 _tokenId) external view returns (address owner) {\r\n        return kittyIndexToOwner[_tokenId];\r\n    }\r\n\r\n    function transfer(address _to, uint256 _tokenId) external {\r\n        require(_to != address(0));\r\n        require(_to != address(this));\r\n        require(_owns(msg.sender, _tokenId));\r\n\r\n        _transfer(msg.sender, _to, _tokenId);\r\n    }\r\n\r\n    function _transfer( address _from, address _to, uint256 _tokenId) internal {\r\n        ownershipTokenCount[_to]++;\r\n\r\n        kittyIndexToOwner[_tokenId] = _to;\r\n\r\n        if(_from != address(0)) {\r\n            ownershipTokenCount[_from]--;\r\n            delete kittyIndexToApproved[_tokenId];\r\n        }\r\n\r\n        emit Transfer(_from, _to, _tokenId);\r\n    }\r\n\r\n    function _owns(address _claimant, uint256 _tokenId) internal view returns (bool) {\r\n        return kittyIndexToOwner[_tokenId] == _claimant;\r\n    }\r\n\r\n    function _approve(uint256 _tokenId, address _approved) internal {\r\n        kittyIndexToApproved[_tokenId] = _approved;\r\n    }\r\n\r\n    function _approvedFor(address _claimant, uint _tokenId) internal view returns (bool) {\r\n        return kittyIndexToApproved[_tokenId] == _claimant;\r\n    }\r\n\r\n    function _checkERC721Support(address _from, address _to, uint256 _tokenId, bytes memory _data) internal returns (bool) {\r\n        if(!_isContract(_to)){\r\n            return true;\r\n        }\r\n        \r\n        //Call onERC721Received in thte _to contract\r\n        bytes4 returnData = IERC721Receiver(_to).onERC721Received(msg.sender, _from, _tokenId, _data);\r\n        //Check return value\r\n        return returnData == MAGIC_ERC721_RECEIVED;\r\n\r\n\r\n    }\r\n\r\n    function _isContract(address _to) view internal returns (bool) {\r\n        uint32 size;\r\n        assembly{\r\n            size := extcodesize(_to)\r\n        }\r\n        return size > 0;\r\n    }\r\n\r\n    function _isApprovedOrOwner(address _spender, address _from, address _to, uint256 _tokenId) internal view returns (bool) {\r\n        require(_tokenId < kitties.length); //Token must exist\r\n        require(_to != address(0)); //TO address is not zero address\r\n        require(_owns(_from, _tokenId)); //From owns the token\r\n        \r\n        //spender is from OR spender is approved for tokenId OR spender is operator for from\r\n        return (_spender == _from || _approvedFor(_spender, _tokenId) || isApprovedForAll(_from, _spender));\r\n    }\r\n\r\n    function _mixDna( uint256 _mumDna, uint256 _dadDna) public view returns(uint256) {\r\n        uint256[11] memory geneArray;\r\n        uint16 random = uint16(block.timestamp % 65535);\r\n        \r\n        uint256 i = 1;\r\n        uint256 index = 10;\r\n\r\n        for(i = 1; i <=1024; i = i * 2){\r\n            if(random & i != 0){\r\n                geneArray[index] = uint16(_mumDna % 100);\r\n            } else{\r\n                geneArray[index] = uint16(_dadDna % 100);\r\n            }\r\n            _mumDna = _mumDna / 100;            \r\n            _dadDna = _dadDna / 100;\r\n\r\n            if(i != 1024){index = index -1;}\r\n        }\r\n\r\n        uint256 newGene;\r\n        for(i = 0; i < 11; i++){\r\n            newGene = newGene + geneArray[i];\r\n            if(i !=10){\r\n                newGene = newGene * 100;\r\n            }\r\n        }\r\n        return newGene;\r\n\r\n    //    1.  0000000000000001 = 1\r\n    //    2.  0000000000000010 = 2\r\n    //    3.  0000000000000100 = 4\r\n    //    4.  0000000000001000 = 8\r\n    //    5.  0000000000010000 = 16\r\n    //    6.  0000000000100000 = 32\r\n    //    7.  0000000001000000 = 64\r\n    //    8.  0000000010000000 = 128\r\n    //    9.  0000000000000001 = 256\r\n    //    10. 0000000000000001 = 512\r\n    //    11. 0000000000000001 = 1024\r\n    //    12. 0000000000000001 = 2048\r\n    //    13. 0000000000000001 = 4096\r\n    //    14. 0000000000000001 = 8192\r\n    //    15. 0000000000000001 = 16384\r\n    //    16. 0000000000000001 = 32768\r\n\r\n\r\n    }\r\n\r\n\r\n\r\n \r\n\r\n}\r\n\r\n",
  "sourcePath": "C:\\Users\\daver\\Documents\\crayon-cats-clone\\crayon-cats\\contracts\\KittyContract.sol",
  "compiler": {
    "name": "solc",
    "version": "0.8.12+commit.f00d7308.Emscripten.clang"
  },
  "schemaVersion": "3.4.16",
  "updatedAt": "2024-03-29T00:49:46.030Z",
  "devdoc": {
    "kind": "dev",
    "methods": {
      "balanceOf(address)": {
        "details": "Returns the number of tokens in ``owner``'s account."
      },
      "safeTransferFrom(address,address,uint256)": {
        "details": "This works identically to the other function with an extra data parameter,  except this function just sets data to \"\".",
        "params": {
          "_from": "The current owner of the NFT",
          "_to": "The new owner",
          "_tokenId": "The NFT to transfer"
        }
      },
      "transferFrom(address,address,uint256)": {
        "details": "Throws unless `msg.sender` is the current owner, an authorized  operator, or the approved address for this NFT. Throws if `_from` is  not the current owner. Throws if `_to` is the zero address. Throws if  `_tokenId` is not a valid NFT.",
        "params": {
          "_from": "The current owner of the NFT",
          "_to": "The new owner",
          "_tokenId": "The NFT to transfer"
        }
      }
    },
    "version": 1
  },
  "userdoc": {
    "kind": "user",
    "methods": {
      "safeTransferFrom(address,address,uint256)": {
        "notice": "Transfers the ownership of an NFT from one address to another address"
      },
      "transferFrom(address,address,uint256)": {
        "notice": "Transfer ownership of an NFT -- THE CALLER IS RESPONSIBLE  TO CONFIRM THAT `_to` IS CAPABLE OF RECEIVING NFTS OR ELSE  THEY MAY BE PERMANENTLY LOST"
      }
    },
    "version": 1
  }
}