{
  "contractName": "KittyContract",
  "abi": [
    {
      "inputs": [],
      "stateMutability": "nonpayable",
      "type": "constructor"
    },
    {
      "anonymous": false,
      "inputs": [
        {
          "indexed": true,
          "internalType": "address",
          "name": "owner",
          "type": "address"
        },
        {
          "indexed": true,
          "internalType": "address",
          "name": "approved",
          "type": "address"
        },
        {
          "indexed": true,
          "internalType": "uint256",
          "name": "tokenId",
          "type": "uint256"
        }
      ],
      "name": "Approval",
      "type": "event"
    },
    {
      "anonymous": false,
      "inputs": [
        {
          "indexed": true,
          "internalType": "address",
          "name": "owner",
          "type": "address"
        },
        {
          "indexed": true,
          "internalType": "address",
          "name": "operator",
          "type": "address"
        },
        {
          "indexed": false,
          "internalType": "bool",
          "name": "approved",
          "type": "bool"
        }
      ],
      "name": "ApprovalForAll",
      "type": "event"
    },
    {
      "anonymous": false,
      "inputs": [
        {
          "indexed": false,
          "internalType": "address",
          "name": "owner",
          "type": "address"
        },
        {
          "indexed": false,
          "internalType": "uint256",
          "name": "kittenId",
          "type": "uint256"
        },
        {
          "indexed": false,
          "internalType": "uint256",
          "name": "mumId",
          "type": "uint256"
        },
        {
          "indexed": false,
          "internalType": "uint256",
          "name": "dadId",
          "type": "uint256"
        },
        {
          "indexed": false,
          "internalType": "uint256",
          "name": "genes",
          "type": "uint256"
        }
      ],
      "name": "Birth",
      "type": "event"
    },
    {
      "anonymous": false,
      "inputs": [
        {
          "indexed": false,
          "internalType": "string",
          "name": "TxType",
          "type": "string"
        },
        {
          "indexed": false,
          "internalType": "address",
          "name": "owner",
          "type": "address"
        },
        {
          "indexed": false,
          "internalType": "uint256",
          "name": "tokenId",
          "type": "uint256"
        }
      ],
      "name": "MarketTransaction",
      "type": "event"
    },
    {
      "anonymous": false,
      "inputs": [
        {
          "indexed": true,
          "internalType": "address",
          "name": "from",
          "type": "address"
        },
        {
          "indexed": true,
          "internalType": "address",
          "name": "to",
          "type": "address"
        },
        {
          "indexed": true,
          "internalType": "uint256",
          "name": "tokenId",
          "type": "uint256"
        }
      ],
      "name": "Transfer",
      "type": "event"
    },
    {
      "inputs": [],
      "name": "CREATION_LIMIT_GEN0",
      "outputs": [
        {
          "internalType": "uint256",
          "name": "",
          "type": "uint256"
        }
      ],
      "stateMutability": "view",
      "type": "function",
      "constant": true
    },
    {
      "inputs": [],
      "name": "gen0Counter",
      "outputs": [
        {
          "internalType": "uint256",
          "name": "",
          "type": "uint256"
        }
      ],
      "stateMutability": "view",
      "type": "function",
      "constant": true
    },
    {
      "inputs": [
        {
          "internalType": "uint256",
          "name": "",
          "type": "uint256"
        }
      ],
      "name": "kittyIndexToApproved",
      "outputs": [
        {
          "internalType": "address",
          "name": "",
          "type": "address"
        }
      ],
      "stateMutability": "view",
      "type": "function",
      "constant": true
    },
    {
      "inputs": [
        {
          "internalType": "uint256",
          "name": "",
          "type": "uint256"
        }
      ],
      "name": "kittyIndexToOwner",
      "outputs": [
        {
          "internalType": "address",
          "name": "",
          "type": "address"
        }
      ],
      "stateMutability": "view",
      "type": "function",
      "constant": true
    },
    {
      "inputs": [],
      "name": "name",
      "outputs": [
        {
          "internalType": "string",
          "name": "",
          "type": "string"
        }
      ],
      "stateMutability": "view",
      "type": "function",
      "constant": true
    },
    {
      "inputs": [],
      "name": "owner",
      "outputs": [
        {
          "internalType": "address",
          "name": "",
          "type": "address"
        }
      ],
      "stateMutability": "view",
      "type": "function",
      "constant": true
    },
    {
      "inputs": [],
      "name": "symbol",
      "outputs": [
        {
          "internalType": "string",
          "name": "",
          "type": "string"
        }
      ],
      "stateMutability": "view",
      "type": "function",
      "constant": true
    },
    {
      "inputs": [
        {
          "internalType": "uint256",
          "name": "_dadId",
          "type": "uint256"
        },
        {
          "internalType": "uint256",
          "name": "_mumId",
          "type": "uint256"
        }
      ],
      "name": "breed",
      "outputs": [
        {
          "internalType": "uint256",
          "name": "",
          "type": "uint256"
        }
      ],
      "stateMutability": "nonpayable",
      "type": "function"
    },
    {
      "inputs": [
        {
          "internalType": "bytes4",
          "name": "_interfaceId",
          "type": "bytes4"
        }
      ],
      "name": "supportsInterface",
      "outputs": [
        {
          "internalType": "bool",
          "name": "",
          "type": "bool"
        }
      ],
      "stateMutability": "pure",
      "type": "function",
      "constant": true
    },
    {
      "inputs": [
        {
          "internalType": "address",
          "name": "_to",
          "type": "address"
        },
        {
          "internalType": "uint256",
          "name": "_tokenId",
          "type": "uint256"
        }
      ],
      "name": "approve",
      "outputs": [],
      "stateMutability": "nonpayable",
      "type": "function"
    },
    {
      "inputs": [
        {
          "internalType": "address",
          "name": "operator",
          "type": "address"
        },
        {
          "internalType": "bool",
          "name": "approved",
          "type": "bool"
        }
      ],
      "name": "setApprovalForAll",
      "outputs": [],
      "stateMutability": "nonpayable",
      "type": "function"
    },
    {
      "inputs": [
        {
          "internalType": "uint256",
          "name": "tokenId",
          "type": "uint256"
        }
      ],
      "name": "getApproved",
      "outputs": [
        {
          "internalType": "address",
          "name": "",
          "type": "address"
        }
      ],
      "stateMutability": "view",
      "type": "function",
      "constant": true
    },
    {
      "inputs": [
        {
          "internalType": "address",
          "name": "owner",
          "type": "address"
        },
        {
          "internalType": "address",
          "name": "operator",
          "type": "address"
        }
      ],
      "name": "isApprovedForAll",
      "outputs": [
        {
          "internalType": "bool",
          "name": "",
          "type": "bool"
        }
      ],
      "stateMutability": "view",
      "type": "function",
      "constant": true
    },
    {
      "inputs": [
        {
          "internalType": "address",
          "name": "_owner",
          "type": "address"
        }
      ],
      "name": "getKittyByOwner",
      "outputs": [
        {
          "internalType": "uint256[]",
          "name": "",
          "type": "uint256[]"
        }
      ],
      "stateMutability": "view",
      "type": "function",
      "constant": true
    },
    {
      "inputs": [
        {
          "internalType": "address",
          "name": "_from",
          "type": "address"
        },
        {
          "internalType": "address",
          "name": "_to",
          "type": "address"
        },
        {
          "internalType": "uint256",
          "name": "_tokenId",
          "type": "uint256"
        }
      ],
      "name": "safeTransferFrom",
      "outputs": [],
      "stateMutability": "nonpayable",
      "type": "function"
    },
    {
      "inputs": [
        {
          "internalType": "address",
          "name": "_from",
          "type": "address"
        },
        {
          "internalType": "address",
          "name": "_to",
          "type": "address"
        },
        {
          "internalType": "uint256",
          "name": "_tokenId",
          "type": "uint256"
        },
        {
          "internalType": "bytes",
          "name": "_data",
          "type": "bytes"
        }
      ],
      "name": "safeTransferFrom",
      "outputs": [],
      "stateMutability": "nonpayable",
      "type": "function"
    },
    {
      "inputs": [
        {
          "internalType": "address",
          "name": "_from",
          "type": "address"
        },
        {
          "internalType": "address",
          "name": "_to",
          "type": "address"
        },
        {
          "internalType": "uint256",
          "name": "_tokenId",
          "type": "uint256"
        }
      ],
      "name": "transferFrom",
      "outputs": [],
      "stateMutability": "nonpayable",
      "type": "function"
    },
    {
      "inputs": [
        {
          "internalType": "uint256",
          "name": "_id",
          "type": "uint256"
        }
      ],
      "name": "getKitty",
      "outputs": [
        {
          "internalType": "uint256",
          "name": "genes",
          "type": "uint256"
        },
        {
          "internalType": "uint256",
          "name": "birthTime",
          "type": "uint256"
        },
        {
          "internalType": "uint256",
          "name": "mumId",
          "type": "uint256"
        },
        {
          "internalType": "uint256",
          "name": "dadId",
          "type": "uint256"
        },
        {
          "internalType": "uint256",
          "name": "generation",
          "type": "uint256"
        }
      ],
      "stateMutability": "view",
      "type": "function",
      "constant": true
    },
    {
      "inputs": [
        {
          "internalType": "uint256",
          "name": "_genes",
          "type": "uint256"
        }
      ],
      "name": "createKittyGen0",
      "outputs": [
        {
          "internalType": "uint256",
          "name": "",
          "type": "uint256"
        }
      ],
      "stateMutability": "nonpayable",
      "type": "function"
    },
    {
      "inputs": [
        {
          "internalType": "address",
          "name": "owner",
          "type": "address"
        }
      ],
      "name": "balanceOf",
      "outputs": [
        {
          "internalType": "uint256",
          "name": "balance",
          "type": "uint256"
        }
      ],
      "stateMutability": "view",
      "type": "function",
      "constant": true
    },
    {
      "inputs": [],
      "name": "totalSupply",
      "outputs": [
        {
          "internalType": "uint256",
          "name": "total",
          "type": "uint256"
        }
      ],
      "stateMutability": "view",
      "type": "function",
      "constant": true
    },
    {
      "inputs": [
        {
          "internalType": "uint256",
          "name": "_tokenId",
          "type": "uint256"
        }
      ],
      "name": "ownerOf",
      "outputs": [
        {
          "internalType": "address",
          "name": "owner",
          "type": "address"
        }
      ],
      "stateMutability": "view",
      "type": "function",
      "constant": true
    },
    {
      "inputs": [
        {
          "internalType": "address",
          "name": "_to",
          "type": "address"
        },
        {
          "internalType": "uint256",
          "name": "_tokenId",
          "type": "uint256"
        }
      ],
      "name": "transfer",
      "outputs": [],
      "stateMutability": "nonpayable",
      "type": "function"
    },
    {
      "inputs": [
        {
          "internalType": "uint256",
          "name": "_mumDna",
          "type": "uint256"
        },
        {
          "internalType": "uint256",
          "name": "_dadDna",
          "type": "uint256"
        }
      ],
      "name": "_mixDna",
      "outputs": [
        {
          "internalType": "uint256",
          "name": "",
          "type": "uint256"
        }
      ],
      "stateMutability": "view",
      "type": "function",
      "constant": true
    },
    {
      "inputs": [
        {
          "internalType": "uint256",
          "name": "_tokenId",
          "type": "uint256"
        }
      ],
      "name": "getOffer",
      "outputs": [
        {
          "internalType": "address",
          "name": "seller",
          "type": "address"
        },
        {
          "internalType": "uint256",
          "name": "price",
          "type": "uint256"
        },
        {
          "internalType": "uint256",
          "name": "index",
          "type": "uint256"
        },
        {
          "internalType": "uint256",
          "name": "tokenId",
          "type": "uint256"
        },
        {
          "internalType": "bool",
          "name": "active",
          "type": "bool"
        }
      ],
      "stateMutability": "view",
      "type": "function",
      "constant": true
    },
    {
      "inputs": [],
      "name": "getAllTokenOnSale",
      "outputs": [
        {
          "internalType": "uint256[]",
          "name": "listOfOffers",
          "type": "uint256[]"
        }
      ],
      "stateMutability": "view",
      "type": "function",
      "constant": true
    },
    {
      "inputs": [
        {
          "internalType": "uint256",
          "name": "_price",
          "type": "uint256"
        },
        {
          "internalType": "uint256",
          "name": "_tokenId",
          "type": "uint256"
        }
      ],
      "name": "setOffer",
      "outputs": [],
      "stateMutability": "nonpayable",
      "type": "function"
    },
    {
      "inputs": [
        {
          "internalType": "uint256",
          "name": "_tokenId",
          "type": "uint256"
        }
      ],
      "name": "removeOffer",
      "outputs": [],
      "stateMutability": "nonpayable",
      "type": "function"
    },
    {
      "inputs": [
        {
          "internalType": "uint256",
          "name": "_tokenId",
          "type": "uint256"
        }
      ],
      "name": "buyKitty",
      "outputs": [],
      "stateMutability": "payable",
      "type": "function",
      "payable": true
    }
  ],
  "bytecode": "0x6080604052336000806101000a81548173ffffffffffffffffffffffffffffffffffffffff021916908373ffffffffffffffffffffffffffffffffffffffff1602179055503480156200005157600080fd5b50620000736000806000683cd784f90c0bf5c63b60006200007a60201b60201c565b5062000582565b6000806040518060a001604052808581526020014267ffffffffffffffff1681526020018863ffffffff1681526020018763ffffffff1681526020018661ffff16815250905060018190806001815401808255809150506001900390600052602060002090600202016000909190919091506000820151816000015560208201518160010160006101000a81548167ffffffffffffffff021916908367ffffffffffffffff16021790555060408201518160010160086101000a81548163ffffffff021916908363ffffffff160217905550606082015181600101600c6101000a81548163ffffffff021916908363ffffffff16021790555060808201518160010160106101000a81548161ffff021916908361ffff1602179055505050600060018080549050620001ad919062000417565b90507f0a5311bd2a6608f08a180df2ee7c5946819a649b204b554bb8e39825b2c50ad584828a8a89604051620001e8959493929190620004a8565b60405180910390a162000204600085836200021260201b60201c565b809250505095945050505050565b600360008373ffffffffffffffffffffffffffffffffffffffff1673ffffffffffffffffffffffffffffffffffffffff1681526020019081526020016000206000815480929190620002649062000505565b9190505550816002600083815260200190815260200160002060006101000a81548173ffffffffffffffffffffffffffffffffffffffff021916908373ffffffffffffffffffffffffffffffffffffffff160217905550600073ffffffffffffffffffffffffffffffffffffffff168373ffffffffffffffffffffffffffffffffffffffff16146200037e57600360008473ffffffffffffffffffffffffffffffffffffffff1673ffffffffffffffffffffffffffffffffffffffff1681526020019081526020016000206000815480929190620003429062000553565b91905055506004600082815260200190815260200160002060006101000a81549073ffffffffffffffffffffffffffffffffffffffff02191690555b808273ffffffffffffffffffffffffffffffffffffffff168473ffffffffffffffffffffffffffffffffffffffff167fddf252ad1be2c89b69c2b068fc378daa952ba7f163c4a11628f55a4df523b3ef60405160405180910390a4505050565b6000819050919050565b7f4e487b7100000000000000000000000000000000000000000000000000000000600052601160045260246000fd5b60006200042482620003de565b91506200043183620003de565b925082821015620004475762000446620003e8565b5b828203905092915050565b600073ffffffffffffffffffffffffffffffffffffffff82169050919050565b60006200047f8262000452565b9050919050565b620004918162000472565b82525050565b620004a281620003de565b82525050565b600060a082019050620004bf600083018862000486565b620004ce602083018762000497565b620004dd604083018662000497565b620004ec606083018562000497565b620004fb608083018462000497565b9695505050505050565b60006200051282620003de565b91507fffffffffffffffffffffffffffffffffffffffffffffffffffffffffffffffff821415620005485762000547620003e8565b5b600182019050919050565b60006200056082620003de565b91506000821415620005775762000576620003e8565b5b600182039050919050565b61326680620005926000396000f3fe6080604052600436106101c25760003560e01c8063959bb970116100f7578063ae5310f611610095578063d9ecad7b11610064578063d9ecad7b14610693578063e985e9c5146106d0578063e98b7f4d1461070d578063ef5e94aa1461074e576101c2565b8063ae5310f6146105e6578063b483433014610602578063b88d4fde1461062d578063d5a776ca14610656576101c2565b806395e6c62f116100d157806395e6c62f1461051a578063a22cb46514610557578063a45f4bfc14610580578063a9059cbb146105bd576101c2565b8063959bb9701461048957806395a0f9c7146104c657806395d89b41146104ef576101c2565b80634579268a116101645780636352211e1161013e5780636352211e146103bb57806370a08231146103f85780638da5cb5b14610435578063941b055b14610460576101c2565b80634579268a14610312578063481af3d31461035357806349b3709f14610390576101c2565b8063095ea7b3116101a0578063095ea7b31461026c57806318160ddd1461029557806323b872dd146102c057806342842e0e146102e9576101c2565b806301ffc9a7146101c757806306fdde0314610204578063081812fc1461022f575b600080fd5b3480156101d357600080fd5b506101ee60048036038101906101e99190612305565b610779565b6040516101fb919061234d565b60405180910390f35b34801561021057600080fd5b50610219610819565b6040516102269190612401565b60405180910390f35b34801561023b57600080fd5b5061025660048036038101906102519190612459565b610852565b60405161026391906124c7565b60405180910390f35b34801561027857600080fd5b50610293600480360381019061028e919061250e565b6108a0565b005b3480156102a157600080fd5b506102aa61091c565b6040516102b7919061255d565b60405180910390f35b3480156102cc57600080fd5b506102e760048036038101906102e29190612578565b610929565b005b3480156102f557600080fd5b50610310600480360381019061030b9190612578565b610a06565b005b34801561031e57600080fd5b5061033960048036038101906103349190612459565b610a26565b60405161034a9594939291906125cb565b60405180910390f35b34801561035f57600080fd5b5061037a60048036038101906103759190612459565b610a9e565b60405161038791906124c7565b60405180910390f35b34801561039c57600080fd5b506103a5610ad1565b6040516103b291906126dc565b60405180910390f35b3480156103c757600080fd5b506103e260048036038101906103dd9190612459565b610c32565b6040516103ef91906124c7565b60405180910390f35b34801561040457600080fd5b5061041f600480360381019061041a91906126fe565b610c6f565b60405161042c919061255d565b60405180910390f35b34801561044157600080fd5b5061044a610cb8565b60405161045791906124c7565b60405180910390f35b34801561046c57600080fd5b506104876004803603810190610482919061272b565b610cdc565b005b34801561049557600080fd5b506104b060048036038101906104ab919061272b565b610f54565b6040516104bd919061255d565b60405180910390f35b3480156104d257600080fd5b506104ed60048036038101906104e89190612459565b6110b0565b005b3480156104fb57600080fd5b506105046112bb565b6040516105119190612401565b60405180910390f35b34801561052657600080fd5b50610541600480360381019061053c91906126fe565b6112f4565b60405161054e91906126dc565b60405180910390f35b34801561056357600080fd5b5061057e60048036038101906105799190612797565b611447565b005b34801561058c57600080fd5b506105a760048036038101906105a29190612459565b61157d565b6040516105b491906124c7565b60405180910390f35b3480156105c957600080fd5b506105e460048036038101906105df919061250e565b6115b0565b005b61060060048036038101906105fb9190612459565b611645565b005b34801561060e57600080fd5b50610617611858565b604051610624919061255d565b60405180910390f35b34801561063957600080fd5b50610654600480360381019061064f919061290c565b61185d565b005b34801561066257600080fd5b5061067d60048036038101906106789190612459565b611884565b60405161068a919061255d565b60405180910390f35b34801561069f57600080fd5b506106ba60048036038101906106b5919061272b565b611952565b6040516106c7919061255d565b60405180910390f35b3480156106dc57600080fd5b506106f760048036038101906106f2919061298f565b611aa0565b604051610704919061234d565b60405180910390f35b34801561071957600080fd5b50610734600480360381019061072f9190612459565b611b34565b6040516107459594939291906129cf565b60405180910390f35b34801561075a57600080fd5b50610763611bea565b604051610770919061255d565b60405180910390f35b60006380ac58cd60e01b7bffffffffffffffffffffffffffffffffffffffffffffffffffffffff1916827bffffffffffffffffffffffffffffffffffffffffffffffffffffffff1916148061081257506301ffc9a760e01b7bffffffffffffffffffffffffffffffffffffffffffffffffffffffff1916827bffffffffffffffffffffffffffffffffffffffffffffffffffffffff1916145b9050919050565b6040518060400160405280600881526020017f5261644b6974747900000000000000000000000000000000000000000000000081525081565b6000600180549050821061086557600080fd5b6004600083815260200190815260200160002060009054906101000a900473ffffffffffffffffffffffffffffffffffffffff169050919050565b6108aa3382611bf0565b6108b357600080fd5b6108bd8183611c5c565b808273ffffffffffffffffffffffffffffffffffffffff163373ffffffffffffffffffffffffffffffffffffffff167f8c5be1e5ebec7d5bd14f71427d1e84f3dd0314c0f7b2291e5b200ac8c7c3b92560405160405180910390a45050565b6000600180549050905090565b600073ffffffffffffffffffffffffffffffffffffffff168273ffffffffffffffffffffffffffffffffffffffff16141561096357600080fd5b8273ffffffffffffffffffffffffffffffffffffffff163373ffffffffffffffffffffffffffffffffffffffff1614806109a357506109a23382611cb2565b5b806109b457506109b38333611aa0565b5b6109bd57600080fd5b6109c78382611bf0565b6109d057600080fd5b60018054905081106109e157600080fd5b6109ed33848484611d1e565b6109f657600080fd5b610a01838383611dd9565b505050565b610a218383836040518060200160405280600081525061185d565b505050565b6000806000806000806008600088815260200190815260200160002090508060000160009054906101000a900473ffffffffffffffffffffffffffffffffffffffff168160010154826002015483600301548460040160009054906101000a900460ff16955095509550955095505091939590929450565b60046020528060005260406000206000915054906101000a900473ffffffffffffffffffffffffffffffffffffffff1681565b6060600060078054905090506000811415610b3857600067ffffffffffffffff811115610b0157610b006127e1565b5b604051908082528060200260200182016040528015610b2f5781602001602082028036833780820191505090505b50915050610c2f565b60008167ffffffffffffffff811115610b5457610b536127e1565b5b604051908082528060200260200182016040528015610b825781602001602082028036833780820191505090505b50905060005b82811015610c28576001151560078281548110610ba857610ba7612a22565b5b906000526020600020906005020160040160009054906101000a900460ff1615151415610c155760078181548110610be357610be2612a22565b5b906000526020600020906005020160030154828281518110610c0857610c07612a22565b5b6020026020010181815250505b8080610c2090612a80565b915050610b88565b8193505050505b90565b60006002600083815260200190815260200160002060009054906101000a900473ffffffffffffffffffffffffffffffffffffffff169050919050565b6000600360008373ffffffffffffffffffffffffffffffffffffffff1673ffffffffffffffffffffffffffffffffffffffff168152602001908152602001600020549050919050565b60008054906101000a900473ffffffffffffffffffffffffffffffffffffffff1681565b661ff973cafa80008211610d25576040517f08c379a0000000000000000000000000000000000000000000000000000000008152600401610d1c90612b3b565b60405180910390fd5b6000600860008381526020019081526020016000206001015414610d7e576040517f08c379a0000000000000000000000000000000000000000000000000000000008152600401610d7590612bcd565b60405180910390fd5b60006040518060a001604052803373ffffffffffffffffffffffffffffffffffffffff1681526020018481526020016007805490508152602001838152602001600115158152509050806008600084815260200190815260200160002060008201518160000160006101000a81548173ffffffffffffffffffffffffffffffffffffffff021916908373ffffffffffffffffffffffffffffffffffffffff16021790555060208201518160010155604082015181600201556060820151816003015560808201518160040160006101000a81548160ff021916908315150217905550905050600781908060018154018082558091505060019003906000526020600020906005020160009091909190915060008201518160000160006101000a81548173ffffffffffffffffffffffffffffffffffffffff021916908373ffffffffffffffffffffffffffffffffffffffff16021790555060208201518160010155604082015181600201556060820151816003015560808201518160040160006101000a81548160ff02191690831515021790555050507fd99e4fad9ad6313b1feb588fa8e605e3a9873172f2024330c35dd2b4041a43863383604051610f47929190612c39565b60405180910390a1505050565b6000610f5e612276565b600061ffff42610f6e9190612ca4565b90506000600190506000600a9050600191505b6104008211611043576000828461ffff161614610fca57606487610fa59190612ca4565b61ffff168482600b8110610fbc57610fbb612a22565b5b602002018181525050610ff8565b606486610fd79190612ca4565b61ffff168482600b8110610fee57610fed612a22565b5b6020020181815250505b6064876110059190612cd5565b96506064866110149190612cd5565b9550610400821461102f5760018161102c9190612d06565b90505b60028261103c9190612d3a565b9150610f81565b60008092505b600b8310156110a2578483600b811061106557611064612a22565b5b6020020151816110759190612d94565b9050600a831461108f5760648161108c9190612d3a565b90505b828061109a90612a80565b935050611049565b809550505050505092915050565b6000600860008381526020019081526020016000206040518060a00160405290816000820160009054906101000a900473ffffffffffffffffffffffffffffffffffffffff1673ffffffffffffffffffffffffffffffffffffffff1673ffffffffffffffffffffffffffffffffffffffff1681526020016001820154815260200160028201548152602001600382015481526020016004820160009054906101000a900460ff16151515158152505090503373ffffffffffffffffffffffffffffffffffffffff16816000015173ffffffffffffffffffffffffffffffffffffffff16146111d3576040517f08c379a00000000000000000000000000000000000000000000000000000000081526004016111ca90612e5c565b60405180910390fd5b60086000838152602001908152602001600020600080820160006101000a81549073ffffffffffffffffffffffffffffffffffffffff02191690556001820160009055600282016000905560038201600090556004820160006101000a81549060ff021916905550506000600782604001518154811061125657611255612a22565b5b906000526020600020906005020160040160006101000a81548160ff0219169083151502179055507fd99e4fad9ad6313b1feb588fa8e605e3a9873172f2024330c35dd2b4041a438633836040516112af929190612ec8565b60405180910390a15050565b6040518060400160405280600281526020017f524b00000000000000000000000000000000000000000000000000000000000081525081565b60606000600360008473ffffffffffffffffffffffffffffffffffffffff1673ffffffffffffffffffffffffffffffffffffffff1681526020019081526020016000205467ffffffffffffffff811115611351576113506127e1565b5b60405190808252806020026020018201604052801561137f5781602001602082028036833780820191505090505b5090506000805b60018054905081101561143c578473ffffffffffffffffffffffffffffffffffffffff166002600083815260200190815260200160002060009054906101000a900473ffffffffffffffffffffffffffffffffffffffff1673ffffffffffffffffffffffffffffffffffffffff161415611429578083838151811061140e5761140d612a22565b5b602002602001018181525050818061142590612a80565b9250505b808061143490612a80565b915050611386565b508192505050919050565b3373ffffffffffffffffffffffffffffffffffffffff168273ffffffffffffffffffffffffffffffffffffffff16141561148057600080fd5b80600560003373ffffffffffffffffffffffffffffffffffffffff1673ffffffffffffffffffffffffffffffffffffffff16815260200190815260200160002060008473ffffffffffffffffffffffffffffffffffffffff1673ffffffffffffffffffffffffffffffffffffffff16815260200190815260200160002060006101000a81548160ff0219169083151502179055508173ffffffffffffffffffffffffffffffffffffffff163373ffffffffffffffffffffffffffffffffffffffff167f17307eab39ab6107e8899845ad3d59bd9653f200f220920489ca2b5937696c3183604051611571919061234d565b60405180910390a35050565b60026020528060005260406000206000915054906101000a900473ffffffffffffffffffffffffffffffffffffffff1681565b600073ffffffffffffffffffffffffffffffffffffffff168273ffffffffffffffffffffffffffffffffffffffff1614156115ea57600080fd5b3073ffffffffffffffffffffffffffffffffffffffff168273ffffffffffffffffffffffffffffffffffffffff16141561162357600080fd5b61162d3382611bf0565b61163657600080fd5b611641338383611dd9565b5050565b6000600860008381526020019081526020016000206040518060a00160405290816000820160009054906101000a900473ffffffffffffffffffffffffffffffffffffffff1673ffffffffffffffffffffffffffffffffffffffff1673ffffffffffffffffffffffffffffffffffffffff1681526020016001820154815260200160028201548152602001600382015481526020016004820160009054906101000a900460ff16151515158152505090508060200151341461173c576040517f08c379a000000000000000000000000000000000000000000000000000000000815260040161173390612f50565b60405180910390fd5b60086000838152602001908152602001600020600080820160006101000a81549073ffffffffffffffffffffffffffffffffffffffff02191690556001820160009055600282016000905560038201600090556004820160006101000a81549060ff021916905550506117af8233611c5c565b60008160200151111561180c57806000015173ffffffffffffffffffffffffffffffffffffffff166108fc82602001519081150290604051600060405180830381858888f1935050505015801561180a573d6000803e3d6000fd5b505b61181b81600001513384610929565b7fd99e4fad9ad6313b1feb588fa8e605e3a9873172f2024330c35dd2b4041a4386338360405161184c929190612fbc565b60405180910390a15050565b600a81565b61186933858585611d1e565b61187257600080fd5b61187e84848484611fa0565b50505050565b60008060009054906101000a900473ffffffffffffffffffffffffffffffffffffffff1673ffffffffffffffffffffffffffffffffffffffff163373ffffffffffffffffffffffffffffffffffffffff1614611915576040517f08c379a000000000000000000000000000000000000000000000000000000000815260040161190c90613044565b60405180910390fd5b600a6006541061192457600080fd5b6006600081548092919061193790612a80565b919050555061194b60008060008533611fc6565b9050919050565b600061195e3384611bf0565b61199d576040517f08c379a0000000000000000000000000000000000000000000000000000000008152600401611994906130b0565b60405180910390fd5b6119a73383611bf0565b6119e6576040517f08c379a00000000000000000000000000000000000000000000000000000000081526004016119dd906130b0565b60405180910390fd5b6000806119f285611b34565b94505050509150600080611a0586611b34565b945050505091506000611a188584610f54565b9050600082851015611a4757600183611a319190612d94565b9050600281611a409190612cd5565b9050611a83565b82851115611a7257600185611a5c9190612d94565b9050600281611a6b9190612cd5565b9050611a82565b600183611a7f9190612d94565b90505b5b611a90888a838533611fc6565b5081965050505050505092915050565b6000600560008473ffffffffffffffffffffffffffffffffffffffff1673ffffffffffffffffffffffffffffffffffffffff16815260200190815260200160002060008373ffffffffffffffffffffffffffffffffffffffff1673ffffffffffffffffffffffffffffffffffffffff16815260200190815260200160002060009054906101000a900460ff16905092915050565b60008060008060008060018781548110611b5157611b50612a22565b5b906000526020600020906002020190508060010160009054906101000a900467ffffffffffffffff1667ffffffffffffffff1694508060010160089054906101000a900463ffffffff1663ffffffff16935080600101600c9054906101000a900463ffffffff1663ffffffff1692508060010160109054906101000a900461ffff1661ffff169150806000015495505091939590929450565b60065481565b60008273ffffffffffffffffffffffffffffffffffffffff166002600084815260200190815260200160002060009054906101000a900473ffffffffffffffffffffffffffffffffffffffff1673ffffffffffffffffffffffffffffffffffffffff1614905092915050565b806004600084815260200190815260200160002060006101000a81548173ffffffffffffffffffffffffffffffffffffffff021916908373ffffffffffffffffffffffffffffffffffffffff1602179055505050565b60008273ffffffffffffffffffffffffffffffffffffffff166004600084815260200190815260200160002060009054906101000a900473ffffffffffffffffffffffffffffffffffffffff1673ffffffffffffffffffffffffffffffffffffffff1614905092915050565b60006001805490508210611d3157600080fd5b600073ffffffffffffffffffffffffffffffffffffffff168373ffffffffffffffffffffffffffffffffffffffff161415611d6b57600080fd5b611d758483611bf0565b611d7e57600080fd5b8373ffffffffffffffffffffffffffffffffffffffff168573ffffffffffffffffffffffffffffffffffffffff161480611dbe5750611dbd8583611cb2565b5b80611dcf5750611dce8486611aa0565b5b9050949350505050565b600360008373ffffffffffffffffffffffffffffffffffffffff1673ffffffffffffffffffffffffffffffffffffffff1681526020019081526020016000206000815480929190611e2990612a80565b9190505550816002600083815260200190815260200160002060006101000a81548173ffffffffffffffffffffffffffffffffffffffff021916908373ffffffffffffffffffffffffffffffffffffffff160217905550600073ffffffffffffffffffffffffffffffffffffffff168373ffffffffffffffffffffffffffffffffffffffff1614611f4057600360008473ffffffffffffffffffffffffffffffffffffffff1673ffffffffffffffffffffffffffffffffffffffff1681526020019081526020016000206000815480929190611f04906130d0565b91905055506004600082815260200190815260200160002060006101000a81549073ffffffffffffffffffffffffffffffffffffffff02191690555b808273ffffffffffffffffffffffffffffffffffffffff168473ffffffffffffffffffffffffffffffffffffffff167fddf252ad1be2c89b69c2b068fc378daa952ba7f163c4a11628f55a4df523b3ef60405160405180910390a4505050565b611fab848484611dd9565b611fb784848484612152565b611fc057600080fd5b50505050565b6000806040518060a001604052808581526020014267ffffffffffffffff1681526020018863ffffffff1681526020018763ffffffff1681526020018661ffff16815250905060018190806001815401808255809150506001900390600052602060002090600202016000909190919091506000820151816000015560208201518160010160006101000a81548167ffffffffffffffff021916908367ffffffffffffffff16021790555060408201518160010160086101000a81548163ffffffff021916908363ffffffff160217905550606082015181600101600c6101000a81548163ffffffff021916908363ffffffff16021790555060808201518160010160106101000a81548161ffff021916908361ffff16021790555050506000600180805490506120f79190612d06565b90507f0a5311bd2a6608f08a180df2ee7c5946819a649b204b554bb8e39825b2c50ad584828a8a896040516121309594939291906130fa565b60405180910390a161214460008583611dd9565b809250505095945050505050565b600061215d8461225d565b61216a5760019050612255565b60008473ffffffffffffffffffffffffffffffffffffffff1663150b7a02338887876040518563ffffffff1660e01b81526004016121ab94939291906131a2565b6020604051808303816000875af11580156121ca573d6000803e3d6000fd5b505050506040513d601f19601f820116820180604052508101906121ee9190613203565b90507f150b7a023d4804d13e8c85fb27262cb750cf6ba9f9dd3bb30d90f482ceeb4b1f7bffffffffffffffffffffffffffffffffffffffffffffffffffffffff1916817bffffffffffffffffffffffffffffffffffffffffffffffffffffffff1916149150505b949350505050565b600080823b905060008163ffffffff1611915050919050565b604051806101600160405280600b90602082028036833780820191505090505090565b6000604051905090565b600080fd5b600080fd5b60007fffffffff0000000000000000000000000000000000000000000000000000000082169050919050565b6122e2816122ad565b81146122ed57600080fd5b50565b6000813590506122ff816122d9565b92915050565b60006020828403121561231b5761231a6122a3565b5b6000612329848285016122f0565b91505092915050565b60008115159050919050565b61234781612332565b82525050565b6000602082019050612362600083018461233e565b92915050565b600081519050919050565b600082825260208201905092915050565b60005b838110156123a2578082015181840152602081019050612387565b838111156123b1576000848401525b50505050565b6000601f19601f8301169050919050565b60006123d382612368565b6123dd8185612373565b93506123ed818560208601612384565b6123f6816123b7565b840191505092915050565b6000602082019050818103600083015261241b81846123c8565b905092915050565b6000819050919050565b61243681612423565b811461244157600080fd5b50565b6000813590506124538161242d565b92915050565b60006020828403121561246f5761246e6122a3565b5b600061247d84828501612444565b91505092915050565b600073ffffffffffffffffffffffffffffffffffffffff82169050919050565b60006124b182612486565b9050919050565b6124c1816124a6565b82525050565b60006020820190506124dc60008301846124b8565b92915050565b6124eb816124a6565b81146124f657600080fd5b50565b600081359050612508816124e2565b92915050565b60008060408385031215612525576125246122a3565b5b6000612533858286016124f9565b925050602061254485828601612444565b9150509250929050565b61255781612423565b82525050565b6000602082019050612572600083018461254e565b92915050565b600080600060608486031215612591576125906122a3565b5b600061259f868287016124f9565b93505060206125b0868287016124f9565b92505060406125c186828701612444565b9150509250925092565b600060a0820190506125e060008301886124b8565b6125ed602083018761254e565b6125fa604083018661254e565b612607606083018561254e565b612614608083018461233e565b9695505050505050565b600081519050919050565b600082825260208201905092915050565b6000819050602082019050919050565b61265381612423565b82525050565b6000612665838361264a565b60208301905092915050565b6000602082019050919050565b60006126898261261e565b6126938185612629565b935061269e8361263a565b8060005b838110156126cf5781516126b68882612659565b97506126c183612671565b9250506001810190506126a2565b5085935050505092915050565b600060208201905081810360008301526126f6818461267e565b905092915050565b600060208284031215612714576127136122a3565b5b6000612722848285016124f9565b91505092915050565b60008060408385031215612742576127416122a3565b5b600061275085828601612444565b925050602061276185828601612444565b9150509250929050565b61277481612332565b811461277f57600080fd5b50565b6000813590506127918161276b565b92915050565b600080604083850312156127ae576127ad6122a3565b5b60006127bc858286016124f9565b92505060206127cd85828601612782565b9150509250929050565b600080fd5b600080fd5b7f4e487b7100000000000000000000000000000000000000000000000000000000600052604160045260246000fd5b612819826123b7565b810181811067ffffffffffffffff82111715612838576128376127e1565b5b80604052505050565b600061284b612299565b90506128578282612810565b919050565b600067ffffffffffffffff821115612877576128766127e1565b5b612880826123b7565b9050602081019050919050565b82818337600083830152505050565b60006128af6128aa8461285c565b612841565b9050828152602081018484840111156128cb576128ca6127dc565b5b6128d684828561288d565b509392505050565b600082601f8301126128f3576128f26127d7565b5b813561290384826020860161289c565b91505092915050565b60008060008060808587031215612926576129256122a3565b5b6000612934878288016124f9565b9450506020612945878288016124f9565b935050604061295687828801612444565b925050606085013567ffffffffffffffff811115612977576129766122a8565b5b612983878288016128de565b91505092959194509250565b600080604083850312156129a6576129a56122a3565b5b60006129b4858286016124f9565b92505060206129c5858286016124f9565b9150509250929050565b600060a0820190506129e4600083018861254e565b6129f1602083018761254e565b6129fe604083018661254e565b612a0b606083018561254e565b612a18608083018461254e565b9695505050505050565b7f4e487b7100000000000000000000000000000000000000000000000000000000600052603260045260246000fd5b7f4e487b7100000000000000000000000000000000000000000000000000000000600052601160045260246000fd5b6000612a8b82612423565b91507fffffffffffffffffffffffffffffffffffffffffffffffffffffffffffffffff821415612abe57612abd612a51565b5b600182019050919050565b7f4361742070726963652073686f756c642062652067726561746572207468616e60008201527f20302e3031000000000000000000000000000000000000000000000000000000602082015250565b6000612b25602583612373565b9150612b3082612ac9565b604082019050919050565b60006020820190508181036000830152612b5481612b18565b9050919050565b7f596f752063616e27742073656c6c207477696365207468652073616d65206f6660008201527f6665727320000000000000000000000000000000000000000000000000000000602082015250565b6000612bb7602583612373565b9150612bc282612b5b565b604082019050919050565b60006020820190508181036000830152612be681612baa565b9050919050565b7f437265617465206f666665720000000000000000000000000000000000000000600082015250565b6000612c23600c83612373565b9150612c2e82612bed565b602082019050919050565b60006060820190508181036000830152612c5281612c16565b9050612c6160208301856124b8565b612c6e604083018461254e565b9392505050565b7f4e487b7100000000000000000000000000000000000000000000000000000000600052601260045260246000fd5b6000612caf82612423565b9150612cba83612423565b925082612cca57612cc9612c75565b5b828206905092915050565b6000612ce082612423565b9150612ceb83612423565b925082612cfb57612cfa612c75565b5b828204905092915050565b6000612d1182612423565b9150612d1c83612423565b925082821015612d2f57612d2e612a51565b5b828203905092915050565b6000612d4582612423565b9150612d5083612423565b9250817fffffffffffffffffffffffffffffffffffffffffffffffffffffffffffffffff0483118215151615612d8957612d88612a51565b5b828202905092915050565b6000612d9f82612423565b9150612daa83612423565b9250827fffffffffffffffffffffffffffffffffffffffffffffffffffffffffffffffff03821115612ddf57612dde612a51565b5b828201905092915050565b7f596f7520617265206e6f74207468652073656c6c6572206f662074686174204b60008201527f6974747900000000000000000000000000000000000000000000000000000000602082015250565b6000612e46602483612373565b9150612e5182612dea565b604082019050919050565b60006020820190508181036000830152612e7581612e39565b9050919050565b7f52656d6f7665204f666665720000000000000000000000000000000000000000600082015250565b6000612eb2600c83612373565b9150612ebd82612e7c565b602082019050919050565b60006060820190508181036000830152612ee181612ea5565b9050612ef060208301856124b8565b612efd604083018461254e565b9392505050565b7f54686520707269636520697320696e636f727265637400000000000000000000600082015250565b6000612f3a601683612373565b9150612f4582612f04565b602082019050919050565b60006020820190508181036000830152612f6981612f2d565b9050919050565b7f4275790000000000000000000000000000000000000000000000000000000000600082015250565b6000612fa6600383612373565b9150612fb182612f70565b602082019050919050565b60006060820190508181036000830152612fd581612f99565b9050612fe460208301856124b8565b612ff1604083018461254e565b9392505050565b7f596f7520617265206e6f7420746865206f776e65720000000000000000000000600082015250565b600061302e601583612373565b915061303982612ff8565b602082019050919050565b6000602082019050818103600083015261305d81613021565b9050919050565b7f546865207573657220646f65736e2774206f776e2074686520746f6b656e0000600082015250565b600061309a601e83612373565b91506130a582613064565b602082019050919050565b600060208201905081810360008301526130c98161308d565b9050919050565b60006130db82612423565b915060008214156130ef576130ee612a51565b5b600182039050919050565b600060a08201905061310f60008301886124b8565b61311c602083018761254e565b613129604083018661254e565b613136606083018561254e565b613143608083018461254e565b9695505050505050565b600081519050919050565b600082825260208201905092915050565b60006131748261314d565b61317e8185613158565b935061318e818560208601612384565b613197816123b7565b840191505092915050565b60006080820190506131b760008301876124b8565b6131c460208301866124b8565b6131d1604083018561254e565b81810360608301526131e38184613169565b905095945050505050565b6000815190506131fd816122d9565b92915050565b600060208284031215613219576132186122a3565b5b6000613227848285016131ee565b9150509291505056fea2646970667358221220f1e47b1228aef11f9ac5e2226eb175b51b573b780dd5cbf2d103c537035ac2d764736f6c634300080c0033",
  "immutableReferences": {},
  "source": "// SPDX-License-Identifier: MIT\r\npragma solidity  >=0.4.22 <0.9.0;\r\n\r\nimport \"./IERC721.sol\";\r\nimport \"./Ownable.sol\";\r\nimport \"./IERC721Receiver.sol\";\r\n\r\ncontract KittyContract is IERC721, Ownable {\r\n\r\n    uint256 public constant CREATION_LIMIT_GEN0 = 10;\r\n    string public constant name = \"RadKitty\";\r\n    string public constant symbol = \"RK\";\r\n\r\n    bytes4 internal constant MAGIC_ERC721_RECEIVED = bytes4(keccak256(\"onERC721Received(address,address,uint256,bytes)\"));\r\n\r\n    /*\r\n     *     bytes4(keccak256('balanceOf(address)')) == 0x70a08231\r\n     *     bytes4(keccak256('ownerOf(uint256)')) == 0x6352211e\r\n     *     bytes4(keccak256('approve(address,uint256)')) == 0x095ea7b3\r\n     *     bytes4(keccak256('getApproved(uint256)')) == 0x081812fc\r\n     *     bytes4(keccak256('setApprovalForAll(address,bool)')) == 0xa22cb465\r\n     *     bytes4(keccak256('isApprovedForAll(address,address)')) == 0xe985e9c5\r\n     *     bytes4(keccak256('transferFrom(address,address,uint256)')) == 0x23b872dd\r\n     *     bytes4(keccak256('safeTransferFrom(address,address,uint256)')) == 0x42842e0e\r\n     *     bytes4(keccak256('safeTransferFrom(address,address,uint256,bytes)')) == 0xb88d4fde\r\n     *\r\n     *     => 0x70a08231 ^ 0x6352211e ^ 0x095ea7b3 ^ 0x081812fc ^\r\n     *        0xa22cb465 ^ 0xe985e9c ^ 0x23b872dd ^ 0x42842e0e ^ 0xb88d4fde == 0x80ac58cd\r\n     */\r\n    bytes4 private constant _INTERFACE_ID_ERC721 = 0x80ac58cd;\r\n\r\n    /*\r\n     *     bytes4(keccak256('supportsInterface(bytes4)'));\r\n     */\r\n    bytes4 private constant _INTERFACE_ID_ERC165 = 0x01ffc9a7;\r\n\r\n    event Birth(\r\n        address owner, \r\n        uint256 kittenId, \r\n        uint256 mumId, \r\n        uint256 dadId, \r\n        uint256 genes \r\n        );\r\n\r\n    struct Kitty {\r\n        uint256 genes;\r\n        uint64 birthTime;\r\n        uint32 mumId;\r\n        uint32 dadId;\r\n        uint16 generation;\r\n    }\r\n\r\n    Kitty[] kitties;\r\n\r\n    mapping(uint256 => address) public kittyIndexToOwner;\r\n    mapping(address => uint256) ownershipTokenCount;\r\n\r\n    mapping(uint256 => address) public kittyIndexToApproved;\r\n    mapping(address => mapping (address => bool)) private _operatorApprovals;\r\n\r\n    uint256 public gen0Counter;\r\n\r\n    constructor() {\r\n        _createKitty(0, 0, 0, 1122334455667788990011, address(0));\r\n    }\r\n\r\n    function breed(uint256 _dadId, uint256 _mumId) public returns (uint256){\r\n        require(_owns(msg.sender, _dadId), \"The user doesn't own the token\");\r\n        require(_owns(msg.sender, _mumId), \"The user doesn't own the token\");\r\n\r\n        ( uint256 dadDna,,,,uint256 DadGeneration ) = getKitty(_dadId);\r\n\r\n        ( uint256 mumDna,,,,uint256 MumGeneration ) = getKitty(_mumId);\r\n        \r\n        uint256 newDna = _mixDna(dadDna, mumDna);\r\n\r\n        uint256 kidGen = 0;\r\n        if (DadGeneration < MumGeneration){\r\n            kidGen = MumGeneration + 1;\r\n            kidGen /= 2;\r\n        } else if (DadGeneration > MumGeneration){\r\n            kidGen = DadGeneration + 1;\r\n            kidGen /= 2;\r\n        } else{\r\n            kidGen = MumGeneration + 1;\r\n        }\r\n\r\n        _createKitty(_mumId, _dadId, kidGen, newDna, msg.sender);\r\n        return newDna;\r\n\r\n    }\r\n\r\n    function supportsInterface(bytes4 _interfaceId) external pure returns (bool) {\r\n        return (_interfaceId == _INTERFACE_ID_ERC721 || _interfaceId == _INTERFACE_ID_ERC165);\r\n    }\r\n\r\n    function approve(address _to, uint256 _tokenId) public {\r\n        require(_owns(msg.sender, _tokenId));\r\n\r\n        _approve(_tokenId, _to);\r\n        emit Approval(msg.sender, _to, _tokenId);\r\n    }\r\n\r\n    function setApprovalForAll(address operator, bool approved) public {\r\n        require(operator != msg.sender);\r\n        \r\n        _operatorApprovals[msg.sender][operator] = approved;\r\n        emit ApprovalForAll(msg.sender, operator, approved);\r\n    }\r\n\r\n    function getApproved(uint256 tokenId) public view returns (address) {\r\n        require(tokenId < kitties.length); //Token must exist\r\n\r\n        return kittyIndexToApproved[tokenId];\r\n    }\r\n\r\n    function isApprovedForAll(address owner, address operator) public view returns (bool) {\r\n        return _operatorApprovals[owner][operator];\r\n    }\r\n\r\n  function getKittyByOwner(address _owner) external view returns(uint[] memory) {\r\n    uint[] memory result = new uint[](ownershipTokenCount[_owner]);\r\n    uint counter = 0;\r\n    for (uint i = 0; i < kitties.length; i++) {\r\n      if (kittyIndexToOwner[i] == _owner) {\r\n        result[counter] = i;\r\n        counter++;\r\n      }\r\n    }\r\n    return result;\r\n  }\r\n\r\n    function safeTransferFrom(address _from, address _to, uint256 _tokenId) public {\r\n        safeTransferFrom(_from, _to, _tokenId, \"\");\r\n    }\r\n\r\n    function safeTransferFrom(address _from, address _to, uint256 _tokenId, bytes memory _data) public {\r\n        require( _isApprovedOrOwner(msg.sender, _from, _to, _tokenId) );\r\n        _safeTransfer(_from, _to, _tokenId, _data);\r\n    }\r\n\r\n    function _safeTransfer(address _from, address _to, uint256 _tokenId, bytes memory _data) internal {\r\n        _transfer(_from, _to, _tokenId);\r\n        require(_checkERC721Support(_from, _to, _tokenId, _data));\r\n    }\r\n\r\n    function transferFrom(address _from, address _to, uint256 _tokenId) public {\r\n      require(_to != address(0));\r\n        require(msg.sender == _from || _approvedFor(msg.sender, _tokenId) || isApprovedForAll(_from, msg.sender));\r\n        require(_owns(_from, _tokenId));\r\n        require(_tokenId < kitties.length);\r\n        \r\n        //_transfer(msg.sender, _to, _tokenId); //<=Old code\r\n        \r\n        require(_isApprovedOrOwner(msg.sender, _from, _to, _tokenId));\r\n\r\n        _transfer(_from, _to, _tokenId); //Newer code\r\n    }\r\n\r\n\r\n\r\n\r\n    function getKitty(uint256 _id) public view returns (\r\n        uint256 genes,\r\n        uint256 birthTime,\r\n        uint256 mumId,\r\n        uint256 dadId,\r\n        uint256 generation\r\n    )\r\n    {\r\n        Kitty storage kitty = kitties[_id];\r\n\r\n        birthTime = uint256(kitty.birthTime);\r\n        mumId = uint256(kitty.mumId);\r\n        dadId = uint256(kitty.dadId);\r\n        generation = uint256(kitty.generation);\r\n        genes = kitty.genes;\r\n    }\r\n\r\n  // Counts the number of cats the contract owner has created.\r\n\r\n    function createKittyGen0(uint256 _genes) public onlyOwner returns (uint256) {\r\n        require(gen0Counter < CREATION_LIMIT_GEN0);\r\n\r\n        gen0Counter++;\r\n\r\n        //Gen0 have no owners - owned by the contract\r\n        return _createKitty(0, 0, 0, _genes, msg.sender);\r\n    }\r\n\r\n    function _createKitty(\r\n        uint256 _mumId,\r\n        uint256 _dadId,\r\n        uint256 _generation,\r\n        uint256 _genes,\r\n        address _owner\r\n    ) private returns (uint256){\r\n        Kitty memory _kitty = Kitty({\r\n            genes: uint256(_genes),\r\n            birthTime: uint64(block.timestamp),\r\n            mumId: uint32(_mumId),\r\n            dadId: uint32(_dadId),\r\n            generation: uint16(_generation)\r\n        });\r\n\r\n        kitties.push(_kitty);\r\n        uint256 newKittenId =  kitties.length - 1;\r\n\r\n        emit Birth(_owner, newKittenId, _mumId, _dadId, _genes);\r\n\r\n        _transfer(address(0), _owner, newKittenId);\r\n\r\n        return newKittenId;\r\n    }\r\n\r\n    function balanceOf(address owner) external view returns (uint256 balance) {\r\n        return ownershipTokenCount[owner];\r\n    }\r\n\r\n    function totalSupply() public view returns (uint256 total) {\r\n        return kitties.length;\r\n    }\r\n\r\n    function ownerOf(uint256 _tokenId) external view returns (address owner) {\r\n        return kittyIndexToOwner[_tokenId];\r\n    }\r\n\r\n    function transfer(address _to, uint256 _tokenId) external {\r\n        require(_to != address(0));\r\n        require(_to != address(this));\r\n        require(_owns(msg.sender, _tokenId));\r\n\r\n        _transfer(msg.sender, _to, _tokenId);\r\n    }\r\n\r\n    function _transfer( address _from, address _to, uint256 _tokenId) internal {\r\n        ownershipTokenCount[_to]++;\r\n\r\n        kittyIndexToOwner[_tokenId] = _to;\r\n\r\n        if(_from != address(0)) {\r\n            ownershipTokenCount[_from]--;\r\n            delete kittyIndexToApproved[_tokenId];\r\n        }\r\n\r\n        emit Transfer(_from, _to, _tokenId);\r\n    }\r\n\r\n    function _owns(address _claimant, uint256 _tokenId) internal view returns (bool) {\r\n        return kittyIndexToOwner[_tokenId] == _claimant;\r\n    }\r\n\r\n    function _approve(uint256 _tokenId, address _approved) internal {\r\n        kittyIndexToApproved[_tokenId] = _approved;\r\n    }\r\n\r\n    function _approvedFor(address _claimant, uint _tokenId) internal view returns (bool) {\r\n        return kittyIndexToApproved[_tokenId] == _claimant;\r\n    }\r\n\r\n    function _checkERC721Support(address _from, address _to, uint256 _tokenId, bytes memory _data) internal returns (bool) {\r\n        if(!_isContract(_to)){\r\n            return true;\r\n        }\r\n        \r\n        //Call onERC721Received in thte _to contract\r\n        bytes4 returnData = IERC721Receiver(_to).onERC721Received(msg.sender, _from, _tokenId, _data);\r\n        //Check return value\r\n        return returnData == MAGIC_ERC721_RECEIVED;\r\n\r\n\r\n    }\r\n\r\n    function _isContract(address _to) view internal returns (bool) {\r\n        uint32 size;\r\n        assembly{\r\n            size := extcodesize(_to)\r\n        }\r\n        return size > 0;\r\n    }\r\n\r\n    function _isApprovedOrOwner(address _spender, address _from, address _to, uint256 _tokenId) internal view returns (bool) {\r\n        require(_tokenId < kitties.length); //Token must exist\r\n        require(_to != address(0)); //TO address is not zero address\r\n        require(_owns(_from, _tokenId)); //From owns the token\r\n        \r\n        //spender is from OR spender is approved for tokenId OR spender is operator for from\r\n        return (_spender == _from || _approvedFor(_spender, _tokenId) || isApprovedForAll(_from, _spender));\r\n    }\r\n\r\n    function _mixDna( uint256 _mumDna, uint256 _dadDna) public view returns(uint256) {\r\n        uint256[11] memory geneArray;\r\n        uint16 random = uint16(block.timestamp % 65535);\r\n        \r\n        uint256 i = 1;\r\n        uint256 index = 10;\r\n\r\n        for(i = 1; i <=1024; i = i * 2){\r\n            if(random & i != 0){\r\n                geneArray[index] = uint16(_mumDna % 100);\r\n            } else{\r\n                geneArray[index] = uint16(_dadDna % 100);\r\n            }\r\n            _mumDna = _mumDna / 100;            \r\n            _dadDna = _dadDna / 100;\r\n\r\n            if(i != 1024){index = index -1;}\r\n        }\r\n\r\n        uint256 newGene;\r\n        for(i = 0; i < 11; i++){\r\n            newGene = newGene + geneArray[i];\r\n            if(i !=10){\r\n                newGene = newGene * 100;\r\n            }\r\n        }\r\n        return newGene;\r\n\r\n    //    1.  0000000000000001 = 1\r\n    //    2.  0000000000000010 = 2\r\n    //    3.  0000000000000100 = 4\r\n    //    4.  0000000000001000 = 8\r\n    //    5.  0000000000010000 = 16\r\n    //    6.  0000000000100000 = 32\r\n    //    7.  0000000001000000 = 64\r\n    //    8.  0000000010000000 = 128\r\n    //    9.  0000000000000001 = 256\r\n    //    10. 0000000000000001 = 512\r\n    //    11. 0000000000000001 = 1024\r\n    //    12. 0000000000000001 = 2048\r\n    //    13. 0000000000000001 = 4096\r\n    //    14. 0000000000000001 = 8192\r\n    //    15. 0000000000000001 = 16384\r\n    //    16. 0000000000000001 = 32768\r\n\r\n\r\n    }\r\n\r\n\r\n\r\n    struct Offer {\r\n        address payable seller;\r\n        uint256 price;\r\n        uint256 index;\r\n        uint256 tokenId;\r\n        bool active;\r\n    }\r\n\r\n    Offer[] offers;\r\n\r\n    event MarketTransaction(string TxType, address owner, uint256 tokenId);\r\n    \r\n    mapping(uint256 => Offer) tokenIdToOffer;\r\n\r\n\r\n    function getOffer(uint _tokenId) public view returns (address seller, uint256 price, uint256 index, uint256 tokenId, bool active){\r\n        Offer storage offer = tokenIdToOffer[_tokenId];\r\n        return (\r\n            offer.seller,\r\n            offer.price,\r\n            offer.index,\r\n            offer.tokenId,\r\n            offer.active\r\n        );\r\n    }\r\n\r\n    function getAllTokenOnSale() external view returns(uint256[] memory listOfOffers) {\r\n        uint256 totalOffers = offers.length;\r\n\r\n        if(totalOffers == 0) {\r\n            return new uint256[](0);\r\n        } else {\r\n\r\n            uint256[] memory result = new uint256[](totalOffers); //Size 1 (of Array)\r\n\r\n            uint256 offerId;\r\n\r\n            for (offerId = 0; offerId < totalOffers; offerId++) {\r\n                if(offers[offerId].active == true) {\r\n                    result[offerId] = offers[offerId].tokenId;\r\n                }\r\n            }\r\n            return result;\r\n        }\r\n    }\r\n\r\n\r\n\r\n    //Create New Offer for the given tokenId and price\r\n    function setOffer(uint256 _price, uint256 _tokenId) public {\r\n    require(_price > 0.009 ether, \"Cat price should be greater than 0.01\");\r\n    require(tokenIdToOffer[_tokenId].price == 0, \"You can't sell twice the same offers \");\r\n\r\n        Offer memory _offer = Offer({\r\n            seller: payable(msg.sender),\r\n            price: _price,\r\n            active: true,\r\n            tokenId: _tokenId,\r\n            index: offers.length\r\n        });\r\n\r\n        tokenIdToOffer[_tokenId] = _offer;\r\n        offers.push(_offer);\r\n\r\n        emit MarketTransaction(\"Create offer\", msg.sender, _tokenId);\r\n    }\r\n\r\n    //Remove existing offer\r\n    function removeOffer(uint256 _tokenId) public {\r\n       \r\n        Offer memory offer = tokenIdToOffer[_tokenId];\r\n        require(offer.seller == msg.sender, \"You are not the seller of that Kitty\");\r\n\r\n        delete tokenIdToOffer[_tokenId];\r\n        offers[offer.index].active = false;\r\n        \r\n        emit MarketTransaction(\"Remove Offer\", msg.sender, _tokenId);\r\n    }\r\n\r\n    //Accept offer and buy Kitty\r\n    function buyKitty(uint256 _tokenId) public payable {\r\n        Offer memory offer = tokenIdToOffer[_tokenId];\r\n        require(msg.value == offer.price, \"The price is incorrect\");\r\n \r\n\r\n        //Important to delete Kitty from mapping BEFORE paying out to prevent re-entry attacks\r\n        delete tokenIdToOffer[_tokenId];\r\n\r\n        _approve(_tokenId, msg.sender);\r\n        //Transfer funds to the seller\r\n        // TO DO: make this logic pull instead of push \r\n        if(offer.price > 0){\r\n            offer.seller.transfer(offer.price);\r\n        }\r\n\r\n        //Transfer ownership of the Kitty\r\n        transferFrom(offer.seller, msg.sender, _tokenId);\r\n\r\n        emit MarketTransaction(\"Buy\", msg.sender, _tokenId); \r\n    }\r\n\r\n}\r\n\r\n",
  "sourcePath": "C:\\Users\\daver\\Documents\\KITTY CLONE\\academy-kitties-template\\contracts\\KittyContract.sol",
  "compiler": {
    "name": "solc",
    "version": "0.8.12+commit.f00d7308.Emscripten.clang"
  },
  "schemaVersion": "3.4.9",
  "updatedAt": "2022-10-26T18:18:07.562Z",
  "networkType": "ethereum",
  "devdoc": {
    "kind": "dev",
    "methods": {
      "balanceOf(address)": {
        "details": "Returns the number of tokens in ``owner``'s account."
      },
      "safeTransferFrom(address,address,uint256)": {
        "details": "This works identically to the other function with an extra data parameter,  except this function just sets data to \"\".",
        "params": {
          "_from": "The current owner of the NFT",
          "_to": "The new owner",
          "_tokenId": "The NFT to transfer"
        }
      },
      "transferFrom(address,address,uint256)": {
        "details": "Throws unless `msg.sender` is the current owner, an authorized  operator, or the approved address for this NFT. Throws if `_from` is  not the current owner. Throws if `_to` is the zero address. Throws if  `_tokenId` is not a valid NFT.",
        "params": {
          "_from": "The current owner of the NFT",
          "_to": "The new owner",
          "_tokenId": "The NFT to transfer"
        }
      }
    },
    "version": 1
  },
  "userdoc": {
    "kind": "user",
    "methods": {
      "safeTransferFrom(address,address,uint256)": {
        "notice": "Transfers the ownership of an NFT from one address to another address"
      },
      "transferFrom(address,address,uint256)": {
        "notice": "Transfer ownership of an NFT -- THE CALLER IS RESPONSIBLE  TO CONFIRM THAT `_to` IS CAPABLE OF RECEIVING NFTS OR ELSE  THEY MAY BE PERMANENTLY LOST"
      }
    },
    "version": 1
  }
}