{
  "contractName": "KittyExchange",
  "abi": [
    {
      "anonymous": false,
      "inputs": [
        {
          "indexed": true,
          "internalType": "address",
          "name": "owner",
          "type": "address"
        },
        {
          "indexed": true,
          "internalType": "address",
          "name": "approved",
          "type": "address"
        },
        {
          "indexed": true,
          "internalType": "uint256",
          "name": "tokenId",
          "type": "uint256"
        }
      ],
      "name": "Approval",
      "type": "event"
    },
    {
      "anonymous": false,
      "inputs": [
        {
          "indexed": true,
          "internalType": "address",
          "name": "owner",
          "type": "address"
        },
        {
          "indexed": true,
          "internalType": "address",
          "name": "operator",
          "type": "address"
        },
        {
          "indexed": false,
          "internalType": "bool",
          "name": "approved",
          "type": "bool"
        }
      ],
      "name": "ApprovalForAll",
      "type": "event"
    },
    {
      "anonymous": false,
      "inputs": [
        {
          "indexed": false,
          "internalType": "address",
          "name": "owner",
          "type": "address"
        },
        {
          "indexed": false,
          "internalType": "uint256",
          "name": "kittenId",
          "type": "uint256"
        },
        {
          "indexed": false,
          "internalType": "uint256",
          "name": "mumId",
          "type": "uint256"
        },
        {
          "indexed": false,
          "internalType": "uint256",
          "name": "dadId",
          "type": "uint256"
        },
        {
          "indexed": false,
          "internalType": "uint256",
          "name": "genes",
          "type": "uint256"
        }
      ],
      "name": "Birth",
      "type": "event"
    },
    {
      "anonymous": false,
      "inputs": [
        {
          "indexed": false,
          "internalType": "string",
          "name": "TxType",
          "type": "string"
        },
        {
          "indexed": false,
          "internalType": "address",
          "name": "owner",
          "type": "address"
        },
        {
          "indexed": false,
          "internalType": "uint256",
          "name": "tokenId",
          "type": "uint256"
        }
      ],
      "name": "MarketTransaction",
      "type": "event"
    },
    {
      "anonymous": false,
      "inputs": [
        {
          "indexed": true,
          "internalType": "address",
          "name": "from",
          "type": "address"
        },
        {
          "indexed": true,
          "internalType": "address",
          "name": "to",
          "type": "address"
        },
        {
          "indexed": true,
          "internalType": "uint256",
          "name": "tokenId",
          "type": "uint256"
        }
      ],
      "name": "Transfer",
      "type": "event"
    },
    {
      "inputs": [],
      "name": "CREATION_LIMIT_GEN0",
      "outputs": [
        {
          "internalType": "uint256",
          "name": "",
          "type": "uint256"
        }
      ],
      "stateMutability": "view",
      "type": "function",
      "constant": true
    },
    {
      "inputs": [
        {
          "internalType": "uint256",
          "name": "_mumDna",
          "type": "uint256"
        },
        {
          "internalType": "uint256",
          "name": "_dadDna",
          "type": "uint256"
        }
      ],
      "name": "_mixDna",
      "outputs": [
        {
          "internalType": "uint256",
          "name": "",
          "type": "uint256"
        }
      ],
      "stateMutability": "view",
      "type": "function",
      "constant": true
    },
    {
      "inputs": [
        {
          "internalType": "address",
          "name": "_to",
          "type": "address"
        },
        {
          "internalType": "uint256",
          "name": "_tokenId",
          "type": "uint256"
        }
      ],
      "name": "approve",
      "outputs": [],
      "stateMutability": "nonpayable",
      "type": "function"
    },
    {
      "inputs": [
        {
          "internalType": "address",
          "name": "owner",
          "type": "address"
        }
      ],
      "name": "balanceOf",
      "outputs": [
        {
          "internalType": "uint256",
          "name": "balance",
          "type": "uint256"
        }
      ],
      "stateMutability": "view",
      "type": "function",
      "constant": true
    },
    {
      "inputs": [
        {
          "internalType": "uint256",
          "name": "_dadId",
          "type": "uint256"
        },
        {
          "internalType": "uint256",
          "name": "_mumId",
          "type": "uint256"
        }
      ],
      "name": "breed",
      "outputs": [
        {
          "internalType": "uint256",
          "name": "",
          "type": "uint256"
        }
      ],
      "stateMutability": "nonpayable",
      "type": "function"
    },
    {
      "inputs": [
        {
          "internalType": "uint256",
          "name": "_genes",
          "type": "uint256"
        }
      ],
      "name": "createKittyGen0",
      "outputs": [
        {
          "internalType": "uint256",
          "name": "",
          "type": "uint256"
        }
      ],
      "stateMutability": "nonpayable",
      "type": "function"
    },
    {
      "inputs": [],
      "name": "gen0Counter",
      "outputs": [
        {
          "internalType": "uint256",
          "name": "",
          "type": "uint256"
        }
      ],
      "stateMutability": "view",
      "type": "function",
      "constant": true
    },
    {
      "inputs": [
        {
          "internalType": "uint256",
          "name": "tokenId",
          "type": "uint256"
        }
      ],
      "name": "getApproved",
      "outputs": [
        {
          "internalType": "address",
          "name": "",
          "type": "address"
        }
      ],
      "stateMutability": "view",
      "type": "function",
      "constant": true
    },
    {
      "inputs": [
        {
          "internalType": "uint256",
          "name": "_id",
          "type": "uint256"
        }
      ],
      "name": "getKitty",
      "outputs": [
        {
          "internalType": "uint256",
          "name": "genes",
          "type": "uint256"
        },
        {
          "internalType": "uint256",
          "name": "birthTime",
          "type": "uint256"
        },
        {
          "internalType": "uint256",
          "name": "mumId",
          "type": "uint256"
        },
        {
          "internalType": "uint256",
          "name": "dadId",
          "type": "uint256"
        },
        {
          "internalType": "uint256",
          "name": "generation",
          "type": "uint256"
        }
      ],
      "stateMutability": "view",
      "type": "function",
      "constant": true
    },
    {
      "inputs": [
        {
          "internalType": "address",
          "name": "_owner",
          "type": "address"
        }
      ],
      "name": "getKittyByOwner",
      "outputs": [
        {
          "internalType": "uint256[]",
          "name": "",
          "type": "uint256[]"
        }
      ],
      "stateMutability": "view",
      "type": "function",
      "constant": true
    },
    {
      "inputs": [
        {
          "internalType": "address",
          "name": "owner",
          "type": "address"
        },
        {
          "internalType": "address",
          "name": "operator",
          "type": "address"
        }
      ],
      "name": "isApprovedForAll",
      "outputs": [
        {
          "internalType": "bool",
          "name": "",
          "type": "bool"
        }
      ],
      "stateMutability": "view",
      "type": "function",
      "constant": true
    },
    {
      "inputs": [
        {
          "internalType": "uint256",
          "name": "",
          "type": "uint256"
        }
      ],
      "name": "kittyIndexToApproved",
      "outputs": [
        {
          "internalType": "address",
          "name": "",
          "type": "address"
        }
      ],
      "stateMutability": "view",
      "type": "function",
      "constant": true
    },
    {
      "inputs": [
        {
          "internalType": "uint256",
          "name": "",
          "type": "uint256"
        }
      ],
      "name": "kittyIndexToOwner",
      "outputs": [
        {
          "internalType": "address",
          "name": "",
          "type": "address"
        }
      ],
      "stateMutability": "view",
      "type": "function",
      "constant": true
    },
    {
      "inputs": [],
      "name": "name",
      "outputs": [
        {
          "internalType": "string",
          "name": "",
          "type": "string"
        }
      ],
      "stateMutability": "view",
      "type": "function",
      "constant": true
    },
    {
      "inputs": [],
      "name": "owner",
      "outputs": [
        {
          "internalType": "address",
          "name": "",
          "type": "address"
        }
      ],
      "stateMutability": "view",
      "type": "function",
      "constant": true
    },
    {
      "inputs": [
        {
          "internalType": "uint256",
          "name": "_tokenId",
          "type": "uint256"
        }
      ],
      "name": "ownerOf",
      "outputs": [
        {
          "internalType": "address",
          "name": "owner",
          "type": "address"
        }
      ],
      "stateMutability": "view",
      "type": "function",
      "constant": true
    },
    {
      "inputs": [
        {
          "internalType": "address",
          "name": "_from",
          "type": "address"
        },
        {
          "internalType": "address",
          "name": "_to",
          "type": "address"
        },
        {
          "internalType": "uint256",
          "name": "_tokenId",
          "type": "uint256"
        }
      ],
      "name": "safeTransferFrom",
      "outputs": [],
      "stateMutability": "nonpayable",
      "type": "function"
    },
    {
      "inputs": [
        {
          "internalType": "address",
          "name": "_from",
          "type": "address"
        },
        {
          "internalType": "address",
          "name": "_to",
          "type": "address"
        },
        {
          "internalType": "uint256",
          "name": "_tokenId",
          "type": "uint256"
        },
        {
          "internalType": "bytes",
          "name": "_data",
          "type": "bytes"
        }
      ],
      "name": "safeTransferFrom",
      "outputs": [],
      "stateMutability": "nonpayable",
      "type": "function"
    },
    {
      "inputs": [
        {
          "internalType": "address",
          "name": "operator",
          "type": "address"
        },
        {
          "internalType": "bool",
          "name": "approved",
          "type": "bool"
        }
      ],
      "name": "setApprovalForAll",
      "outputs": [],
      "stateMutability": "nonpayable",
      "type": "function"
    },
    {
      "inputs": [
        {
          "internalType": "bytes4",
          "name": "_interfaceId",
          "type": "bytes4"
        }
      ],
      "name": "supportsInterface",
      "outputs": [
        {
          "internalType": "bool",
          "name": "",
          "type": "bool"
        }
      ],
      "stateMutability": "pure",
      "type": "function",
      "constant": true
    },
    {
      "inputs": [],
      "name": "symbol",
      "outputs": [
        {
          "internalType": "string",
          "name": "",
          "type": "string"
        }
      ],
      "stateMutability": "view",
      "type": "function",
      "constant": true
    },
    {
      "inputs": [],
      "name": "totalSupply",
      "outputs": [
        {
          "internalType": "uint256",
          "name": "total",
          "type": "uint256"
        }
      ],
      "stateMutability": "view",
      "type": "function",
      "constant": true
    },
    {
      "inputs": [
        {
          "internalType": "address",
          "name": "_to",
          "type": "address"
        },
        {
          "internalType": "uint256",
          "name": "_tokenId",
          "type": "uint256"
        }
      ],
      "name": "transfer",
      "outputs": [],
      "stateMutability": "nonpayable",
      "type": "function"
    },
    {
      "inputs": [
        {
          "internalType": "address",
          "name": "_from",
          "type": "address"
        },
        {
          "internalType": "address",
          "name": "_to",
          "type": "address"
        },
        {
          "internalType": "uint256",
          "name": "_tokenId",
          "type": "uint256"
        }
      ],
      "name": "transferFrom",
      "outputs": [],
      "stateMutability": "nonpayable",
      "type": "function"
    },
    {
      "inputs": [
        {
          "internalType": "uint256",
          "name": "_tokenId",
          "type": "uint256"
        }
      ],
      "name": "getOffer",
      "outputs": [
        {
          "internalType": "address",
          "name": "seller",
          "type": "address"
        },
        {
          "internalType": "uint256",
          "name": "price",
          "type": "uint256"
        },
        {
          "internalType": "uint256",
          "name": "index",
          "type": "uint256"
        },
        {
          "internalType": "uint256",
          "name": "tokenId",
          "type": "uint256"
        },
        {
          "internalType": "bool",
          "name": "active",
          "type": "bool"
        }
      ],
      "stateMutability": "view",
      "type": "function",
      "constant": true
    },
    {
      "inputs": [],
      "name": "getAllTokenOnSale",
      "outputs": [
        {
          "internalType": "uint256[]",
          "name": "listOfOffers",
          "type": "uint256[]"
        }
      ],
      "stateMutability": "view",
      "type": "function",
      "constant": true
    },
    {
      "inputs": [
        {
          "internalType": "uint256",
          "name": "_price",
          "type": "uint256"
        },
        {
          "internalType": "uint256",
          "name": "_tokenId",
          "type": "uint256"
        }
      ],
      "name": "setOffer",
      "outputs": [],
      "stateMutability": "nonpayable",
      "type": "function"
    },
    {
      "inputs": [
        {
          "internalType": "uint256",
          "name": "_tokenId",
          "type": "uint256"
        }
      ],
      "name": "removeOffer",
      "outputs": [],
      "stateMutability": "nonpayable",
      "type": "function"
    },
    {
      "inputs": [
        {
          "internalType": "uint256",
          "name": "_tokenId",
          "type": "uint256"
        }
      ],
      "name": "buyKitty",
      "outputs": [],
      "stateMutability": "payable",
      "type": "function",
      "payable": true
    }
  ],
  "bytecode": "0x6080604052336000806101000a81548173ffffffffffffffffffffffffffffffffffffffff021916908373ffffffffffffffffffffffffffffffffffffffff1602179055503480156200005157600080fd5b50620000736000806000683cd784f90c0bf5c63b60006200007a60201b60201c565b5062000582565b6000806040518060a001604052808581526020014267ffffffffffffffff1681526020018863ffffffff1681526020018763ffffffff1681526020018661ffff16815250905060018190806001815401808255809150506001900390600052602060002090600202016000909190919091506000820151816000015560208201518160010160006101000a81548167ffffffffffffffff021916908367ffffffffffffffff16021790555060408201518160010160086101000a81548163ffffffff021916908363ffffffff160217905550606082015181600101600c6101000a81548163ffffffff021916908363ffffffff16021790555060808201518160010160106101000a81548161ffff021916908361ffff1602179055505050600060018080549050620001ad919062000417565b90507f0a5311bd2a6608f08a180df2ee7c5946819a649b204b554bb8e39825b2c50ad584828a8a89604051620001e8959493929190620004a8565b60405180910390a162000204600085836200021260201b60201c565b809250505095945050505050565b600360008373ffffffffffffffffffffffffffffffffffffffff1673ffffffffffffffffffffffffffffffffffffffff1681526020019081526020016000206000815480929190620002649062000505565b9190505550816002600083815260200190815260200160002060006101000a81548173ffffffffffffffffffffffffffffffffffffffff021916908373ffffffffffffffffffffffffffffffffffffffff160217905550600073ffffffffffffffffffffffffffffffffffffffff168373ffffffffffffffffffffffffffffffffffffffff16146200037e57600360008473ffffffffffffffffffffffffffffffffffffffff1673ffffffffffffffffffffffffffffffffffffffff1681526020019081526020016000206000815480929190620003429062000553565b91905055506004600082815260200190815260200160002060006101000a81549073ffffffffffffffffffffffffffffffffffffffff02191690555b808273ffffffffffffffffffffffffffffffffffffffff168473ffffffffffffffffffffffffffffffffffffffff167fddf252ad1be2c89b69c2b068fc378daa952ba7f163c4a11628f55a4df523b3ef60405160405180910390a4505050565b6000819050919050565b7f4e487b7100000000000000000000000000000000000000000000000000000000600052601160045260246000fd5b60006200042482620003de565b91506200043183620003de565b925082821015620004475762000446620003e8565b5b828203905092915050565b600073ffffffffffffffffffffffffffffffffffffffff82169050919050565b60006200047f8262000452565b9050919050565b620004918162000472565b82525050565b620004a281620003de565b82525050565b600060a082019050620004bf600083018862000486565b620004ce602083018762000497565b620004dd604083018662000497565b620004ec606083018562000497565b620004fb608083018462000497565b9695505050505050565b60006200051282620003de565b91507fffffffffffffffffffffffffffffffffffffffffffffffffffffffffffffffff821415620005485762000547620003e8565b5b600182019050919050565b60006200056082620003de565b91506000821415620005775762000576620003e8565b5b600182039050919050565b6132a880620005926000396000f3fe6080604052600436106101c25760003560e01c8063959bb970116100f7578063ae5310f611610095578063d9ecad7b11610064578063d9ecad7b14610693578063e985e9c5146106d0578063e98b7f4d1461070d578063ef5e94aa1461074e576101c2565b8063ae5310f6146105e6578063b483433014610602578063b88d4fde1461062d578063d5a776ca14610656576101c2565b806395e6c62f116100d157806395e6c62f1461051a578063a22cb46514610557578063a45f4bfc14610580578063a9059cbb146105bd576101c2565b8063959bb9701461048957806395a0f9c7146104c657806395d89b41146104ef576101c2565b80634579268a116101645780636352211e1161013e5780636352211e146103bb57806370a08231146103f85780638da5cb5b14610435578063941b055b14610460576101c2565b80634579268a14610312578063481af3d31461035357806349b3709f14610390576101c2565b8063095ea7b3116101a0578063095ea7b31461026c57806318160ddd1461029557806323b872dd146102c057806342842e0e146102e9576101c2565b806301ffc9a7146101c757806306fdde0314610204578063081812fc1461022f575b600080fd5b3480156101d357600080fd5b506101ee60048036038101906101e99190612347565b610779565b6040516101fb919061238f565b60405180910390f35b34801561021057600080fd5b50610219610819565b6040516102269190612443565b60405180910390f35b34801561023b57600080fd5b506102566004803603810190610251919061249b565b610852565b6040516102639190612509565b60405180910390f35b34801561027857600080fd5b50610293600480360381019061028e9190612550565b6108a0565b005b3480156102a157600080fd5b506102aa61091c565b6040516102b7919061259f565b60405180910390f35b3480156102cc57600080fd5b506102e760048036038101906102e291906125ba565b610929565b005b3480156102f557600080fd5b50610310600480360381019061030b91906125ba565b610a06565b005b34801561031e57600080fd5b506103396004803603810190610334919061249b565b610a26565b60405161034a95949392919061260d565b60405180910390f35b34801561035f57600080fd5b5061037a6004803603810190610375919061249b565b610a9e565b6040516103879190612509565b60405180910390f35b34801561039c57600080fd5b506103a5610ad1565b6040516103b2919061271e565b60405180910390f35b3480156103c757600080fd5b506103e260048036038101906103dd919061249b565b610c32565b6040516103ef9190612509565b60405180910390f35b34801561040457600080fd5b5061041f600480360381019061041a9190612740565b610c6f565b60405161042c919061259f565b60405180910390f35b34801561044157600080fd5b5061044a610cb8565b6040516104579190612509565b60405180910390f35b34801561046c57600080fd5b506104876004803603810190610482919061276d565b610cdc565b005b34801561049557600080fd5b506104b060048036038101906104ab919061276d565b610f54565b6040516104bd919061259f565b60405180910390f35b3480156104d257600080fd5b506104ed60048036038101906104e8919061249b565b6110b0565b005b3480156104fb57600080fd5b506105046112bb565b6040516105119190612443565b60405180910390f35b34801561052657600080fd5b50610541600480360381019061053c9190612740565b6112f4565b60405161054e919061271e565b60405180910390f35b34801561056357600080fd5b5061057e600480360381019061057991906127d9565b611447565b005b34801561058c57600080fd5b506105a760048036038101906105a2919061249b565b61157d565b6040516105b49190612509565b60405180910390f35b3480156105c957600080fd5b506105e460048036038101906105df9190612550565b6115b0565b005b61060060048036038101906105fb919061249b565b611645565b005b34801561060e57600080fd5b5061061761189a565b604051610624919061259f565b60405180910390f35b34801561063957600080fd5b50610654600480360381019061064f919061294e565b61189f565b005b34801561066257600080fd5b5061067d6004803603810190610678919061249b565b6118c6565b60405161068a919061259f565b60405180910390f35b34801561069f57600080fd5b506106ba60048036038101906106b5919061276d565b611994565b6040516106c7919061259f565b60405180910390f35b3480156106dc57600080fd5b506106f760048036038101906106f291906129d1565b611ae2565b604051610704919061238f565b60405180910390f35b34801561071957600080fd5b50610734600480360381019061072f919061249b565b611b76565b604051610745959493929190612a11565b60405180910390f35b34801561075a57600080fd5b50610763611c2c565b604051610770919061259f565b60405180910390f35b60006380ac58cd60e01b7bffffffffffffffffffffffffffffffffffffffffffffffffffffffff1916827bffffffffffffffffffffffffffffffffffffffffffffffffffffffff1916148061081257506301ffc9a760e01b7bffffffffffffffffffffffffffffffffffffffffffffffffffffffff1916827bffffffffffffffffffffffffffffffffffffffffffffffffffffffff1916145b9050919050565b6040518060400160405280600881526020017f5261644b6974747900000000000000000000000000000000000000000000000081525081565b6000600180549050821061086557600080fd5b6004600083815260200190815260200160002060009054906101000a900473ffffffffffffffffffffffffffffffffffffffff169050919050565b6108aa3382611c32565b6108b357600080fd5b6108bd8183611c9e565b808273ffffffffffffffffffffffffffffffffffffffff163373ffffffffffffffffffffffffffffffffffffffff167f8c5be1e5ebec7d5bd14f71427d1e84f3dd0314c0f7b2291e5b200ac8c7c3b92560405160405180910390a45050565b6000600180549050905090565b600073ffffffffffffffffffffffffffffffffffffffff168273ffffffffffffffffffffffffffffffffffffffff16141561096357600080fd5b8273ffffffffffffffffffffffffffffffffffffffff163373ffffffffffffffffffffffffffffffffffffffff1614806109a357506109a23382611cf4565b5b806109b457506109b38333611ae2565b5b6109bd57600080fd5b6109c78382611c32565b6109d057600080fd5b60018054905081106109e157600080fd5b6109ed33848484611d60565b6109f657600080fd5b610a01838383611e1b565b505050565b610a218383836040518060200160405280600081525061189f565b505050565b6000806000806000806008600088815260200190815260200160002090508060000160009054906101000a900473ffffffffffffffffffffffffffffffffffffffff168160010154826002015483600301548460040160009054906101000a900460ff16955095509550955095505091939590929450565b60046020528060005260406000206000915054906101000a900473ffffffffffffffffffffffffffffffffffffffff1681565b6060600060078054905090506000811415610b3857600067ffffffffffffffff811115610b0157610b00612823565b5b604051908082528060200260200182016040528015610b2f5781602001602082028036833780820191505090505b50915050610c2f565b60008167ffffffffffffffff811115610b5457610b53612823565b5b604051908082528060200260200182016040528015610b825781602001602082028036833780820191505090505b50905060005b82811015610c28576001151560078281548110610ba857610ba7612a64565b5b906000526020600020906005020160040160009054906101000a900460ff1615151415610c155760078181548110610be357610be2612a64565b5b906000526020600020906005020160030154828281518110610c0857610c07612a64565b5b6020026020010181815250505b8080610c2090612ac2565b915050610b88565b8193505050505b90565b60006002600083815260200190815260200160002060009054906101000a900473ffffffffffffffffffffffffffffffffffffffff169050919050565b6000600360008373ffffffffffffffffffffffffffffffffffffffff1673ffffffffffffffffffffffffffffffffffffffff168152602001908152602001600020549050919050565b60008054906101000a900473ffffffffffffffffffffffffffffffffffffffff1681565b661ff973cafa80008211610d25576040517f08c379a0000000000000000000000000000000000000000000000000000000008152600401610d1c90612b7d565b60405180910390fd5b6000600860008381526020019081526020016000206001015414610d7e576040517f08c379a0000000000000000000000000000000000000000000000000000000008152600401610d7590612c0f565b60405180910390fd5b60006040518060a001604052803373ffffffffffffffffffffffffffffffffffffffff1681526020018481526020016007805490508152602001838152602001600115158152509050806008600084815260200190815260200160002060008201518160000160006101000a81548173ffffffffffffffffffffffffffffffffffffffff021916908373ffffffffffffffffffffffffffffffffffffffff16021790555060208201518160010155604082015181600201556060820151816003015560808201518160040160006101000a81548160ff021916908315150217905550905050600781908060018154018082558091505060019003906000526020600020906005020160009091909190915060008201518160000160006101000a81548173ffffffffffffffffffffffffffffffffffffffff021916908373ffffffffffffffffffffffffffffffffffffffff16021790555060208201518160010155604082015181600201556060820151816003015560808201518160040160006101000a81548160ff02191690831515021790555050507fd99e4fad9ad6313b1feb588fa8e605e3a9873172f2024330c35dd2b4041a43863383604051610f47929190612c7b565b60405180910390a1505050565b6000610f5e6122b8565b600061ffff42610f6e9190612ce6565b90506000600190506000600a9050600191505b6104008211611043576000828461ffff161614610fca57606487610fa59190612ce6565b61ffff168482600b8110610fbc57610fbb612a64565b5b602002018181525050610ff8565b606486610fd79190612ce6565b61ffff168482600b8110610fee57610fed612a64565b5b6020020181815250505b6064876110059190612d17565b96506064866110149190612d17565b9550610400821461102f5760018161102c9190612d48565b90505b60028261103c9190612d7c565b9150610f81565b60008092505b600b8310156110a2578483600b811061106557611064612a64565b5b6020020151816110759190612dd6565b9050600a831461108f5760648161108c9190612d7c565b90505b828061109a90612ac2565b935050611049565b809550505050505092915050565b6000600860008381526020019081526020016000206040518060a00160405290816000820160009054906101000a900473ffffffffffffffffffffffffffffffffffffffff1673ffffffffffffffffffffffffffffffffffffffff1673ffffffffffffffffffffffffffffffffffffffff1681526020016001820154815260200160028201548152602001600382015481526020016004820160009054906101000a900460ff16151515158152505090503373ffffffffffffffffffffffffffffffffffffffff16816000015173ffffffffffffffffffffffffffffffffffffffff16146111d3576040517f08c379a00000000000000000000000000000000000000000000000000000000081526004016111ca90612e9e565b60405180910390fd5b60086000838152602001908152602001600020600080820160006101000a81549073ffffffffffffffffffffffffffffffffffffffff02191690556001820160009055600282016000905560038201600090556004820160006101000a81549060ff021916905550506000600782604001518154811061125657611255612a64565b5b906000526020600020906005020160040160006101000a81548160ff0219169083151502179055507fd99e4fad9ad6313b1feb588fa8e605e3a9873172f2024330c35dd2b4041a438633836040516112af929190612f0a565b60405180910390a15050565b6040518060400160405280600281526020017f524b00000000000000000000000000000000000000000000000000000000000081525081565b60606000600360008473ffffffffffffffffffffffffffffffffffffffff1673ffffffffffffffffffffffffffffffffffffffff1681526020019081526020016000205467ffffffffffffffff81111561135157611350612823565b5b60405190808252806020026020018201604052801561137f5781602001602082028036833780820191505090505b5090506000805b60018054905081101561143c578473ffffffffffffffffffffffffffffffffffffffff166002600083815260200190815260200160002060009054906101000a900473ffffffffffffffffffffffffffffffffffffffff1673ffffffffffffffffffffffffffffffffffffffff161415611429578083838151811061140e5761140d612a64565b5b602002602001018181525050818061142590612ac2565b9250505b808061143490612ac2565b915050611386565b508192505050919050565b3373ffffffffffffffffffffffffffffffffffffffff168273ffffffffffffffffffffffffffffffffffffffff16141561148057600080fd5b80600560003373ffffffffffffffffffffffffffffffffffffffff1673ffffffffffffffffffffffffffffffffffffffff16815260200190815260200160002060008473ffffffffffffffffffffffffffffffffffffffff1673ffffffffffffffffffffffffffffffffffffffff16815260200190815260200160002060006101000a81548160ff0219169083151502179055508173ffffffffffffffffffffffffffffffffffffffff163373ffffffffffffffffffffffffffffffffffffffff167f17307eab39ab6107e8899845ad3d59bd9653f200f220920489ca2b5937696c3183604051611571919061238f565b60405180910390a35050565b60026020528060005260406000206000915054906101000a900473ffffffffffffffffffffffffffffffffffffffff1681565b600073ffffffffffffffffffffffffffffffffffffffff168273ffffffffffffffffffffffffffffffffffffffff1614156115ea57600080fd5b3073ffffffffffffffffffffffffffffffffffffffff168273ffffffffffffffffffffffffffffffffffffffff16141561162357600080fd5b61162d3382611c32565b61163657600080fd5b611641338383611e1b565b5050565b6000600860008381526020019081526020016000206040518060a00160405290816000820160009054906101000a900473ffffffffffffffffffffffffffffffffffffffff1673ffffffffffffffffffffffffffffffffffffffff1673ffffffffffffffffffffffffffffffffffffffff1681526020016001820154815260200160028201548152602001600382015481526020016004820160009054906101000a900460ff16151515158152505090508060200151341461173c576040517f08c379a000000000000000000000000000000000000000000000000000000000815260040161173390612f92565b60405180910390fd5b60086000838152602001908152602001600020600080820160006101000a81549073ffffffffffffffffffffffffffffffffffffffff02191690556001820160009055600282016000905560038201600090556004820160006101000a81549060ff02191690555050600060078260400151815481106117bf576117be612a64565b5b906000526020600020906005020160040160006101000a81548160ff0219169083151502179055506117f18233611c9e565b60008160200151111561184e57806000015173ffffffffffffffffffffffffffffffffffffffff166108fc82602001519081150290604051600060405180830381858888f1935050505015801561184c573d6000803e3d6000fd5b505b61185d81600001513384610929565b7fd99e4fad9ad6313b1feb588fa8e605e3a9873172f2024330c35dd2b4041a4386338360405161188e929190612ffe565b60405180910390a15050565b600a81565b6118ab33858585611d60565b6118b457600080fd5b6118c084848484611fe2565b50505050565b60008060009054906101000a900473ffffffffffffffffffffffffffffffffffffffff1673ffffffffffffffffffffffffffffffffffffffff163373ffffffffffffffffffffffffffffffffffffffff1614611957576040517f08c379a000000000000000000000000000000000000000000000000000000000815260040161194e90613086565b60405180910390fd5b600a6006541061196657600080fd5b6006600081548092919061197990612ac2565b919050555061198d60008060008533612008565b9050919050565b60006119a03384611c32565b6119df576040517f08c379a00000000000000000000000000000000000000000000000000000000081526004016119d6906130f2565b60405180910390fd5b6119e93383611c32565b611a28576040517f08c379a0000000000000000000000000000000000000000000000000000000008152600401611a1f906130f2565b60405180910390fd5b600080611a3485611b76565b94505050509150600080611a4786611b76565b945050505091506000611a5a8584610f54565b9050600082851015611a8957600183611a739190612dd6565b9050600281611a829190612d17565b9050611ac5565b82851115611ab457600185611a9e9190612dd6565b9050600281611aad9190612d17565b9050611ac4565b600183611ac19190612dd6565b90505b5b611ad2888a838533612008565b5081965050505050505092915050565b6000600560008473ffffffffffffffffffffffffffffffffffffffff1673ffffffffffffffffffffffffffffffffffffffff16815260200190815260200160002060008373ffffffffffffffffffffffffffffffffffffffff1673ffffffffffffffffffffffffffffffffffffffff16815260200190815260200160002060009054906101000a900460ff16905092915050565b60008060008060008060018781548110611b9357611b92612a64565b5b906000526020600020906002020190508060010160009054906101000a900467ffffffffffffffff1667ffffffffffffffff1694508060010160089054906101000a900463ffffffff1663ffffffff16935080600101600c9054906101000a900463ffffffff1663ffffffff1692508060010160109054906101000a900461ffff1661ffff169150806000015495505091939590929450565b60065481565b60008273ffffffffffffffffffffffffffffffffffffffff166002600084815260200190815260200160002060009054906101000a900473ffffffffffffffffffffffffffffffffffffffff1673ffffffffffffffffffffffffffffffffffffffff1614905092915050565b806004600084815260200190815260200160002060006101000a81548173ffffffffffffffffffffffffffffffffffffffff021916908373ffffffffffffffffffffffffffffffffffffffff1602179055505050565b60008273ffffffffffffffffffffffffffffffffffffffff166004600084815260200190815260200160002060009054906101000a900473ffffffffffffffffffffffffffffffffffffffff1673ffffffffffffffffffffffffffffffffffffffff1614905092915050565b60006001805490508210611d7357600080fd5b600073ffffffffffffffffffffffffffffffffffffffff168373ffffffffffffffffffffffffffffffffffffffff161415611dad57600080fd5b611db78483611c32565b611dc057600080fd5b8373ffffffffffffffffffffffffffffffffffffffff168573ffffffffffffffffffffffffffffffffffffffff161480611e005750611dff8583611cf4565b5b80611e115750611e108486611ae2565b5b9050949350505050565b600360008373ffffffffffffffffffffffffffffffffffffffff1673ffffffffffffffffffffffffffffffffffffffff1681526020019081526020016000206000815480929190611e6b90612ac2565b9190505550816002600083815260200190815260200160002060006101000a81548173ffffffffffffffffffffffffffffffffffffffff021916908373ffffffffffffffffffffffffffffffffffffffff160217905550600073ffffffffffffffffffffffffffffffffffffffff168373ffffffffffffffffffffffffffffffffffffffff1614611f8257600360008473ffffffffffffffffffffffffffffffffffffffff1673ffffffffffffffffffffffffffffffffffffffff1681526020019081526020016000206000815480929190611f4690613112565b91905055506004600082815260200190815260200160002060006101000a81549073ffffffffffffffffffffffffffffffffffffffff02191690555b808273ffffffffffffffffffffffffffffffffffffffff168473ffffffffffffffffffffffffffffffffffffffff167fddf252ad1be2c89b69c2b068fc378daa952ba7f163c4a11628f55a4df523b3ef60405160405180910390a4505050565b611fed848484611e1b565b611ff984848484612194565b61200257600080fd5b50505050565b6000806040518060a001604052808581526020014267ffffffffffffffff1681526020018863ffffffff1681526020018763ffffffff1681526020018661ffff16815250905060018190806001815401808255809150506001900390600052602060002090600202016000909190919091506000820151816000015560208201518160010160006101000a81548167ffffffffffffffff021916908367ffffffffffffffff16021790555060408201518160010160086101000a81548163ffffffff021916908363ffffffff160217905550606082015181600101600c6101000a81548163ffffffff021916908363ffffffff16021790555060808201518160010160106101000a81548161ffff021916908361ffff16021790555050506000600180805490506121399190612d48565b90507f0a5311bd2a6608f08a180df2ee7c5946819a649b204b554bb8e39825b2c50ad584828a8a8960405161217295949392919061313c565b60405180910390a161218660008583611e1b565b809250505095945050505050565b600061219f8461229f565b6121ac5760019050612297565b60008473ffffffffffffffffffffffffffffffffffffffff1663150b7a02338887876040518563ffffffff1660e01b81526004016121ed94939291906131e4565b6020604051808303816000875af115801561220c573d6000803e3d6000fd5b505050506040513d601f19601f820116820180604052508101906122309190613245565b90507f150b7a023d4804d13e8c85fb27262cb750cf6ba9f9dd3bb30d90f482ceeb4b1f7bffffffffffffffffffffffffffffffffffffffffffffffffffffffff1916817bffffffffffffffffffffffffffffffffffffffffffffffffffffffff1916149150505b949350505050565b600080823b905060008163ffffffff1611915050919050565b604051806101600160405280600b90602082028036833780820191505090505090565b6000604051905090565b600080fd5b600080fd5b60007fffffffff0000000000000000000000000000000000000000000000000000000082169050919050565b612324816122ef565b811461232f57600080fd5b50565b6000813590506123418161231b565b92915050565b60006020828403121561235d5761235c6122e5565b5b600061236b84828501612332565b91505092915050565b60008115159050919050565b61238981612374565b82525050565b60006020820190506123a46000830184612380565b92915050565b600081519050919050565b600082825260208201905092915050565b60005b838110156123e45780820151818401526020810190506123c9565b838111156123f3576000848401525b50505050565b6000601f19601f8301169050919050565b6000612415826123aa565b61241f81856123b5565b935061242f8185602086016123c6565b612438816123f9565b840191505092915050565b6000602082019050818103600083015261245d818461240a565b905092915050565b6000819050919050565b61247881612465565b811461248357600080fd5b50565b6000813590506124958161246f565b92915050565b6000602082840312156124b1576124b06122e5565b5b60006124bf84828501612486565b91505092915050565b600073ffffffffffffffffffffffffffffffffffffffff82169050919050565b60006124f3826124c8565b9050919050565b612503816124e8565b82525050565b600060208201905061251e60008301846124fa565b92915050565b61252d816124e8565b811461253857600080fd5b50565b60008135905061254a81612524565b92915050565b60008060408385031215612567576125666122e5565b5b60006125758582860161253b565b925050602061258685828601612486565b9150509250929050565b61259981612465565b82525050565b60006020820190506125b46000830184612590565b92915050565b6000806000606084860312156125d3576125d26122e5565b5b60006125e18682870161253b565b93505060206125f28682870161253b565b925050604061260386828701612486565b9150509250925092565b600060a08201905061262260008301886124fa565b61262f6020830187612590565b61263c6040830186612590565b6126496060830185612590565b6126566080830184612380565b9695505050505050565b600081519050919050565b600082825260208201905092915050565b6000819050602082019050919050565b61269581612465565b82525050565b60006126a7838361268c565b60208301905092915050565b6000602082019050919050565b60006126cb82612660565b6126d5818561266b565b93506126e08361267c565b8060005b838110156127115781516126f8888261269b565b9750612703836126b3565b9250506001810190506126e4565b5085935050505092915050565b6000602082019050818103600083015261273881846126c0565b905092915050565b600060208284031215612756576127556122e5565b5b60006127648482850161253b565b91505092915050565b60008060408385031215612784576127836122e5565b5b600061279285828601612486565b92505060206127a385828601612486565b9150509250929050565b6127b681612374565b81146127c157600080fd5b50565b6000813590506127d3816127ad565b92915050565b600080604083850312156127f0576127ef6122e5565b5b60006127fe8582860161253b565b925050602061280f858286016127c4565b9150509250929050565b600080fd5b600080fd5b7f4e487b7100000000000000000000000000000000000000000000000000000000600052604160045260246000fd5b61285b826123f9565b810181811067ffffffffffffffff8211171561287a57612879612823565b5b80604052505050565b600061288d6122db565b90506128998282612852565b919050565b600067ffffffffffffffff8211156128b9576128b8612823565b5b6128c2826123f9565b9050602081019050919050565b82818337600083830152505050565b60006128f16128ec8461289e565b612883565b90508281526020810184848401111561290d5761290c61281e565b5b6129188482856128cf565b509392505050565b600082601f83011261293557612934612819565b5b81356129458482602086016128de565b91505092915050565b60008060008060808587031215612968576129676122e5565b5b60006129768782880161253b565b94505060206129878782880161253b565b935050604061299887828801612486565b925050606085013567ffffffffffffffff8111156129b9576129b86122ea565b5b6129c587828801612920565b91505092959194509250565b600080604083850312156129e8576129e76122e5565b5b60006129f68582860161253b565b9250506020612a078582860161253b565b9150509250929050565b600060a082019050612a266000830188612590565b612a336020830187612590565b612a406040830186612590565b612a4d6060830185612590565b612a5a6080830184612590565b9695505050505050565b7f4e487b7100000000000000000000000000000000000000000000000000000000600052603260045260246000fd5b7f4e487b7100000000000000000000000000000000000000000000000000000000600052601160045260246000fd5b6000612acd82612465565b91507fffffffffffffffffffffffffffffffffffffffffffffffffffffffffffffffff821415612b0057612aff612a93565b5b600182019050919050565b7f4361742070726963652073686f756c642062652067726561746572207468616e60008201527f20302e3031000000000000000000000000000000000000000000000000000000602082015250565b6000612b676025836123b5565b9150612b7282612b0b565b604082019050919050565b60006020820190508181036000830152612b9681612b5a565b9050919050565b7f596f752063616e27742073656c6c207477696365207468652073616d65206f6660008201527f6665727320000000000000000000000000000000000000000000000000000000602082015250565b6000612bf96025836123b5565b9150612c0482612b9d565b604082019050919050565b60006020820190508181036000830152612c2881612bec565b9050919050565b7f437265617465206f666665720000000000000000000000000000000000000000600082015250565b6000612c65600c836123b5565b9150612c7082612c2f565b602082019050919050565b60006060820190508181036000830152612c9481612c58565b9050612ca360208301856124fa565b612cb06040830184612590565b9392505050565b7f4e487b7100000000000000000000000000000000000000000000000000000000600052601260045260246000fd5b6000612cf182612465565b9150612cfc83612465565b925082612d0c57612d0b612cb7565b5b828206905092915050565b6000612d2282612465565b9150612d2d83612465565b925082612d3d57612d3c612cb7565b5b828204905092915050565b6000612d5382612465565b9150612d5e83612465565b925082821015612d7157612d70612a93565b5b828203905092915050565b6000612d8782612465565b9150612d9283612465565b9250817fffffffffffffffffffffffffffffffffffffffffffffffffffffffffffffffff0483118215151615612dcb57612dca612a93565b5b828202905092915050565b6000612de182612465565b9150612dec83612465565b9250827fffffffffffffffffffffffffffffffffffffffffffffffffffffffffffffffff03821115612e2157612e20612a93565b5b828201905092915050565b7f596f7520617265206e6f74207468652073656c6c6572206f662074686174204b60008201527f6974747900000000000000000000000000000000000000000000000000000000602082015250565b6000612e886024836123b5565b9150612e9382612e2c565b604082019050919050565b60006020820190508181036000830152612eb781612e7b565b9050919050565b7f52656d6f7665204f666665720000000000000000000000000000000000000000600082015250565b6000612ef4600c836123b5565b9150612eff82612ebe565b602082019050919050565b60006060820190508181036000830152612f2381612ee7565b9050612f3260208301856124fa565b612f3f6040830184612590565b9392505050565b7f54686520707269636520697320696e636f727265637400000000000000000000600082015250565b6000612f7c6016836123b5565b9150612f8782612f46565b602082019050919050565b60006020820190508181036000830152612fab81612f6f565b9050919050565b7f4275790000000000000000000000000000000000000000000000000000000000600082015250565b6000612fe86003836123b5565b9150612ff382612fb2565b602082019050919050565b6000606082019050818103600083015261301781612fdb565b905061302660208301856124fa565b6130336040830184612590565b9392505050565b7f596f7520617265206e6f7420746865206f776e65720000000000000000000000600082015250565b60006130706015836123b5565b915061307b8261303a565b602082019050919050565b6000602082019050818103600083015261309f81613063565b9050919050565b7f546865207573657220646f65736e2774206f776e2074686520746f6b656e0000600082015250565b60006130dc601e836123b5565b91506130e7826130a6565b602082019050919050565b6000602082019050818103600083015261310b816130cf565b9050919050565b600061311d82612465565b9150600082141561313157613130612a93565b5b600182039050919050565b600060a08201905061315160008301886124fa565b61315e6020830187612590565b61316b6040830186612590565b6131786060830185612590565b6131856080830184612590565b9695505050505050565b600081519050919050565b600082825260208201905092915050565b60006131b68261318f565b6131c0818561319a565b93506131d08185602086016123c6565b6131d9816123f9565b840191505092915050565b60006080820190506131f960008301876124fa565b61320660208301866124fa565b6132136040830185612590565b818103606083015261322581846131ab565b905095945050505050565b60008151905061323f8161231b565b92915050565b60006020828403121561325b5761325a6122e5565b5b600061326984828501613230565b9150509291505056fea264697066735822122032250a9d04689424241023ff28ff135fbb4ab06c784a35fffde6e867834ec4d164736f6c634300080c0033",
  "immutableReferences": {},
  "source": "// SPDX-License-Identifier: MIT\r\npragma solidity  >=0.4.22 <0.9.0;\r\n\r\nimport \"./KittyContract.sol\";\r\n\r\ncontract KittyExchange is KittyContract {\r\n       struct Offer {\r\n        address payable seller;\r\n        uint256 price;\r\n        uint256 index;\r\n        uint256 tokenId;\r\n        bool active;\r\n    }\r\n\r\n    Offer[] offers;\r\n\r\n    event MarketTransaction(string TxType, address owner, uint256 tokenId);\r\n    \r\n    mapping(uint256 => Offer) tokenIdToOffer;\r\n\r\n\r\n    function getOffer(uint _tokenId) public view returns (address seller, uint256 price, uint256 index, uint256 tokenId, bool active){\r\n        Offer storage offer = tokenIdToOffer[_tokenId];\r\n        return (\r\n            offer.seller,\r\n            offer.price,\r\n            offer.index,\r\n            offer.tokenId,\r\n            offer.active\r\n        );\r\n    }\r\n\r\n    function getAllTokenOnSale() external view returns(uint256[] memory listOfOffers) {\r\n        uint256 totalOffers = offers.length;\r\n\r\n        if(totalOffers == 0) {\r\n            return new uint256[](0);\r\n        } else {\r\n\r\n            uint256[] memory result = new uint256[](totalOffers); //Size 1 (of Array)\r\n\r\n            uint256 offerId;\r\n\r\n            for (offerId = 0; offerId < totalOffers; offerId++) {\r\n                if(offers[offerId].active == true) {\r\n                    result[offerId] = offers[offerId].tokenId;\r\n                }\r\n            }\r\n            return result;\r\n        }\r\n    }\r\n\r\n\r\n\r\n    //Create New Offer for the given tokenId and price\r\n    function setOffer(uint256 _price, uint256 _tokenId) public {\r\n    require(_price > 0.009 ether, \"Cat price should be greater than 0.01\");\r\n    require(tokenIdToOffer[_tokenId].price == 0, \"You can't sell twice the same offers \");\r\n\r\n        Offer memory _offer = Offer({\r\n            seller: payable(msg.sender),\r\n            price: _price,\r\n            active: true,\r\n            tokenId: _tokenId,\r\n            index: offers.length\r\n        });\r\n\r\n        tokenIdToOffer[_tokenId] = _offer;\r\n        offers.push(_offer);\r\n\r\n        emit MarketTransaction(\"Create offer\", msg.sender, _tokenId);\r\n    }\r\n\r\n    //Remove existing offer\r\n    function removeOffer(uint256 _tokenId) public {\r\n       \r\n        Offer memory offer = tokenIdToOffer[_tokenId];\r\n        require(offer.seller == msg.sender, \"You are not the seller of that Kitty\");\r\n\r\n        delete tokenIdToOffer[_tokenId];\r\n        offers[offer.index].active = false;\r\n        \r\n        emit MarketTransaction(\"Remove Offer\", msg.sender, _tokenId);\r\n    }\r\n\r\n    //Accept offer and buy Kitty\r\n    function buyKitty(uint256 _tokenId) public payable {\r\n        Offer memory offer = tokenIdToOffer[_tokenId];\r\n        require(msg.value == offer.price, \"The price is incorrect\");\r\n \r\n\r\n        //Important to delete Kitty from mapping BEFORE paying out to prevent re-entry attacks\r\n        delete tokenIdToOffer[_tokenId];\r\n        offers[offer.index].active = false;\r\n\r\n        _approve(_tokenId, msg.sender);\r\n        //Transfer funds to the seller\r\n        // TO DO: make this logic pull instead of push \r\n        if(offer.price > 0){\r\n            offer.seller.transfer(offer.price);\r\n        }\r\n\r\n        //Transfer ownership of the Kitty\r\n        transferFrom(offer.seller, msg.sender, _tokenId);\r\n\r\n        emit MarketTransaction(\"Buy\", msg.sender, _tokenId); \r\n    }\r\n}",
  "sourcePath": "C:\\Users\\daver\\Documents\\KITTY CLONE\\academy-kitties-template\\contracts\\KittyExchange.sol",
  "compiler": {
    "name": "solc",
    "version": "0.8.12+commit.f00d7308.Emscripten.clang"
  },
  "schemaVersion": "3.4.9",
  "updatedAt": "2022-11-24T19:10:56.131Z",
  "networkType": "ethereum",
  "devdoc": {
    "kind": "dev",
    "methods": {
      "balanceOf(address)": {
        "details": "Returns the number of tokens in ``owner``'s account."
      },
      "safeTransferFrom(address,address,uint256)": {
        "details": "This works identically to the other function with an extra data parameter,  except this function just sets data to \"\".",
        "params": {
          "_from": "The current owner of the NFT",
          "_to": "The new owner",
          "_tokenId": "The NFT to transfer"
        }
      },
      "transferFrom(address,address,uint256)": {
        "details": "Throws unless `msg.sender` is the current owner, an authorized  operator, or the approved address for this NFT. Throws if `_from` is  not the current owner. Throws if `_to` is the zero address. Throws if  `_tokenId` is not a valid NFT.",
        "params": {
          "_from": "The current owner of the NFT",
          "_to": "The new owner",
          "_tokenId": "The NFT to transfer"
        }
      }
    },
    "version": 1
  },
  "userdoc": {
    "kind": "user",
    "methods": {
      "safeTransferFrom(address,address,uint256)": {
        "notice": "Transfers the ownership of an NFT from one address to another address"
      },
      "transferFrom(address,address,uint256)": {
        "notice": "Transfer ownership of an NFT -- THE CALLER IS RESPONSIBLE  TO CONFIRM THAT `_to` IS CAPABLE OF RECEIVING NFTS OR ELSE  THEY MAY BE PERMANENTLY LOST"
      }
    },
    "version": 1
  }
}