{
  "contractName": "KittyContract",
  "abi": [
    {
      "inputs": [],
      "stateMutability": "nonpayable",
      "type": "constructor"
    },
    {
      "anonymous": false,
      "inputs": [
        {
          "indexed": true,
          "internalType": "address",
          "name": "owner",
          "type": "address"
        },
        {
          "indexed": true,
          "internalType": "address",
          "name": "approved",
          "type": "address"
        },
        {
          "indexed": true,
          "internalType": "uint256",
          "name": "tokenId",
          "type": "uint256"
        }
      ],
      "name": "Approval",
      "type": "event"
    },
    {
      "anonymous": false,
      "inputs": [
        {
          "indexed": true,
          "internalType": "address",
          "name": "owner",
          "type": "address"
        },
        {
          "indexed": true,
          "internalType": "address",
          "name": "operator",
          "type": "address"
        },
        {
          "indexed": false,
          "internalType": "bool",
          "name": "approved",
          "type": "bool"
        }
      ],
      "name": "ApprovalForAll",
      "type": "event"
    },
    {
      "anonymous": false,
      "inputs": [
        {
          "indexed": false,
          "internalType": "address",
          "name": "owner",
          "type": "address"
        },
        {
          "indexed": false,
          "internalType": "uint256",
          "name": "kittenId",
          "type": "uint256"
        },
        {
          "indexed": false,
          "internalType": "uint256",
          "name": "mumId",
          "type": "uint256"
        },
        {
          "indexed": false,
          "internalType": "uint256",
          "name": "dadId",
          "type": "uint256"
        },
        {
          "indexed": false,
          "internalType": "uint256",
          "name": "genes",
          "type": "uint256"
        }
      ],
      "name": "Birth",
      "type": "event"
    },
    {
      "anonymous": false,
      "inputs": [
        {
          "indexed": false,
          "internalType": "string",
          "name": "TxType",
          "type": "string"
        },
        {
          "indexed": false,
          "internalType": "address",
          "name": "owner",
          "type": "address"
        },
        {
          "indexed": false,
          "internalType": "uint256",
          "name": "tokenId",
          "type": "uint256"
        }
      ],
      "name": "MarketTransaction",
      "type": "event"
    },
    {
      "anonymous": false,
      "inputs": [
        {
          "indexed": true,
          "internalType": "address",
          "name": "from",
          "type": "address"
        },
        {
          "indexed": true,
          "internalType": "address",
          "name": "to",
          "type": "address"
        },
        {
          "indexed": true,
          "internalType": "uint256",
          "name": "tokenId",
          "type": "uint256"
        }
      ],
      "name": "Transfer",
      "type": "event"
    },
    {
      "inputs": [],
      "name": "CREATION_LIMIT_GEN0",
      "outputs": [
        {
          "internalType": "uint256",
          "name": "",
          "type": "uint256"
        }
      ],
      "stateMutability": "view",
      "type": "function",
      "constant": true
    },
    {
      "inputs": [],
      "name": "gen0Counter",
      "outputs": [
        {
          "internalType": "uint256",
          "name": "",
          "type": "uint256"
        }
      ],
      "stateMutability": "view",
      "type": "function",
      "constant": true
    },
    {
      "inputs": [
        {
          "internalType": "uint256",
          "name": "",
          "type": "uint256"
        }
      ],
      "name": "kittyIndexToApproved",
      "outputs": [
        {
          "internalType": "address",
          "name": "",
          "type": "address"
        }
      ],
      "stateMutability": "view",
      "type": "function",
      "constant": true
    },
    {
      "inputs": [
        {
          "internalType": "uint256",
          "name": "",
          "type": "uint256"
        }
      ],
      "name": "kittyIndexToOwner",
      "outputs": [
        {
          "internalType": "address",
          "name": "",
          "type": "address"
        }
      ],
      "stateMutability": "view",
      "type": "function",
      "constant": true
    },
    {
      "inputs": [],
      "name": "name",
      "outputs": [
        {
          "internalType": "string",
          "name": "",
          "type": "string"
        }
      ],
      "stateMutability": "view",
      "type": "function",
      "constant": true
    },
    {
      "inputs": [],
      "name": "owner",
      "outputs": [
        {
          "internalType": "address",
          "name": "",
          "type": "address"
        }
      ],
      "stateMutability": "view",
      "type": "function",
      "constant": true
    },
    {
      "inputs": [],
      "name": "symbol",
      "outputs": [
        {
          "internalType": "string",
          "name": "",
          "type": "string"
        }
      ],
      "stateMutability": "view",
      "type": "function",
      "constant": true
    },
    {
      "inputs": [
        {
          "internalType": "uint256",
          "name": "_dadId",
          "type": "uint256"
        },
        {
          "internalType": "uint256",
          "name": "_mumId",
          "type": "uint256"
        }
      ],
      "name": "breed",
      "outputs": [
        {
          "internalType": "uint256",
          "name": "",
          "type": "uint256"
        }
      ],
      "stateMutability": "nonpayable",
      "type": "function"
    },
    {
      "inputs": [
        {
          "internalType": "bytes4",
          "name": "_interfaceId",
          "type": "bytes4"
        }
      ],
      "name": "supportsInterface",
      "outputs": [
        {
          "internalType": "bool",
          "name": "",
          "type": "bool"
        }
      ],
      "stateMutability": "pure",
      "type": "function",
      "constant": true
    },
    {
      "inputs": [
        {
          "internalType": "address",
          "name": "_to",
          "type": "address"
        },
        {
          "internalType": "uint256",
          "name": "_tokenId",
          "type": "uint256"
        }
      ],
      "name": "approve",
      "outputs": [],
      "stateMutability": "nonpayable",
      "type": "function"
    },
    {
      "inputs": [
        {
          "internalType": "address",
          "name": "operator",
          "type": "address"
        },
        {
          "internalType": "bool",
          "name": "approved",
          "type": "bool"
        }
      ],
      "name": "setApprovalForAll",
      "outputs": [],
      "stateMutability": "nonpayable",
      "type": "function"
    },
    {
      "inputs": [
        {
          "internalType": "uint256",
          "name": "tokenId",
          "type": "uint256"
        }
      ],
      "name": "getApproved",
      "outputs": [
        {
          "internalType": "address",
          "name": "",
          "type": "address"
        }
      ],
      "stateMutability": "view",
      "type": "function",
      "constant": true
    },
    {
      "inputs": [
        {
          "internalType": "address",
          "name": "owner",
          "type": "address"
        },
        {
          "internalType": "address",
          "name": "operator",
          "type": "address"
        }
      ],
      "name": "isApprovedForAll",
      "outputs": [
        {
          "internalType": "bool",
          "name": "",
          "type": "bool"
        }
      ],
      "stateMutability": "view",
      "type": "function",
      "constant": true
    },
    {
      "inputs": [
        {
          "internalType": "address",
          "name": "_owner",
          "type": "address"
        }
      ],
      "name": "getKittyByOwner",
      "outputs": [
        {
          "internalType": "uint256[]",
          "name": "",
          "type": "uint256[]"
        }
      ],
      "stateMutability": "view",
      "type": "function",
      "constant": true
    },
    {
      "inputs": [
        {
          "internalType": "address",
          "name": "_from",
          "type": "address"
        },
        {
          "internalType": "address",
          "name": "_to",
          "type": "address"
        },
        {
          "internalType": "uint256",
          "name": "_tokenId",
          "type": "uint256"
        }
      ],
      "name": "safeTransferFrom",
      "outputs": [],
      "stateMutability": "nonpayable",
      "type": "function"
    },
    {
      "inputs": [
        {
          "internalType": "address",
          "name": "_from",
          "type": "address"
        },
        {
          "internalType": "address",
          "name": "_to",
          "type": "address"
        },
        {
          "internalType": "uint256",
          "name": "_tokenId",
          "type": "uint256"
        },
        {
          "internalType": "bytes",
          "name": "_data",
          "type": "bytes"
        }
      ],
      "name": "safeTransferFrom",
      "outputs": [],
      "stateMutability": "nonpayable",
      "type": "function"
    },
    {
      "inputs": [
        {
          "internalType": "address",
          "name": "_from",
          "type": "address"
        },
        {
          "internalType": "address",
          "name": "_to",
          "type": "address"
        },
        {
          "internalType": "uint256",
          "name": "_tokenId",
          "type": "uint256"
        }
      ],
      "name": "transferFrom",
      "outputs": [],
      "stateMutability": "nonpayable",
      "type": "function"
    },
    {
      "inputs": [
        {
          "internalType": "uint256",
          "name": "_id",
          "type": "uint256"
        }
      ],
      "name": "getKitty",
      "outputs": [
        {
          "internalType": "uint256",
          "name": "genes",
          "type": "uint256"
        },
        {
          "internalType": "uint256",
          "name": "birthTime",
          "type": "uint256"
        },
        {
          "internalType": "uint256",
          "name": "mumId",
          "type": "uint256"
        },
        {
          "internalType": "uint256",
          "name": "dadId",
          "type": "uint256"
        },
        {
          "internalType": "uint256",
          "name": "generation",
          "type": "uint256"
        }
      ],
      "stateMutability": "view",
      "type": "function",
      "constant": true
    },
    {
      "inputs": [
        {
          "internalType": "uint256",
          "name": "_genes",
          "type": "uint256"
        }
      ],
      "name": "createKittyGen0",
      "outputs": [
        {
          "internalType": "uint256",
          "name": "",
          "type": "uint256"
        }
      ],
      "stateMutability": "nonpayable",
      "type": "function"
    },
    {
      "inputs": [
        {
          "internalType": "address",
          "name": "owner",
          "type": "address"
        }
      ],
      "name": "balanceOf",
      "outputs": [
        {
          "internalType": "uint256",
          "name": "balance",
          "type": "uint256"
        }
      ],
      "stateMutability": "view",
      "type": "function",
      "constant": true
    },
    {
      "inputs": [],
      "name": "totalSupply",
      "outputs": [
        {
          "internalType": "uint256",
          "name": "total",
          "type": "uint256"
        }
      ],
      "stateMutability": "view",
      "type": "function",
      "constant": true
    },
    {
      "inputs": [
        {
          "internalType": "uint256",
          "name": "_tokenId",
          "type": "uint256"
        }
      ],
      "name": "ownerOf",
      "outputs": [
        {
          "internalType": "address",
          "name": "owner",
          "type": "address"
        }
      ],
      "stateMutability": "view",
      "type": "function",
      "constant": true
    },
    {
      "inputs": [
        {
          "internalType": "address",
          "name": "_to",
          "type": "address"
        },
        {
          "internalType": "uint256",
          "name": "_tokenId",
          "type": "uint256"
        }
      ],
      "name": "transfer",
      "outputs": [],
      "stateMutability": "nonpayable",
      "type": "function"
    },
    {
      "inputs": [
        {
          "internalType": "uint256",
          "name": "_mumDna",
          "type": "uint256"
        },
        {
          "internalType": "uint256",
          "name": "_dadDna",
          "type": "uint256"
        }
      ],
      "name": "_mixDna",
      "outputs": [
        {
          "internalType": "uint256",
          "name": "",
          "type": "uint256"
        }
      ],
      "stateMutability": "view",
      "type": "function",
      "constant": true
    },
    {
      "inputs": [
        {
          "internalType": "address",
          "name": "_kittyContractAddress",
          "type": "address"
        }
      ],
      "name": "setKittyContract",
      "outputs": [],
      "stateMutability": "nonpayable",
      "type": "function"
    },
    {
      "inputs": [
        {
          "internalType": "uint256",
          "name": "_tokenId",
          "type": "uint256"
        }
      ],
      "name": "getOffer",
      "outputs": [
        {
          "internalType": "address",
          "name": "seller",
          "type": "address"
        },
        {
          "internalType": "uint256",
          "name": "price",
          "type": "uint256"
        },
        {
          "internalType": "uint256",
          "name": "index",
          "type": "uint256"
        },
        {
          "internalType": "uint256",
          "name": "tokenId",
          "type": "uint256"
        },
        {
          "internalType": "bool",
          "name": "active",
          "type": "bool"
        }
      ],
      "stateMutability": "view",
      "type": "function",
      "constant": true
    },
    {
      "inputs": [],
      "name": "getAllTokenOnSale",
      "outputs": [
        {
          "internalType": "uint256[]",
          "name": "listOfOffers",
          "type": "uint256[]"
        }
      ],
      "stateMutability": "view",
      "type": "function",
      "constant": true
    },
    {
      "inputs": [
        {
          "internalType": "uint256",
          "name": "_price",
          "type": "uint256"
        },
        {
          "internalType": "uint256",
          "name": "_tokenId",
          "type": "uint256"
        }
      ],
      "name": "setOffer",
      "outputs": [],
      "stateMutability": "nonpayable",
      "type": "function"
    },
    {
      "inputs": [
        {
          "internalType": "uint256",
          "name": "_tokenId",
          "type": "uint256"
        }
      ],
      "name": "removeOffer",
      "outputs": [],
      "stateMutability": "nonpayable",
      "type": "function"
    },
    {
      "inputs": [
        {
          "internalType": "uint256",
          "name": "_tokenId",
          "type": "uint256"
        }
      ],
      "name": "buyKitty",
      "outputs": [],
      "stateMutability": "payable",
      "type": "function",
      "payable": true
    }
  ],
  "bytecode": "0x6080604052336000806101000a81548173ffffffffffffffffffffffffffffffffffffffff021916908373ffffffffffffffffffffffffffffffffffffffff1602179055503480156200005157600080fd5b50620000736000806000683cd784f90c0bf5c63b60006200007a60201b60201c565b5062000582565b6000806040518060a001604052808581526020014267ffffffffffffffff1681526020018863ffffffff1681526020018763ffffffff1681526020018661ffff16815250905060018190806001815401808255809150506001900390600052602060002090600202016000909190919091506000820151816000015560208201518160010160006101000a81548167ffffffffffffffff021916908367ffffffffffffffff16021790555060408201518160010160086101000a81548163ffffffff021916908363ffffffff160217905550606082015181600101600c6101000a81548163ffffffff021916908363ffffffff16021790555060808201518160010160106101000a81548161ffff021916908361ffff1602179055505050600060018080549050620001ad919062000417565b90507f0a5311bd2a6608f08a180df2ee7c5946819a649b204b554bb8e39825b2c50ad584828a8a89604051620001e8959493929190620004a8565b60405180910390a162000204600085836200021260201b60201c565b809250505095945050505050565b600360008373ffffffffffffffffffffffffffffffffffffffff1673ffffffffffffffffffffffffffffffffffffffff1681526020019081526020016000206000815480929190620002649062000505565b9190505550816002600083815260200190815260200160002060006101000a81548173ffffffffffffffffffffffffffffffffffffffff021916908373ffffffffffffffffffffffffffffffffffffffff160217905550600073ffffffffffffffffffffffffffffffffffffffff168373ffffffffffffffffffffffffffffffffffffffff16146200037e57600360008473ffffffffffffffffffffffffffffffffffffffff1673ffffffffffffffffffffffffffffffffffffffff1681526020019081526020016000206000815480929190620003429062000553565b91905055506004600082815260200190815260200160002060006101000a81549073ffffffffffffffffffffffffffffffffffffffff02191690555b808273ffffffffffffffffffffffffffffffffffffffff168473ffffffffffffffffffffffffffffffffffffffff167fddf252ad1be2c89b69c2b068fc378daa952ba7f163c4a11628f55a4df523b3ef60405160405180910390a4505050565b6000819050919050565b7f4e487b7100000000000000000000000000000000000000000000000000000000600052601160045260246000fd5b60006200042482620003de565b91506200043183620003de565b925082821015620004475762000446620003e8565b5b828203905092915050565b600073ffffffffffffffffffffffffffffffffffffffff82169050919050565b60006200047f8262000452565b9050919050565b620004918162000472565b82525050565b620004a281620003de565b82525050565b600060a082019050620004bf600083018862000486565b620004ce602083018762000497565b620004dd604083018662000497565b620004ec606083018562000497565b620004fb608083018462000497565b9695505050505050565b60006200051282620003de565b91507fffffffffffffffffffffffffffffffffffffffffffffffffffffffffffffffff821415620005485762000547620003e8565b5b600182019050919050565b60006200056082620003de565b91506000821415620005775762000576620003e8565b5b600182039050919050565b61389780620005926000396000f3fe6080604052600436106101cd5760003560e01c8063959bb970116100f7578063ae5310f611610095578063d9ecad7b11610064578063d9ecad7b146106c7578063e985e9c514610704578063e98b7f4d14610741578063ef5e94aa14610782576101cd565b8063ae5310f61461061a578063b483433014610636578063b88d4fde14610661578063d5a776ca1461068a576101cd565b806395e6c62f116100d157806395e6c62f1461054e578063a22cb4651461058b578063a45f4bfc146105b4578063a9059cbb146105f1576101cd565b8063959bb970146104bd57806395a0f9c7146104fa57806395d89b4114610523576101cd565b80634579268a1161016f5780636352211e1161013e5780636352211e146103ef57806370a082311461042c5780638da5cb5b14610469578063941b055b14610494576101cd565b80634579268a1461031d578063481af3d31461035e57806349b3709f1461039b57806362b7f94e146103c6576101cd565b8063095ea7b3116101ab578063095ea7b31461027757806318160ddd146102a057806323b872dd146102cb57806342842e0e146102f4576101cd565b806301ffc9a7146101d257806306fdde031461020f578063081812fc1461023a575b600080fd5b3480156101de57600080fd5b506101f960048036038101906101f491906126f5565b6107ad565b604051610206919061273d565b60405180910390f35b34801561021b57600080fd5b5061022461084d565b60405161023191906127f1565b60405180910390f35b34801561024657600080fd5b50610261600480360381019061025c9190612849565b610886565b60405161026e91906128b7565b60405180910390f35b34801561028357600080fd5b5061029e600480360381019061029991906128fe565b6108d4565b005b3480156102ac57600080fd5b506102b5610950565b6040516102c2919061294d565b60405180910390f35b3480156102d757600080fd5b506102f260048036038101906102ed9190612968565b61095d565b005b34801561030057600080fd5b5061031b60048036038101906103169190612968565b610a3a565b005b34801561032957600080fd5b50610344600480360381019061033f9190612849565b610a5a565b6040516103559594939291906129bb565b60405180910390f35b34801561036a57600080fd5b5061038560048036038101906103809190612849565b610ad2565b60405161039291906128b7565b60405180910390f35b3480156103a757600080fd5b506103b0610b05565b6040516103bd9190612acc565b60405180910390f35b3480156103d257600080fd5b506103ed60048036038101906103e89190612aee565b610c66565b005b3480156103fb57600080fd5b5061041660048036038101906104119190612849565b610d38565b60405161042391906128b7565b60405180910390f35b34801561043857600080fd5b50610453600480360381019061044e9190612aee565b610d75565b604051610460919061294d565b60405180910390f35b34801561047557600080fd5b5061047e610dbe565b60405161048b91906128b7565b60405180910390f35b3480156104a057600080fd5b506104bb60048036038101906104b69190612b1b565b610de2565b005b3480156104c957600080fd5b506104e460048036038101906104df9190612b1b565b611148565b6040516104f1919061294d565b60405180910390f35b34801561050657600080fd5b50610521600480360381019061051c9190612849565b6112a4565b005b34801561052f57600080fd5b506105386114af565b60405161054591906127f1565b60405180910390f35b34801561055a57600080fd5b5061057560048036038101906105709190612aee565b6114e8565b6040516105829190612acc565b60405180910390f35b34801561059757600080fd5b506105b260048036038101906105ad9190612b87565b61163b565b005b3480156105c057600080fd5b506105db60048036038101906105d69190612849565b611771565b6040516105e891906128b7565b60405180910390f35b3480156105fd57600080fd5b50610618600480360381019061061391906128fe565b6117a4565b005b610634600480360381019061062f9190612849565b611839565b005b34801561064257600080fd5b5061064b611b74565b604051610658919061294d565b60405180910390f35b34801561066d57600080fd5b5061068860048036038101906106839190612cfc565b611b79565b005b34801561069657600080fd5b506106b160048036038101906106ac9190612849565b611ba0565b6040516106be919061294d565b60405180910390f35b3480156106d357600080fd5b506106ee60048036038101906106e99190612b1b565b611c6e565b6040516106fb919061294d565b60405180910390f35b34801561071057600080fd5b5061072b60048036038101906107269190612d7f565b611dbc565b604051610738919061273d565b60405180910390f35b34801561074d57600080fd5b5061076860048036038101906107639190612849565b611e50565b604051610779959493929190612dbf565b60405180910390f35b34801561078e57600080fd5b50610797611f06565b6040516107a4919061294d565b60405180910390f35b60006380ac58cd60e01b7bffffffffffffffffffffffffffffffffffffffffffffffffffffffff1916827bffffffffffffffffffffffffffffffffffffffffffffffffffffffff1916148061084657506301ffc9a760e01b7bffffffffffffffffffffffffffffffffffffffffffffffffffffffff1916827bffffffffffffffffffffffffffffffffffffffffffffffffffffffff1916145b9050919050565b6040518060400160405280600881526020017f5261644b6974747900000000000000000000000000000000000000000000000081525081565b6000600180549050821061089957600080fd5b6004600083815260200190815260200160002060009054906101000a900473ffffffffffffffffffffffffffffffffffffffff169050919050565b6108de3382611f0c565b6108e757600080fd5b6108f18183611f78565b808273ffffffffffffffffffffffffffffffffffffffff163373ffffffffffffffffffffffffffffffffffffffff167f8c5be1e5ebec7d5bd14f71427d1e84f3dd0314c0f7b2291e5b200ac8c7c3b92560405160405180910390a45050565b6000600180549050905090565b600073ffffffffffffffffffffffffffffffffffffffff168273ffffffffffffffffffffffffffffffffffffffff16141561099757600080fd5b8273ffffffffffffffffffffffffffffffffffffffff163373ffffffffffffffffffffffffffffffffffffffff1614806109d757506109d63382611fce565b5b806109e857506109e78333611dbc565b5b6109f157600080fd5b6109fb8382611f0c565b610a0457600080fd5b6001805490508110610a1557600080fd5b610a213384848461203a565b610a2a57600080fd5b610a358383836120f5565b505050565b610a5583838360405180602001604052806000815250611b79565b505050565b6000806000806000806009600088815260200190815260200160002090508060000160009054906101000a900473ffffffffffffffffffffffffffffffffffffffff168160010154826002015483600301548460040160009054906101000a900460ff16955095509550955095505091939590929450565b60046020528060005260406000206000915054906101000a900473ffffffffffffffffffffffffffffffffffffffff1681565b6060600060088054905090506000811415610b6c57600067ffffffffffffffff811115610b3557610b34612bd1565b5b604051908082528060200260200182016040528015610b635781602001602082028036833780820191505090505b50915050610c63565b60008167ffffffffffffffff811115610b8857610b87612bd1565b5b604051908082528060200260200182016040528015610bb65781602001602082028036833780820191505090505b50905060005b82811015610c5c576001151560088281548110610bdc57610bdb612e12565b5b906000526020600020906005020160040160009054906101000a900460ff1615151415610c495760088181548110610c1757610c16612e12565b5b906000526020600020906005020160030154828281518110610c3c57610c3b612e12565b5b6020026020010181815250505b8080610c5490612e70565b915050610bbc565b8193505050505b90565b60008054906101000a900473ffffffffffffffffffffffffffffffffffffffff1673ffffffffffffffffffffffffffffffffffffffff163373ffffffffffffffffffffffffffffffffffffffff1614610cf4576040517f08c379a0000000000000000000000000000000000000000000000000000000008152600401610ceb90612f05565b60405180910390fd5b80600760006101000a81548173ffffffffffffffffffffffffffffffffffffffff021916908373ffffffffffffffffffffffffffffffffffffffff16021790555050565b60006002600083815260200190815260200160002060009054906101000a900473ffffffffffffffffffffffffffffffffffffffff169050919050565b6000600360008373ffffffffffffffffffffffffffffffffffffffff1673ffffffffffffffffffffffffffffffffffffffff168152602001908152602001600020549050919050565b60008054906101000a900473ffffffffffffffffffffffffffffffffffffffff1681565b610dec33826122bc565b610e2b576040517f08c379a0000000000000000000000000000000000000000000000000000000008152600401610e2290612f97565b60405180910390fd5b600015156009600083815260200190815260200160002060040160009054906101000a900460ff16151514610e95576040517f08c379a0000000000000000000000000000000000000000000000000000000008152600401610e8c90613029565b60405180910390fd5b600760009054906101000a900473ffffffffffffffffffffffffffffffffffffffff1673ffffffffffffffffffffffffffffffffffffffff1663e985e9c533306040518363ffffffff1660e01b8152600401610ef2929190613049565b602060405180830381865afa158015610f0f573d6000803e3d6000fd5b505050506040513d601f19601f82011682018060405250810190610f339190613087565b610f72576040517f08c379a0000000000000000000000000000000000000000000000000000000008152600401610f6990613126565b60405180910390fd5b60006040518060a001604052803373ffffffffffffffffffffffffffffffffffffffff1681526020018481526020016008805490508152602001838152602001600115158152509050806009600084815260200190815260200160002060008201518160000160006101000a81548173ffffffffffffffffffffffffffffffffffffffff021916908373ffffffffffffffffffffffffffffffffffffffff16021790555060208201518160010155604082015181600201556060820151816003015560808201518160040160006101000a81548160ff021916908315150217905550905050600881908060018154018082558091505060019003906000526020600020906005020160009091909190915060008201518160000160006101000a81548173ffffffffffffffffffffffffffffffffffffffff021916908373ffffffffffffffffffffffffffffffffffffffff16021790555060208201518160010155604082015181600201556060820151816003015560808201518160040160006101000a81548160ff02191690831515021790555050507fd99e4fad9ad6313b1feb588fa8e605e3a9873172f2024330c35dd2b4041a4386338360405161113b929190613192565b60405180910390a1505050565b6000611152612666565b600061ffff4261116291906131fd565b90506000600190506000600a9050600191505b6104008211611237576000828461ffff1616146111be5760648761119991906131fd565b61ffff168482600b81106111b0576111af612e12565b5b6020020181815250506111ec565b6064866111cb91906131fd565b61ffff168482600b81106111e2576111e1612e12565b5b6020020181815250505b6064876111f9919061322e565b9650606486611208919061322e565b9550610400821461122357600181611220919061325f565b90505b6002826112309190613293565b9150611175565b60008092505b600b831015611296578483600b811061125957611258612e12565b5b60200201518161126991906132ed565b9050600a8314611283576064816112809190613293565b90505b828061128e90612e70565b93505061123d565b809550505050505092915050565b6000600960008381526020019081526020016000206040518060a00160405290816000820160009054906101000a900473ffffffffffffffffffffffffffffffffffffffff1673ffffffffffffffffffffffffffffffffffffffff1673ffffffffffffffffffffffffffffffffffffffff1681526020016001820154815260200160028201548152602001600382015481526020016004820160009054906101000a900460ff16151515158152505090503373ffffffffffffffffffffffffffffffffffffffff16816000015173ffffffffffffffffffffffffffffffffffffffff16146113c7576040517f08c379a00000000000000000000000000000000000000000000000000000000081526004016113be906133b5565b60405180910390fd5b60096000838152602001908152602001600020600080820160006101000a81549073ffffffffffffffffffffffffffffffffffffffff02191690556001820160009055600282016000905560038201600090556004820160006101000a81549060ff021916905550506000600882604001518154811061144a57611449612e12565b5b906000526020600020906005020160040160006101000a81548160ff0219169083151502179055507fd99e4fad9ad6313b1feb588fa8e605e3a9873172f2024330c35dd2b4041a438633836040516114a3929190613421565b60405180910390a15050565b6040518060400160405280600281526020017f524b00000000000000000000000000000000000000000000000000000000000081525081565b60606000600360008473ffffffffffffffffffffffffffffffffffffffff1673ffffffffffffffffffffffffffffffffffffffff1681526020019081526020016000205467ffffffffffffffff81111561154557611544612bd1565b5b6040519080825280602002602001820160405280156115735781602001602082028036833780820191505090505b5090506000805b600180549050811015611630578473ffffffffffffffffffffffffffffffffffffffff166002600083815260200190815260200160002060009054906101000a900473ffffffffffffffffffffffffffffffffffffffff1673ffffffffffffffffffffffffffffffffffffffff16141561161d578083838151811061160257611601612e12565b5b602002602001018181525050818061161990612e70565b9250505b808061162890612e70565b91505061157a565b508192505050919050565b3373ffffffffffffffffffffffffffffffffffffffff168273ffffffffffffffffffffffffffffffffffffffff16141561167457600080fd5b80600560003373ffffffffffffffffffffffffffffffffffffffff1673ffffffffffffffffffffffffffffffffffffffff16815260200190815260200160002060008473ffffffffffffffffffffffffffffffffffffffff1673ffffffffffffffffffffffffffffffffffffffff16815260200190815260200160002060006101000a81548160ff0219169083151502179055508173ffffffffffffffffffffffffffffffffffffffff163373ffffffffffffffffffffffffffffffffffffffff167f17307eab39ab6107e8899845ad3d59bd9653f200f220920489ca2b5937696c3183604051611765919061273d565b60405180910390a35050565b60026020528060005260406000206000915054906101000a900473ffffffffffffffffffffffffffffffffffffffff1681565b600073ffffffffffffffffffffffffffffffffffffffff168273ffffffffffffffffffffffffffffffffffffffff1614156117de57600080fd5b3073ffffffffffffffffffffffffffffffffffffffff168273ffffffffffffffffffffffffffffffffffffffff16141561181757600080fd5b6118213382611f0c565b61182a57600080fd5b6118353383836120f5565b5050565b6000600960008381526020019081526020016000206040518060a00160405290816000820160009054906101000a900473ffffffffffffffffffffffffffffffffffffffff1673ffffffffffffffffffffffffffffffffffffffff1673ffffffffffffffffffffffffffffffffffffffff1681526020016001820154815260200160028201548152602001600382015481526020016004820160009054906101000a900460ff161515151581525050905080602001513414611930576040517f08c379a0000000000000000000000000000000000000000000000000000000008152600401611927906134a9565b60405180910390fd5b600115156009600084815260200190815260200160002060040160009054906101000a900460ff1615151461199a576040517f08c379a000000000000000000000000000000000000000000000000000000000815260040161199190613515565b60405180910390fd5b60096000838152602001908152602001600020600080820160006101000a81549073ffffffffffffffffffffffffffffffffffffffff02191690556001820160009055600282016000905560038201600090556004820160006101000a81549060ff0219169055505060006008826040015181548110611a1d57611a1c612e12565b5b906000526020600020906005020160040160006101000a81548160ff021916908315150217905550600081602001511115611aa257806000015173ffffffffffffffffffffffffffffffffffffffff166108fc82602001519081150290604051600060405180830381858888f19350505050158015611aa0573d6000803e3d6000fd5b505b600760009054906101000a900473ffffffffffffffffffffffffffffffffffffffff1673ffffffffffffffffffffffffffffffffffffffff166323b872dd826000015133856040518463ffffffff1660e01b8152600401611b0593929190613594565b600060405180830381600087803b158015611b1f57600080fd5b505af1158015611b33573d6000803e3d6000fd5b505050507fd99e4fad9ad6313b1feb588fa8e605e3a9873172f2024330c35dd2b4041a43863383604051611b68929190613617565b60405180910390a15050565b600a81565b611b853385858561203a565b611b8e57600080fd5b611b9a84848484612390565b50505050565b60008060009054906101000a900473ffffffffffffffffffffffffffffffffffffffff1673ffffffffffffffffffffffffffffffffffffffff163373ffffffffffffffffffffffffffffffffffffffff1614611c31576040517f08c379a0000000000000000000000000000000000000000000000000000000008152600401611c2890612f05565b60405180910390fd5b600a60065410611c4057600080fd5b60066000815480929190611c5390612e70565b9190505550611c67600080600085336123b6565b9050919050565b6000611c7a3384611f0c565b611cb9576040517f08c379a0000000000000000000000000000000000000000000000000000000008152600401611cb09061369f565b60405180910390fd5b611cc33383611f0c565b611d02576040517f08c379a0000000000000000000000000000000000000000000000000000000008152600401611cf99061369f565b60405180910390fd5b600080611d0e85611e50565b94505050509150600080611d2186611e50565b945050505091506000611d348584611148565b9050600082851015611d6357600183611d4d91906132ed565b9050600281611d5c919061322e565b9050611d9f565b82851115611d8e57600185611d7891906132ed565b9050600281611d87919061322e565b9050611d9e565b600183611d9b91906132ed565b90505b5b611dac888a8385336123b6565b5081965050505050505092915050565b6000600560008473ffffffffffffffffffffffffffffffffffffffff1673ffffffffffffffffffffffffffffffffffffffff16815260200190815260200160002060008373ffffffffffffffffffffffffffffffffffffffff1673ffffffffffffffffffffffffffffffffffffffff16815260200190815260200160002060009054906101000a900460ff16905092915050565b60008060008060008060018781548110611e6d57611e6c612e12565b5b906000526020600020906002020190508060010160009054906101000a900467ffffffffffffffff1667ffffffffffffffff1694508060010160089054906101000a900463ffffffff1663ffffffff16935080600101600c9054906101000a900463ffffffff1663ffffffff1692508060010160109054906101000a900461ffff1661ffff169150806000015495505091939590929450565b60065481565b60008273ffffffffffffffffffffffffffffffffffffffff166002600084815260200190815260200160002060009054906101000a900473ffffffffffffffffffffffffffffffffffffffff1673ffffffffffffffffffffffffffffffffffffffff1614905092915050565b806004600084815260200190815260200160002060006101000a81548173ffffffffffffffffffffffffffffffffffffffff021916908373ffffffffffffffffffffffffffffffffffffffff1602179055505050565b60008273ffffffffffffffffffffffffffffffffffffffff166004600084815260200190815260200160002060009054906101000a900473ffffffffffffffffffffffffffffffffffffffff1673ffffffffffffffffffffffffffffffffffffffff1614905092915050565b6000600180549050821061204d57600080fd5b600073ffffffffffffffffffffffffffffffffffffffff168373ffffffffffffffffffffffffffffffffffffffff16141561208757600080fd5b6120918483611f0c565b61209a57600080fd5b8373ffffffffffffffffffffffffffffffffffffffff168573ffffffffffffffffffffffffffffffffffffffff1614806120da57506120d98583611fce565b5b806120eb57506120ea8486611dbc565b5b9050949350505050565b600360008373ffffffffffffffffffffffffffffffffffffffff1673ffffffffffffffffffffffffffffffffffffffff168152602001908152602001600020600081548092919061214590612e70565b9190505550816002600083815260200190815260200160002060006101000a81548173ffffffffffffffffffffffffffffffffffffffff021916908373ffffffffffffffffffffffffffffffffffffffff160217905550600073ffffffffffffffffffffffffffffffffffffffff168373ffffffffffffffffffffffffffffffffffffffff161461225c57600360008473ffffffffffffffffffffffffffffffffffffffff1673ffffffffffffffffffffffffffffffffffffffff1681526020019081526020016000206000815480929190612220906136bf565b91905055506004600082815260200190815260200160002060006101000a81549073ffffffffffffffffffffffffffffffffffffffff02191690555b808273ffffffffffffffffffffffffffffffffffffffff168473ffffffffffffffffffffffffffffffffffffffff167fddf252ad1be2c89b69c2b068fc378daa952ba7f163c4a11628f55a4df523b3ef60405160405180910390a4505050565b60008273ffffffffffffffffffffffffffffffffffffffff16600760009054906101000a900473ffffffffffffffffffffffffffffffffffffffff1673ffffffffffffffffffffffffffffffffffffffff16636352211e846040518263ffffffff1660e01b8152600401612330919061294d565b602060405180830381865afa15801561234d573d6000803e3d6000fd5b505050506040513d601f19601f8201168201806040525081019061237191906136fe565b73ffffffffffffffffffffffffffffffffffffffff1614905092915050565b61239b8484846120f5565b6123a784848484612542565b6123b057600080fd5b50505050565b6000806040518060a001604052808581526020014267ffffffffffffffff1681526020018863ffffffff1681526020018763ffffffff1681526020018661ffff16815250905060018190806001815401808255809150506001900390600052602060002090600202016000909190919091506000820151816000015560208201518160010160006101000a81548167ffffffffffffffff021916908367ffffffffffffffff16021790555060408201518160010160086101000a81548163ffffffff021916908363ffffffff160217905550606082015181600101600c6101000a81548163ffffffff021916908363ffffffff16021790555060808201518160010160106101000a81548161ffff021916908361ffff16021790555050506000600180805490506124e7919061325f565b90507f0a5311bd2a6608f08a180df2ee7c5946819a649b204b554bb8e39825b2c50ad584828a8a8960405161252095949392919061372b565b60405180910390a1612534600085836120f5565b809250505095945050505050565b600061254d8461264d565b61255a5760019050612645565b60008473ffffffffffffffffffffffffffffffffffffffff1663150b7a02338887876040518563ffffffff1660e01b815260040161259b94939291906137d3565b6020604051808303816000875af11580156125ba573d6000803e3d6000fd5b505050506040513d601f19601f820116820180604052508101906125de9190613834565b90507f150b7a023d4804d13e8c85fb27262cb750cf6ba9f9dd3bb30d90f482ceeb4b1f7bffffffffffffffffffffffffffffffffffffffffffffffffffffffff1916817bffffffffffffffffffffffffffffffffffffffffffffffffffffffff1916149150505b949350505050565b600080823b905060008163ffffffff1611915050919050565b604051806101600160405280600b90602082028036833780820191505090505090565b6000604051905090565b600080fd5b600080fd5b60007fffffffff0000000000000000000000000000000000000000000000000000000082169050919050565b6126d28161269d565b81146126dd57600080fd5b50565b6000813590506126ef816126c9565b92915050565b60006020828403121561270b5761270a612693565b5b6000612719848285016126e0565b91505092915050565b60008115159050919050565b61273781612722565b82525050565b6000602082019050612752600083018461272e565b92915050565b600081519050919050565b600082825260208201905092915050565b60005b83811015612792578082015181840152602081019050612777565b838111156127a1576000848401525b50505050565b6000601f19601f8301169050919050565b60006127c382612758565b6127cd8185612763565b93506127dd818560208601612774565b6127e6816127a7565b840191505092915050565b6000602082019050818103600083015261280b81846127b8565b905092915050565b6000819050919050565b61282681612813565b811461283157600080fd5b50565b6000813590506128438161281d565b92915050565b60006020828403121561285f5761285e612693565b5b600061286d84828501612834565b91505092915050565b600073ffffffffffffffffffffffffffffffffffffffff82169050919050565b60006128a182612876565b9050919050565b6128b181612896565b82525050565b60006020820190506128cc60008301846128a8565b92915050565b6128db81612896565b81146128e657600080fd5b50565b6000813590506128f8816128d2565b92915050565b6000806040838503121561291557612914612693565b5b6000612923858286016128e9565b925050602061293485828601612834565b9150509250929050565b61294781612813565b82525050565b6000602082019050612962600083018461293e565b92915050565b60008060006060848603121561298157612980612693565b5b600061298f868287016128e9565b93505060206129a0868287016128e9565b92505060406129b186828701612834565b9150509250925092565b600060a0820190506129d060008301886128a8565b6129dd602083018761293e565b6129ea604083018661293e565b6129f7606083018561293e565b612a04608083018461272e565b9695505050505050565b600081519050919050565b600082825260208201905092915050565b6000819050602082019050919050565b612a4381612813565b82525050565b6000612a558383612a3a565b60208301905092915050565b6000602082019050919050565b6000612a7982612a0e565b612a838185612a19565b9350612a8e83612a2a565b8060005b83811015612abf578151612aa68882612a49565b9750612ab183612a61565b925050600181019050612a92565b5085935050505092915050565b60006020820190508181036000830152612ae68184612a6e565b905092915050565b600060208284031215612b0457612b03612693565b5b6000612b12848285016128e9565b91505092915050565b60008060408385031215612b3257612b31612693565b5b6000612b4085828601612834565b9250506020612b5185828601612834565b9150509250929050565b612b6481612722565b8114612b6f57600080fd5b50565b600081359050612b8181612b5b565b92915050565b60008060408385031215612b9e57612b9d612693565b5b6000612bac858286016128e9565b9250506020612bbd85828601612b72565b9150509250929050565b600080fd5b600080fd5b7f4e487b7100000000000000000000000000000000000000000000000000000000600052604160045260246000fd5b612c09826127a7565b810181811067ffffffffffffffff82111715612c2857612c27612bd1565b5b80604052505050565b6000612c3b612689565b9050612c478282612c00565b919050565b600067ffffffffffffffff821115612c6757612c66612bd1565b5b612c70826127a7565b9050602081019050919050565b82818337600083830152505050565b6000612c9f612c9a84612c4c565b612c31565b905082815260208101848484011115612cbb57612cba612bcc565b5b612cc6848285612c7d565b509392505050565b600082601f830112612ce357612ce2612bc7565b5b8135612cf3848260208601612c8c565b91505092915050565b60008060008060808587031215612d1657612d15612693565b5b6000612d24878288016128e9565b9450506020612d35878288016128e9565b9350506040612d4687828801612834565b925050606085013567ffffffffffffffff811115612d6757612d66612698565b5b612d7387828801612cce565b91505092959194509250565b60008060408385031215612d9657612d95612693565b5b6000612da4858286016128e9565b9250506020612db5858286016128e9565b9150509250929050565b600060a082019050612dd4600083018861293e565b612de1602083018761293e565b612dee604083018661293e565b612dfb606083018561293e565b612e08608083018461293e565b9695505050505050565b7f4e487b7100000000000000000000000000000000000000000000000000000000600052603260045260246000fd5b7f4e487b7100000000000000000000000000000000000000000000000000000000600052601160045260246000fd5b6000612e7b82612813565b91507fffffffffffffffffffffffffffffffffffffffffffffffffffffffffffffffff821415612eae57612ead612e41565b5b600182019050919050565b7f596f7520617265206e6f7420746865206f776e65720000000000000000000000600082015250565b6000612eef601583612763565b9150612efa82612eb9565b602082019050919050565b60006020820190508181036000830152612f1e81612ee2565b9050919050565b7f596f7520617265206e6f7420746865206f776e6572206f662074686174204b6960008201527f7474790000000000000000000000000000000000000000000000000000000000602082015250565b6000612f81602383612763565b9150612f8c82612f25565b604082019050919050565b60006020820190508181036000830152612fb081612f74565b9050919050565b7f596f752063616e6e6f742073656c6c207468652073616d65206f66666572207460008201527f7769636500000000000000000000000000000000000000000000000000000000602082015250565b6000613013602483612763565b915061301e82612fb7565b604082019050919050565b6000602082019050818103600083015261304281613006565b9050919050565b600060408201905061305e60008301856128a8565b61306b60208301846128a8565b9392505050565b60008151905061308181612b5b565b92915050565b60006020828403121561309d5761309c612693565b5b60006130ab84828501613072565b91505092915050565b7f436f6e7472616374206e6565647320746f206265206170706f76656420746f2060008201527f7472616e73666572206b6974747920696e207468652066757475726500000000602082015250565b6000613110603c83612763565b915061311b826130b4565b604082019050919050565b6000602082019050818103600083015261313f81613103565b9050919050565b7f437265617465206f666665720000000000000000000000000000000000000000600082015250565b600061317c600c83612763565b915061318782613146565b602082019050919050565b600060608201905081810360008301526131ab8161316f565b90506131ba60208301856128a8565b6131c7604083018461293e565b9392505050565b7f4e487b7100000000000000000000000000000000000000000000000000000000600052601260045260246000fd5b600061320882612813565b915061321383612813565b925082613223576132226131ce565b5b828206905092915050565b600061323982612813565b915061324483612813565b925082613254576132536131ce565b5b828204905092915050565b600061326a82612813565b915061327583612813565b92508282101561328857613287612e41565b5b828203905092915050565b600061329e82612813565b91506132a983612813565b9250817fffffffffffffffffffffffffffffffffffffffffffffffffffffffffffffffff04831182151516156132e2576132e1612e41565b5b828202905092915050565b60006132f882612813565b915061330383612813565b9250827fffffffffffffffffffffffffffffffffffffffffffffffffffffffffffffffff0382111561333857613337612e41565b5b828201905092915050565b7f596f7520617265206e6f74207468652073656c6c6572206f662074686174204b60008201527f6974747900000000000000000000000000000000000000000000000000000000602082015250565b600061339f602483612763565b91506133aa82613343565b604082019050919050565b600060208201905081810360008301526133ce81613392565b9050919050565b7f52656d6f7665204f666665720000000000000000000000000000000000000000600082015250565b600061340b600c83612763565b9150613416826133d5565b602082019050919050565b6000606082019050818103600083015261343a816133fe565b905061344960208301856128a8565b613456604083018461293e565b9392505050565b7f54686520707269636520697320696e636f727265637400000000000000000000600082015250565b6000613493601683612763565b915061349e8261345d565b602082019050919050565b600060208201905081810360008301526134c281613486565b9050919050565b7f4e6f742061637469766500000000000000000000000000000000000000000000600082015250565b60006134ff600a83612763565b915061350a826134c9565b602082019050919050565b6000602082019050818103600083015261352e816134f2565b9050919050565b6000819050919050565b600061355a61355561355084612876565b613535565b612876565b9050919050565b600061356c8261353f565b9050919050565b600061357e82613561565b9050919050565b61358e81613573565b82525050565b60006060820190506135a96000830186613585565b6135b660208301856128a8565b6135c3604083018461293e565b949350505050565b7f4275790000000000000000000000000000000000000000000000000000000000600082015250565b6000613601600383612763565b915061360c826135cb565b602082019050919050565b60006060820190508181036000830152613630816135f4565b905061363f60208301856128a8565b61364c604083018461293e565b9392505050565b7f546865207573657220646f65736e2774206f776e2074686520746f6b656e0000600082015250565b6000613689601e83612763565b915061369482613653565b602082019050919050565b600060208201905081810360008301526136b88161367c565b9050919050565b60006136ca82612813565b915060008214156136de576136dd612e41565b5b600182039050919050565b6000815190506136f8816128d2565b92915050565b60006020828403121561371457613713612693565b5b6000613722848285016136e9565b91505092915050565b600060a08201905061374060008301886128a8565b61374d602083018761293e565b61375a604083018661293e565b613767606083018561293e565b613774608083018461293e565b9695505050505050565b600081519050919050565b600082825260208201905092915050565b60006137a58261377e565b6137af8185613789565b93506137bf818560208601612774565b6137c8816127a7565b840191505092915050565b60006080820190506137e860008301876128a8565b6137f560208301866128a8565b613802604083018561293e565b8181036060830152613814818461379a565b905095945050505050565b60008151905061382e816126c9565b92915050565b60006020828403121561384a57613849612693565b5b60006138588482850161381f565b9150509291505056fea264697066735822122053d0249eb82933166be492c0e86bb7760dda592e913498ea20f15bc38ab9591f64736f6c634300080c0033",
  "immutableReferences": {},
  "source": "// SPDX-License-Identifier: MIT\r\npragma solidity  >=0.4.22 <0.9.0;\r\n\r\nimport \"./IERC721.sol\";\r\nimport \"./Ownable.sol\";\r\nimport \"./IERC721Receiver.sol\";\r\n\r\ncontract KittyContract is IERC721, Ownable {\r\n\r\n    uint256 public constant CREATION_LIMIT_GEN0 = 10;\r\n    string public constant name = \"RadKitty\";\r\n    string public constant symbol = \"RK\";\r\n\r\n    bytes4 internal constant MAGIC_ERC721_RECEIVED = bytes4(keccak256(\"onERC721Received(address,address,uint256,bytes)\"));\r\n\r\n    /*\r\n     *     bytes4(keccak256('balanceOf(address)')) == 0x70a08231\r\n     *     bytes4(keccak256('ownerOf(uint256)')) == 0x6352211e\r\n     *     bytes4(keccak256('approve(address,uint256)')) == 0x095ea7b3\r\n     *     bytes4(keccak256('getApproved(uint256)')) == 0x081812fc\r\n     *     bytes4(keccak256('setApprovalForAll(address,bool)')) == 0xa22cb465\r\n     *     bytes4(keccak256('isApprovedForAll(address,address)')) == 0xe985e9c5\r\n     *     bytes4(keccak256('transferFrom(address,address,uint256)')) == 0x23b872dd\r\n     *     bytes4(keccak256('safeTransferFrom(address,address,uint256)')) == 0x42842e0e\r\n     *     bytes4(keccak256('safeTransferFrom(address,address,uint256,bytes)')) == 0xb88d4fde\r\n     *\r\n     *     => 0x70a08231 ^ 0x6352211e ^ 0x095ea7b3 ^ 0x081812fc ^\r\n     *        0xa22cb465 ^ 0xe985e9c ^ 0x23b872dd ^ 0x42842e0e ^ 0xb88d4fde == 0x80ac58cd\r\n     */\r\n    bytes4 private constant _INTERFACE_ID_ERC721 = 0x80ac58cd;\r\n\r\n    /*\r\n     *     bytes4(keccak256('supportsInterface(bytes4)'));\r\n     */\r\n    bytes4 private constant _INTERFACE_ID_ERC165 = 0x01ffc9a7;\r\n\r\n    event Birth(\r\n        address owner, \r\n        uint256 kittenId, \r\n        uint256 mumId, \r\n        uint256 dadId, \r\n        uint256 genes \r\n        );\r\n\r\n    struct Kitty {\r\n        uint256 genes;\r\n        uint64 birthTime;\r\n        uint32 mumId;\r\n        uint32 dadId;\r\n        uint16 generation;\r\n    }\r\n\r\n    Kitty[] kitties;\r\n\r\n    mapping(uint256 => address) public kittyIndexToOwner;\r\n    mapping(address => uint256) ownershipTokenCount;\r\n\r\n    mapping(uint256 => address) public kittyIndexToApproved;\r\n    mapping(address => mapping (address => bool)) private _operatorApprovals;\r\n\r\n    uint256 public gen0Counter;\r\n\r\n    constructor() {\r\n        _createKitty(0, 0, 0, 1122334455667788990011, address(0));\r\n    }\r\n\r\n    function breed(uint256 _dadId, uint256 _mumId) public returns (uint256){\r\n        require(_owns(msg.sender, _dadId), \"The user doesn't own the token\");\r\n        require(_owns(msg.sender, _mumId), \"The user doesn't own the token\");\r\n\r\n        ( uint256 dadDna,,,,uint256 DadGeneration ) = getKitty(_dadId);\r\n\r\n        ( uint256 mumDna,,,,uint256 MumGeneration ) = getKitty(_mumId);\r\n        \r\n        uint256 newDna = _mixDna(dadDna, mumDna);\r\n\r\n        uint256 kidGen = 0;\r\n        if (DadGeneration < MumGeneration){\r\n            kidGen = MumGeneration + 1;\r\n            kidGen /= 2;\r\n        } else if (DadGeneration > MumGeneration){\r\n            kidGen = DadGeneration + 1;\r\n            kidGen /= 2;\r\n        } else{\r\n            kidGen = MumGeneration + 1;\r\n        }\r\n\r\n        _createKitty(_mumId, _dadId, kidGen, newDna, msg.sender);\r\n        return newDna;\r\n\r\n    }\r\n\r\n    function supportsInterface(bytes4 _interfaceId) external pure returns (bool) {\r\n        return (_interfaceId == _INTERFACE_ID_ERC721 || _interfaceId == _INTERFACE_ID_ERC165);\r\n    }\r\n\r\n    function approve(address _to, uint256 _tokenId) public {\r\n        require(_owns(msg.sender, _tokenId));\r\n\r\n        _approve(_tokenId, _to);\r\n        emit Approval(msg.sender, _to, _tokenId);\r\n    }\r\n\r\n    function setApprovalForAll(address operator, bool approved) public {\r\n        require(operator != msg.sender);\r\n        \r\n        _operatorApprovals[msg.sender][operator] = approved;\r\n        emit ApprovalForAll(msg.sender, operator, approved);\r\n    }\r\n\r\n    function getApproved(uint256 tokenId) public view returns (address) {\r\n        require(tokenId < kitties.length); //Token must exist\r\n\r\n        return kittyIndexToApproved[tokenId];\r\n    }\r\n\r\n    function isApprovedForAll(address owner, address operator) public view returns (bool) {\r\n        return _operatorApprovals[owner][operator];\r\n    }\r\n\r\n  function getKittyByOwner(address _owner) external view returns(uint[] memory) {\r\n    uint[] memory result = new uint[](ownershipTokenCount[_owner]);\r\n    uint counter = 0;\r\n    for (uint i = 0; i < kitties.length; i++) {\r\n      if (kittyIndexToOwner[i] == _owner) {\r\n        result[counter] = i;\r\n        counter++;\r\n      }\r\n    }\r\n    return result;\r\n  }\r\n\r\n    function safeTransferFrom(address _from, address _to, uint256 _tokenId) public {\r\n        safeTransferFrom(_from, _to, _tokenId, \"\");\r\n    }\r\n\r\n    function safeTransferFrom(address _from, address _to, uint256 _tokenId, bytes memory _data) public {\r\n        require( _isApprovedOrOwner(msg.sender, _from, _to, _tokenId) );\r\n        _safeTransfer(_from, _to, _tokenId, _data);\r\n    }\r\n\r\n    function _safeTransfer(address _from, address _to, uint256 _tokenId, bytes memory _data) internal {\r\n        _transfer(_from, _to, _tokenId);\r\n        require(_checkERC721Support(_from, _to, _tokenId, _data));\r\n    }\r\n\r\n    function transferFrom(address _from, address _to, uint256 _tokenId) public {\r\n      require(_to != address(0));\r\n        require(msg.sender == _from || _approvedFor(msg.sender, _tokenId) || isApprovedForAll(_from, msg.sender));\r\n        require(_owns(_from, _tokenId));\r\n        require(_tokenId < kitties.length);\r\n        \r\n        //_transfer(msg.sender, _to, _tokenId); //<=Old code\r\n        \r\n        require(_isApprovedOrOwner(msg.sender, _from, _to, _tokenId));\r\n\r\n        _transfer(_from, _to, _tokenId); //Newer code\r\n    }\r\n\r\n\r\n\r\n\r\n    function getKitty(uint256 _id) public view returns (\r\n        uint256 genes,\r\n        uint256 birthTime,\r\n        uint256 mumId,\r\n        uint256 dadId,\r\n        uint256 generation\r\n    )\r\n    {\r\n        Kitty storage kitty = kitties[_id];\r\n\r\n        birthTime = uint256(kitty.birthTime);\r\n        mumId = uint256(kitty.mumId);\r\n        dadId = uint256(kitty.dadId);\r\n        generation = uint256(kitty.generation);\r\n        genes = kitty.genes;\r\n    }\r\n\r\n  // Counts the number of cats the contract owner has created.\r\n\r\n    function createKittyGen0(uint256 _genes) public onlyOwner returns (uint256) {\r\n        require(gen0Counter < CREATION_LIMIT_GEN0);\r\n\r\n        gen0Counter++;\r\n\r\n        //Gen0 have no owners - owned by the contract\r\n        return _createKitty(0, 0, 0, _genes, msg.sender);\r\n    }\r\n\r\n    function _createKitty(\r\n        uint256 _mumId,\r\n        uint256 _dadId,\r\n        uint256 _generation,\r\n        uint256 _genes,\r\n        address _owner\r\n    ) private returns (uint256){\r\n        Kitty memory _kitty = Kitty({\r\n            genes: uint256(_genes),\r\n            birthTime: uint64(block.timestamp),\r\n            mumId: uint32(_mumId),\r\n            dadId: uint32(_dadId),\r\n            generation: uint16(_generation)\r\n        });\r\n\r\n        kitties.push(_kitty);\r\n        uint256 newKittenId =  kitties.length - 1;\r\n\r\n        emit Birth(_owner, newKittenId, _mumId, _dadId, _genes);\r\n\r\n        _transfer(address(0), _owner, newKittenId);\r\n\r\n        return newKittenId;\r\n    }\r\n\r\n    function balanceOf(address owner) external view returns (uint256 balance) {\r\n        return ownershipTokenCount[owner];\r\n    }\r\n\r\n    function totalSupply() public view returns (uint256 total) {\r\n        return kitties.length;\r\n    }\r\n\r\n    function ownerOf(uint256 _tokenId) external view returns (address owner) {\r\n        return kittyIndexToOwner[_tokenId];\r\n    }\r\n\r\n    function transfer(address _to, uint256 _tokenId) external {\r\n        require(_to != address(0));\r\n        require(_to != address(this));\r\n        require(_owns(msg.sender, _tokenId));\r\n\r\n        _transfer(msg.sender, _to, _tokenId);\r\n    }\r\n\r\n    function _transfer( address _from, address _to, uint256 _tokenId) internal {\r\n        ownershipTokenCount[_to]++;\r\n\r\n        kittyIndexToOwner[_tokenId] = _to;\r\n\r\n        if(_from != address(0)) {\r\n            ownershipTokenCount[_from]--;\r\n            delete kittyIndexToApproved[_tokenId];\r\n        }\r\n\r\n        emit Transfer(_from, _to, _tokenId);\r\n    }\r\n\r\n    function _owns(address _claimant, uint256 _tokenId) internal view returns (bool) {\r\n        return kittyIndexToOwner[_tokenId] == _claimant;\r\n    }\r\n\r\n    function _approve(uint256 _tokenId, address _approved) internal {\r\n        kittyIndexToApproved[_tokenId] = _approved;\r\n    }\r\n\r\n    function _approvedFor(address _claimant, uint _tokenId) internal view returns (bool) {\r\n        return kittyIndexToApproved[_tokenId] == _claimant;\r\n    }\r\n\r\n    function _checkERC721Support(address _from, address _to, uint256 _tokenId, bytes memory _data) internal returns (bool) {\r\n        if(!_isContract(_to)){\r\n            return true;\r\n        }\r\n        \r\n        //Call onERC721Received in thte _to contract\r\n        bytes4 returnData = IERC721Receiver(_to).onERC721Received(msg.sender, _from, _tokenId, _data);\r\n        //Check return value\r\n        return returnData == MAGIC_ERC721_RECEIVED;\r\n\r\n\r\n    }\r\n\r\n    function _isContract(address _to) view internal returns (bool) {\r\n        uint32 size;\r\n        assembly{\r\n            size := extcodesize(_to)\r\n        }\r\n        return size > 0;\r\n    }\r\n\r\n    function _isApprovedOrOwner(address _spender, address _from, address _to, uint256 _tokenId) internal view returns (bool) {\r\n        require(_tokenId < kitties.length); //Token must exist\r\n        require(_to != address(0)); //TO address is not zero address\r\n        require(_owns(_from, _tokenId)); //From owns the token\r\n        \r\n        //spender is from OR spender is approved for tokenId OR spender is operator for from\r\n        return (_spender == _from || _approvedFor(_spender, _tokenId) || isApprovedForAll(_from, _spender));\r\n    }\r\n\r\n    function _mixDna( uint256 _mumDna, uint256 _dadDna) public view returns(uint256) {\r\n        uint256[11] memory geneArray;\r\n        uint16 random = uint16(block.timestamp % 65535);\r\n        \r\n        uint256 i = 1;\r\n        uint256 index = 10;\r\n\r\n        for(i = 1; i <=1024; i = i * 2){\r\n            if(random & i != 0){\r\n                geneArray[index] = uint16(_mumDna % 100);\r\n            } else{\r\n                geneArray[index] = uint16(_dadDna % 100);\r\n            }\r\n            _mumDna = _mumDna / 100;            \r\n            _dadDna = _dadDna / 100;\r\n\r\n            if(i != 1024){index = index -1;}\r\n        }\r\n\r\n        uint256 newGene;\r\n        for(i = 0; i < 11; i++){\r\n            newGene = newGene + geneArray[i];\r\n            if(i !=10){\r\n                newGene = newGene * 100;\r\n            }\r\n        }\r\n        return newGene;\r\n\r\n    //    1.  0000000000000001 = 1\r\n    //    2.  0000000000000010 = 2\r\n    //    3.  0000000000000100 = 4\r\n    //    4.  0000000000001000 = 8\r\n    //    5.  0000000000010000 = 16\r\n    //    6.  0000000000100000 = 32\r\n    //    7.  0000000001000000 = 64\r\n    //    8.  0000000010000000 = 128\r\n    //    9.  0000000000000001 = 256\r\n    //    10. 0000000000000001 = 512\r\n    //    11. 0000000000000001 = 1024\r\n    //    12. 0000000000000001 = 2048\r\n    //    13. 0000000000000001 = 4096\r\n    //    14. 0000000000000001 = 8192\r\n    //    15. 0000000000000001 = 16384\r\n    //    16. 0000000000000001 = 32768\r\n\r\n\r\n    }\r\n\r\n    KittyContract private _kittyContract;\r\n\r\n    struct Offer {\r\n        address payable seller;\r\n        uint256 price;\r\n        uint256 index;\r\n        uint256 tokenId;\r\n        bool active;\r\n    }\r\n\r\n    Offer[] offers;\r\n\r\n    event MarketTransaction(string TxType, address owner, uint256 tokenId);\r\n    \r\n    mapping(uint256 => Offer) tokenIdToOffer;\r\n\r\n    function setKittyContract(address _kittyContractAddress) public onlyOwner {\r\n        _kittyContract = KittyContract(_kittyContractAddress);\r\n    }\r\n\r\n\r\n\r\n    function getOffer(uint _tokenId) public view returns (address seller, uint256 price, uint256 index, uint256 tokenId, bool active){\r\n        Offer storage offer = tokenIdToOffer[_tokenId];\r\n        return (\r\n            offer.seller,\r\n            offer.price,\r\n            offer.index,\r\n            offer.tokenId,\r\n            offer.active\r\n        );\r\n    }\r\n\r\n    function getAllTokenOnSale() external view returns(uint256[] memory listOfOffers) {\r\n        uint256 totalOffers = offers.length;\r\n\r\n        if(totalOffers == 0) {\r\n            return new uint256[](0);\r\n        } else {\r\n\r\n            uint256[] memory result = new uint256[](totalOffers); //Size 1 (of Array)\r\n\r\n            uint256 offerId;\r\n\r\n            for (offerId = 0; offerId < totalOffers; offerId++) {\r\n                if(offers[offerId].active == true) {\r\n                    result[offerId] = offers[offerId].tokenId;\r\n                }\r\n            }\r\n            return result;\r\n        }\r\n    }\r\n\r\n    function _ownsKitty(address _address, uint256 _tokenId) internal view returns(bool) {\r\n        return (_kittyContract.ownerOf(_tokenId) == _address);\r\n    }\r\n\r\n    //Create New Offer for the given tokenId and price\r\n    function setOffer(uint256 _price, uint256 _tokenId) public {\r\n        require(_ownsKitty(msg.sender, _tokenId), \"You are not the owner of that Kitty\");\r\n        require(tokenIdToOffer[_tokenId].active == false, \"You cannot sell the same offer twice\");\r\n        require(_kittyContract.isApprovedForAll(msg.sender, address(this)), \"Contract needs to be appoved to transfer kitty in the future\");\r\n\r\n        Offer memory _offer = Offer({\r\n            seller: payable(msg.sender),\r\n            price: _price,\r\n            active: true,\r\n            tokenId: _tokenId,\r\n            index: offers.length\r\n        });\r\n\r\n        tokenIdToOffer[_tokenId] = _offer;\r\n        offers.push(_offer);\r\n\r\n        emit MarketTransaction(\"Create offer\", msg.sender, _tokenId);\r\n    }\r\n\r\n    //Remove existing offer\r\n    function removeOffer(uint256 _tokenId) public {\r\n       \r\n        Offer memory offer = tokenIdToOffer[_tokenId];\r\n        require(offer.seller == msg.sender, \"You are not the seller of that Kitty\");\r\n\r\n        delete tokenIdToOffer[_tokenId];\r\n        offers[offer.index].active = false;\r\n        \r\n        emit MarketTransaction(\"Remove Offer\", msg.sender, _tokenId);\r\n    }\r\n\r\n    //Accept offer and buy Kitty\r\n    function buyKitty(uint256 _tokenId) public payable {\r\n        Offer memory offer = tokenIdToOffer[_tokenId];\r\n        require(msg.value == offer.price, \"The price is incorrect\");\r\n        require(tokenIdToOffer[_tokenId].active == true, \"Not active\");\r\n\r\n        //Important to delete Kitty from mapping BEFORE paying out to prevent re-entry attacks\r\n        delete tokenIdToOffer[_tokenId];\r\n        offers[offer.index].active = false;\r\n\r\n        //Transfer funds to the seller\r\n        // TO DO: make this logic pull instead of push \r\n        if(offer.price > 0){\r\n            offer.seller.transfer(offer.price);\r\n        }\r\n\r\n        //Transfer ownership of the Kitty\r\n        _kittyContract.transferFrom(offer.seller, msg.sender, _tokenId);\r\n\r\n        emit MarketTransaction(\"Buy\", msg.sender, _tokenId); \r\n    }\r\n\r\n}\r\n\r\n",
  "sourcePath": "C:\\Users\\daver\\Documents\\KITTY CLONE\\academy-kitties-template\\contracts\\KittyContract.sol",
  "compiler": {
    "name": "solc",
    "version": "0.8.12+commit.f00d7308.Emscripten.clang"
  },
  "schemaVersion": "3.4.9",
  "updatedAt": "2022-10-25T21:52:39.679Z",
  "networkType": "ethereum",
  "devdoc": {
    "kind": "dev",
    "methods": {
      "balanceOf(address)": {
        "details": "Returns the number of tokens in ``owner``'s account."
      },
      "safeTransferFrom(address,address,uint256)": {
        "details": "This works identically to the other function with an extra data parameter,  except this function just sets data to \"\".",
        "params": {
          "_from": "The current owner of the NFT",
          "_to": "The new owner",
          "_tokenId": "The NFT to transfer"
        }
      },
      "transferFrom(address,address,uint256)": {
        "details": "Throws unless `msg.sender` is the current owner, an authorized  operator, or the approved address for this NFT. Throws if `_from` is  not the current owner. Throws if `_to` is the zero address. Throws if  `_tokenId` is not a valid NFT.",
        "params": {
          "_from": "The current owner of the NFT",
          "_to": "The new owner",
          "_tokenId": "The NFT to transfer"
        }
      }
    },
    "version": 1
  },
  "userdoc": {
    "kind": "user",
    "methods": {
      "safeTransferFrom(address,address,uint256)": {
        "notice": "Transfers the ownership of an NFT from one address to another address"
      },
      "transferFrom(address,address,uint256)": {
        "notice": "Transfer ownership of an NFT -- THE CALLER IS RESPONSIBLE  TO CONFIRM THAT `_to` IS CAPABLE OF RECEIVING NFTS OR ELSE  THEY MAY BE PERMANENTLY LOST"
      }
    },
    "version": 1
  }
}