{
  "contractName": "KittyMarketPlace",
  "abi": [
    {
      "inputs": [
        {
          "internalType": "address",
          "name": "_kittyContractAddress",
          "type": "address"
        }
      ],
      "stateMutability": "nonpayable",
      "type": "constructor"
    },
    {
      "anonymous": false,
      "inputs": [
        {
          "indexed": false,
          "internalType": "string",
          "name": "TxType",
          "type": "string"
        },
        {
          "indexed": false,
          "internalType": "address",
          "name": "owner",
          "type": "address"
        },
        {
          "indexed": false,
          "internalType": "uint256",
          "name": "tokenId",
          "type": "uint256"
        }
      ],
      "name": "MarketTransaction",
      "type": "event"
    },
    {
      "inputs": [],
      "name": "owner",
      "outputs": [
        {
          "internalType": "address",
          "name": "",
          "type": "address"
        }
      ],
      "stateMutability": "view",
      "type": "function"
    },
    {
      "inputs": [
        {
          "internalType": "address",
          "name": "_kittyContractAddress",
          "type": "address"
        }
      ],
      "name": "setKittyContract",
      "outputs": [],
      "stateMutability": "nonpayable",
      "type": "function"
    },
    {
      "inputs": [
        {
          "internalType": "uint256",
          "name": "_tokenId",
          "type": "uint256"
        }
      ],
      "name": "getOffer",
      "outputs": [
        {
          "internalType": "address",
          "name": "seller",
          "type": "address"
        },
        {
          "internalType": "uint256",
          "name": "price",
          "type": "uint256"
        },
        {
          "internalType": "uint256",
          "name": "index",
          "type": "uint256"
        },
        {
          "internalType": "uint256",
          "name": "tokenId",
          "type": "uint256"
        },
        {
          "internalType": "bool",
          "name": "active",
          "type": "bool"
        }
      ],
      "stateMutability": "view",
      "type": "function"
    },
    {
      "inputs": [],
      "name": "getAllTokenOnSale",
      "outputs": [
        {
          "internalType": "uint256[]",
          "name": "listOfOffers",
          "type": "uint256[]"
        }
      ],
      "stateMutability": "view",
      "type": "function"
    },
    {
      "inputs": [
        {
          "internalType": "uint256",
          "name": "_price",
          "type": "uint256"
        },
        {
          "internalType": "uint256",
          "name": "_tokenId",
          "type": "uint256"
        }
      ],
      "name": "setOffer",
      "outputs": [],
      "stateMutability": "nonpayable",
      "type": "function"
    },
    {
      "inputs": [
        {
          "internalType": "uint256",
          "name": "_tokenId",
          "type": "uint256"
        }
      ],
      "name": "removeOffer",
      "outputs": [],
      "stateMutability": "nonpayable",
      "type": "function"
    },
    {
      "inputs": [
        {
          "internalType": "uint256",
          "name": "_tokenId",
          "type": "uint256"
        }
      ],
      "name": "buyKitty",
      "outputs": [],
      "stateMutability": "payable",
      "type": "function"
    }
  ],
  "bytecode": "0x6080604052336000806101000a81548173ffffffffffffffffffffffffffffffffffffffff021916908373ffffffffffffffffffffffffffffffffffffffff1602179055503480156200005157600080fd5b5060405162001af538038062001af58339818101604052810190620000779190620001ce565b62000088816200008f60201b60201c565b5062000283565b60008054906101000a900473ffffffffffffffffffffffffffffffffffffffff1673ffffffffffffffffffffffffffffffffffffffff163373ffffffffffffffffffffffffffffffffffffffff161462000120576040517f08c379a0000000000000000000000000000000000000000000000000000000008152600401620001179062000261565b60405180910390fd5b80600160006101000a81548173ffffffffffffffffffffffffffffffffffffffff021916908373ffffffffffffffffffffffffffffffffffffffff16021790555050565b600080fd5b600073ffffffffffffffffffffffffffffffffffffffff82169050919050565b6000620001968262000169565b9050919050565b620001a88162000189565b8114620001b457600080fd5b50565b600081519050620001c8816200019d565b92915050565b600060208284031215620001e757620001e662000164565b5b6000620001f784828501620001b7565b91505092915050565b600082825260208201905092915050565b7f596f7520617265206e6f7420746865206f776e65720000000000000000000000600082015250565b60006200024960158362000200565b9150620002568262000211565b602082019050919050565b600060208201905081810360008301526200027c816200023a565b9050919050565b61186280620002936000396000f3fe6080604052600436106100705760003560e01c80638da5cb5b1161004e5780638da5cb5b1461010a578063941b055b1461013557806395a0f9c71461015e578063ae5310f61461018757610070565b80634579268a1461007557806349b3709f146100b657806362b7f94e146100e1575b600080fd5b34801561008157600080fd5b5061009c60048036038101906100979190610e2d565b6101a3565b6040516100ad959493929190610ec5565b60405180910390f35b3480156100c257600080fd5b506100cb61021b565b6040516100d89190610fd6565b60405180910390f35b3480156100ed57600080fd5b5061010860048036038101906101039190611024565b61037c565b005b34801561011657600080fd5b5061011f61044e565b60405161012c9190611051565b60405180910390f35b34801561014157600080fd5b5061015c6004803603810190610157919061106c565b610472565b005b34801561016a57600080fd5b5061018560048036038101906101809190610e2d565b6107d8565b005b6101a1600480360381019061019c9190610e2d565b6109e3565b005b6000806000806000806003600088815260200190815260200160002090508060000160009054906101000a900473ffffffffffffffffffffffffffffffffffffffff168160010154826002015483600301548460040160009054906101000a900460ff16955095509550955095505091939590929450565b606060006002805490509050600081141561028257600067ffffffffffffffff81111561024b5761024a6110ac565b5b6040519080825280602002602001820160405280156102795781602001602082028036833780820191505090505b50915050610379565b60008167ffffffffffffffff81111561029e5761029d6110ac565b5b6040519080825280602002602001820160405280156102cc5781602001602082028036833780820191505090505b50905060005b828110156103725760011515600282815481106102f2576102f16110db565b5b906000526020600020906005020160040160009054906101000a900460ff161515141561035f576002818154811061032d5761032c6110db565b5b906000526020600020906005020160030154828281518110610352576103516110db565b5b6020026020010181815250505b808061036a90611139565b9150506102d2565b8193505050505b90565b60008054906101000a900473ffffffffffffffffffffffffffffffffffffffff1673ffffffffffffffffffffffffffffffffffffffff163373ffffffffffffffffffffffffffffffffffffffff161461040a576040517f08c379a0000000000000000000000000000000000000000000000000000000008152600401610401906111df565b60405180910390fd5b80600160006101000a81548173ffffffffffffffffffffffffffffffffffffffff021916908373ffffffffffffffffffffffffffffffffffffffff16021790555050565b60008054906101000a900473ffffffffffffffffffffffffffffffffffffffff1681565b61047c3382610d1e565b6104bb576040517f08c379a00000000000000000000000000000000000000000000000000000000081526004016104b290611271565b60405180910390fd5b600015156003600083815260200190815260200160002060040160009054906101000a900460ff16151514610525576040517f08c379a000000000000000000000000000000000000000000000000000000000815260040161051c90611303565b60405180910390fd5b600160009054906101000a900473ffffffffffffffffffffffffffffffffffffffff1673ffffffffffffffffffffffffffffffffffffffff1663e985e9c533306040518363ffffffff1660e01b8152600401610582929190611323565b602060405180830381865afa15801561059f573d6000803e3d6000fd5b505050506040513d601f19601f820116820180604052508101906105c39190611378565b610602576040517f08c379a00000000000000000000000000000000000000000000000000000000081526004016105f990611417565b60405180910390fd5b60006040518060a001604052803373ffffffffffffffffffffffffffffffffffffffff1681526020018481526020016002805490508152602001838152602001600115158152509050806003600084815260200190815260200160002060008201518160000160006101000a81548173ffffffffffffffffffffffffffffffffffffffff021916908373ffffffffffffffffffffffffffffffffffffffff16021790555060208201518160010155604082015181600201556060820151816003015560808201518160040160006101000a81548160ff021916908315150217905550905050600281908060018154018082558091505060019003906000526020600020906005020160009091909190915060008201518160000160006101000a81548173ffffffffffffffffffffffffffffffffffffffff021916908373ffffffffffffffffffffffffffffffffffffffff16021790555060208201518160010155604082015181600201556060820151816003015560808201518160040160006101000a81548160ff02191690831515021790555050507fd99e4fad9ad6313b1feb588fa8e605e3a9873172f2024330c35dd2b4041a438633836040516107cb929190611483565b60405180910390a1505050565b6000600360008381526020019081526020016000206040518060a00160405290816000820160009054906101000a900473ffffffffffffffffffffffffffffffffffffffff1673ffffffffffffffffffffffffffffffffffffffff1673ffffffffffffffffffffffffffffffffffffffff1681526020016001820154815260200160028201548152602001600382015481526020016004820160009054906101000a900460ff16151515158152505090503373ffffffffffffffffffffffffffffffffffffffff16816000015173ffffffffffffffffffffffffffffffffffffffff16146108fb576040517f08c379a00000000000000000000000000000000000000000000000000000000081526004016108f290611531565b60405180910390fd5b60036000838152602001908152602001600020600080820160006101000a81549073ffffffffffffffffffffffffffffffffffffffff02191690556001820160009055600282016000905560038201600090556004820160006101000a81549060ff021916905550506000600282604001518154811061097e5761097d6110db565b5b906000526020600020906005020160040160006101000a81548160ff0219169083151502179055507fd99e4fad9ad6313b1feb588fa8e605e3a9873172f2024330c35dd2b4041a438633836040516109d792919061159d565b60405180910390a15050565b6000600360008381526020019081526020016000206040518060a00160405290816000820160009054906101000a900473ffffffffffffffffffffffffffffffffffffffff1673ffffffffffffffffffffffffffffffffffffffff1673ffffffffffffffffffffffffffffffffffffffff1681526020016001820154815260200160028201548152602001600382015481526020016004820160009054906101000a900460ff161515151581525050905080602001513414610ada576040517f08c379a0000000000000000000000000000000000000000000000000000000008152600401610ad190611625565b60405180910390fd5b600115156003600084815260200190815260200160002060040160009054906101000a900460ff16151514610b44576040517f08c379a0000000000000000000000000000000000000000000000000000000008152600401610b3b90611691565b60405180910390fd5b60036000838152602001908152602001600020600080820160006101000a81549073ffffffffffffffffffffffffffffffffffffffff02191690556001820160009055600282016000905560038201600090556004820160006101000a81549060ff0219169055505060006002826040015181548110610bc757610bc66110db565b5b906000526020600020906005020160040160006101000a81548160ff021916908315150217905550600081602001511115610c4c57806000015173ffffffffffffffffffffffffffffffffffffffff166108fc82602001519081150290604051600060405180830381858888f19350505050158015610c4a573d6000803e3d6000fd5b505b600160009054906101000a900473ffffffffffffffffffffffffffffffffffffffff1673ffffffffffffffffffffffffffffffffffffffff166323b872dd826000015133856040518463ffffffff1660e01b8152600401610caf93929190611710565b600060405180830381600087803b158015610cc957600080fd5b505af1158015610cdd573d6000803e3d6000fd5b505050507fd99e4fad9ad6313b1feb588fa8e605e3a9873172f2024330c35dd2b4041a43863383604051610d12929190611793565b60405180910390a15050565b60008273ffffffffffffffffffffffffffffffffffffffff16600160009054906101000a900473ffffffffffffffffffffffffffffffffffffffff1673ffffffffffffffffffffffffffffffffffffffff16636352211e846040518263ffffffff1660e01b8152600401610d9291906117cf565b602060405180830381865afa158015610daf573d6000803e3d6000fd5b505050506040513d601f19601f82011682018060405250810190610dd391906117ff565b73ffffffffffffffffffffffffffffffffffffffff1614905092915050565b600080fd5b6000819050919050565b610e0a81610df7565b8114610e1557600080fd5b50565b600081359050610e2781610e01565b92915050565b600060208284031215610e4357610e42610df2565b5b6000610e5184828501610e18565b91505092915050565b600073ffffffffffffffffffffffffffffffffffffffff82169050919050565b6000610e8582610e5a565b9050919050565b610e9581610e7a565b82525050565b610ea481610df7565b82525050565b60008115159050919050565b610ebf81610eaa565b82525050565b600060a082019050610eda6000830188610e8c565b610ee76020830187610e9b565b610ef46040830186610e9b565b610f016060830185610e9b565b610f0e6080830184610eb6565b9695505050505050565b600081519050919050565b600082825260208201905092915050565b6000819050602082019050919050565b610f4d81610df7565b82525050565b6000610f5f8383610f44565b60208301905092915050565b6000602082019050919050565b6000610f8382610f18565b610f8d8185610f23565b9350610f9883610f34565b8060005b83811015610fc9578151610fb08882610f53565b9750610fbb83610f6b565b925050600181019050610f9c565b5085935050505092915050565b60006020820190508181036000830152610ff08184610f78565b905092915050565b61100181610e7a565b811461100c57600080fd5b50565b60008135905061101e81610ff8565b92915050565b60006020828403121561103a57611039610df2565b5b60006110488482850161100f565b91505092915050565b60006020820190506110666000830184610e8c565b92915050565b6000806040838503121561108357611082610df2565b5b600061109185828601610e18565b92505060206110a285828601610e18565b9150509250929050565b7f4e487b7100000000000000000000000000000000000000000000000000000000600052604160045260246000fd5b7f4e487b7100000000000000000000000000000000000000000000000000000000600052603260045260246000fd5b7f4e487b7100000000000000000000000000000000000000000000000000000000600052601160045260246000fd5b600061114482610df7565b91507fffffffffffffffffffffffffffffffffffffffffffffffffffffffffffffffff8214156111775761117661110a565b5b600182019050919050565b600082825260208201905092915050565b7f596f7520617265206e6f7420746865206f776e65720000000000000000000000600082015250565b60006111c9601583611182565b91506111d482611193565b602082019050919050565b600060208201905081810360008301526111f8816111bc565b9050919050565b7f596f7520617265206e6f7420746865206f776e6572206f662074686174204b6960008201527f7474790000000000000000000000000000000000000000000000000000000000602082015250565b600061125b602383611182565b9150611266826111ff565b604082019050919050565b6000602082019050818103600083015261128a8161124e565b9050919050565b7f596f752063616e6e6f742073656c6c207468652073616d65206f66666572207460008201527f7769636500000000000000000000000000000000000000000000000000000000602082015250565b60006112ed602483611182565b91506112f882611291565b604082019050919050565b6000602082019050818103600083015261131c816112e0565b9050919050565b60006040820190506113386000830185610e8c565b6113456020830184610e8c565b9392505050565b61135581610eaa565b811461136057600080fd5b50565b6000815190506113728161134c565b92915050565b60006020828403121561138e5761138d610df2565b5b600061139c84828501611363565b91505092915050565b7f436f6e7472616374206e6565647320746f206265206170706f76656420746f2060008201527f7472616e73666572206b6974747920696e207468652066757475726500000000602082015250565b6000611401603c83611182565b915061140c826113a5565b604082019050919050565b60006020820190508181036000830152611430816113f4565b9050919050565b7f437265617465206f666665720000000000000000000000000000000000000000600082015250565b600061146d600c83611182565b915061147882611437565b602082019050919050565b6000606082019050818103600083015261149c81611460565b90506114ab6020830185610e8c565b6114b86040830184610e9b565b9392505050565b7f596f7520617265206e6f74207468652073656c6c6572206f662074686174204b60008201527f6974747900000000000000000000000000000000000000000000000000000000602082015250565b600061151b602483611182565b9150611526826114bf565b604082019050919050565b6000602082019050818103600083015261154a8161150e565b9050919050565b7f52656d6f7665204f666665720000000000000000000000000000000000000000600082015250565b6000611587600c83611182565b915061159282611551565b602082019050919050565b600060608201905081810360008301526115b68161157a565b90506115c56020830185610e8c565b6115d26040830184610e9b565b9392505050565b7f54686520707269636520697320696e636f727265637400000000000000000000600082015250565b600061160f601683611182565b915061161a826115d9565b602082019050919050565b6000602082019050818103600083015261163e81611602565b9050919050565b7f4e6f742061637469766500000000000000000000000000000000000000000000600082015250565b600061167b600a83611182565b915061168682611645565b602082019050919050565b600060208201905081810360008301526116aa8161166e565b9050919050565b6000819050919050565b60006116d66116d16116cc84610e5a565b6116b1565b610e5a565b9050919050565b60006116e8826116bb565b9050919050565b60006116fa826116dd565b9050919050565b61170a816116ef565b82525050565b60006060820190506117256000830186611701565b6117326020830185610e8c565b61173f6040830184610e9b565b949350505050565b7f4275790000000000000000000000000000000000000000000000000000000000600082015250565b600061177d600383611182565b915061178882611747565b602082019050919050565b600060608201905081810360008301526117ac81611770565b90506117bb6020830185610e8c565b6117c86040830184610e9b565b9392505050565b60006020820190506117e46000830184610e9b565b92915050565b6000815190506117f981610ff8565b92915050565b60006020828403121561181557611814610df2565b5b6000611823848285016117ea565b9150509291505056fea2646970667358221220443c5736cd93657a6faa78f61238f2fa730178259e1db634efaa810ce5db65cd64736f6c634300080c0033",
  "immutableReferences": {},
  "source": "// SPDX-License-Identifier: MIT\r\npragma solidity  >=0.4.22 <0.9.0;\r\n\r\nimport \"./KittyContract.sol\";\r\nimport \"./Ownable.sol\";\r\n\r\n\r\n\r\ncontract KittyMarketPlace is Ownable {\r\n    KittyContract private _kittyContract;\r\n\r\n    struct Offer {\r\n        address payable seller;\r\n        uint256 price;\r\n        uint256 index;\r\n        uint256 tokenId;\r\n        bool active;\r\n    }\r\n\r\n    Offer[] offers;\r\n\r\n    event MarketTransaction(string TxType, address owner, uint256 tokenId);\r\n    \r\n    mapping(uint256 => Offer) tokenIdToOffer;\r\n\r\n    function setKittyContract(address _kittyContractAddress) public onlyOwner {\r\n        _kittyContract = KittyContract(_kittyContractAddress);\r\n    }\r\n\r\n    constructor(address _kittyContractAddress) {\r\n        setKittyContract(_kittyContractAddress);\r\n    }\r\n\r\n    function getOffer(uint _tokenId) public view returns (address seller, uint256 price, uint256 index, uint256 tokenId, bool active){\r\n        Offer storage offer = tokenIdToOffer[_tokenId];\r\n        return (\r\n            offer.seller,\r\n            offer.price,\r\n            offer.index,\r\n            offer.tokenId,\r\n            offer.active\r\n        );\r\n    }\r\n\r\n    function getAllTokenOnSale() external view returns(uint256[] memory listOfOffers) {\r\n        uint256 totalOffers = offers.length;\r\n\r\n        if(totalOffers == 0) {\r\n            return new uint256[](0);\r\n        } else {\r\n\r\n            uint256[] memory result = new uint256[](totalOffers); //Size 1 (of Array)\r\n\r\n            uint256 offerId;\r\n\r\n            for (offerId = 0; offerId < totalOffers; offerId++) {\r\n                if(offers[offerId].active == true) {\r\n                    result[offerId] = offers[offerId].tokenId;\r\n                }\r\n            }\r\n            return result;\r\n        }\r\n    }\r\n\r\n    function _ownsKitty(address _address, uint256 _tokenId) internal view returns(bool) {\r\n        return (_kittyContract.ownerOf(_tokenId) == _address);\r\n    }\r\n\r\n    //Create New Offer for the given tokenId and price\r\n    function setOffer(uint256 _price, uint256 _tokenId) public {\r\n        require(_ownsKitty(msg.sender, _tokenId), \"You are not the owner of that Kitty\");\r\n        require(tokenIdToOffer[_tokenId].active == false, \"You cannot sell the same offer twice\");\r\n        require(_kittyContract.isApprovedForAll(msg.sender, address(this)), \"Contract needs to be appoved to transfer kitty in the future\");\r\n\r\n        Offer memory _offer = Offer({\r\n            seller: payable(msg.sender),\r\n            price: _price,\r\n            active: true,\r\n            tokenId: _tokenId,\r\n            index: offers.length\r\n        });\r\n\r\n        tokenIdToOffer[_tokenId] = _offer;\r\n        offers.push(_offer);\r\n\r\n        emit MarketTransaction(\"Create offer\", msg.sender, _tokenId);\r\n    }\r\n\r\n    //Remove existing offer\r\n    function removeOffer(uint256 _tokenId) public {\r\n       \r\n        Offer memory offer = tokenIdToOffer[_tokenId];\r\n        require(offer.seller == msg.sender, \"You are not the seller of that Kitty\");\r\n\r\n        delete tokenIdToOffer[_tokenId];\r\n        offers[offer.index].active = false;\r\n        \r\n        emit MarketTransaction(\"Remove Offer\", msg.sender, _tokenId);\r\n    }\r\n\r\n    //Accept offer and buy Kitty\r\n    function buyKitty(uint256 _tokenId) public payable {\r\n        Offer memory offer = tokenIdToOffer[_tokenId];\r\n        require(msg.value == offer.price, \"The price is incorrect\");\r\n        require(tokenIdToOffer[_tokenId].active == true, \"Not active\");\r\n\r\n        //Important to delete Kitty from mapping BEFORE paying out to prevent re-entry attacks\r\n        delete tokenIdToOffer[_tokenId];\r\n        offers[offer.index].active = false;\r\n\r\n        //Transfer funds to the seller\r\n        // TO DO: make this logic pull instead of push \r\n        if(offer.price > 0){\r\n            offer.seller.transfer(offer.price);\r\n        }\r\n\r\n        //Transfer ownership of the Kitty\r\n        _kittyContract.transferFrom(offer.seller, msg.sender, _tokenId);\r\n\r\n        emit MarketTransaction(\"Buy\", msg.sender, _tokenId); \r\n    }\r\n\r\n}",
  "sourcePath": "C:\\Users\\daver\\Documents\\KITTY CLONE\\academy-kitties-template\\contracts\\KittyMarketPlace.sol",
  "compiler": {
    "name": "solc",
    "version": "0.8.12+commit.f00d7308.Emscripten.clang"
  },
  "schemaVersion": "3.4.9",
  "updatedAt": "2022-10-26T18:17:58.818Z",
  "devdoc": {
    "kind": "dev",
    "methods": {},
    "version": 1
  },
  "userdoc": {
    "kind": "user",
    "methods": {},
    "version": 1
  }
}